{
  "contractName": "Authentication",
  "abi": [
    {
      "constant": false,
      "inputs": [],
      "name": "kill",
      "outputs": [],
      "payable": false,
      "stateMutability": "nonpayable",
      "type": "function"
    },
    {
      "constant": true,
      "inputs": [],
      "name": "owner",
      "outputs": [
        {
          "name": "",
          "type": "address"
        }
      ],
      "payable": false,
      "stateMutability": "view",
      "type": "function"
    },
    {
      "constant": false,
      "inputs": [
        {
          "name": "newOwner",
          "type": "address"
        }
      ],
      "name": "transferOwnership",
      "outputs": [],
      "payable": false,
      "stateMutability": "nonpayable",
      "type": "function"
    },
    {
      "anonymous": false,
      "inputs": [
        {
          "indexed": false,
          "name": "from",
          "type": "address"
        },
        {
          "indexed": false,
          "name": "to",
          "type": "address"
        }
      ],
      "name": "OwnershipChanged",
      "type": "event"
    },
    {
      "constant": false,
      "inputs": [
        {
          "name": "_studio",
          "type": "address"
        }
      ],
      "name": "setStudio",
      "outputs": [],
      "payable": false,
      "stateMutability": "nonpayable",
      "type": "function"
    },
    {
      "constant": false,
      "inputs": [
        {
          "name": "_individual",
          "type": "address"
        }
      ],
      "name": "setIndividual",
      "outputs": [],
      "payable": false,
      "stateMutability": "nonpayable",
      "type": "function"
    },
    {
      "constant": false,
      "inputs": [
        {
          "name": "_reseller",
          "type": "address"
        }
      ],
      "name": "setReseller",
      "outputs": [],
      "payable": false,
      "stateMutability": "nonpayable",
      "type": "function"
    },
    {
      "constant": true,
      "inputs": [],
      "name": "login",
      "outputs": [
        {
          "name": "",
          "type": "bool"
        }
      ],
      "payable": false,
      "stateMutability": "view",
      "type": "function"
    },
    {
      "constant": true,
      "inputs": [],
      "name": "userType",
      "outputs": [
        {
          "name": "",
          "type": "string"
        }
      ],
      "payable": false,
      "stateMutability": "view",
      "type": "function"
    },
    {
      "constant": false,
      "inputs": [
        {
          "name": "_user",
          "type": "address"
        },
        {
          "name": "_userType",
          "type": "string"
        }
      ],
      "name": "signup",
      "outputs": [],
      "payable": false,
      "stateMutability": "nonpayable",
      "type": "function"
    }
  ],
  "bytecode": "0x6060604052336000806101000a81548173ffffffffffffffffffffffffffffffffffffffff021916908373ffffffffffffffffffffffffffffffffffffffff160217905550610bda806100536000396000f300606060405260043610610099576000357c0100000000000000000000000000000000000000000000000000000000900463ffffffff1680631e88f7dc1461009e57806320b276dc146100eb57806341c0e1b514610124578063507740941461013957806384819ace146101725780638da5cb5b14610200578063b34e97e814610255578063b976c66b14610282578063f2fde38b146102bb575b600080fd5b34156100a957600080fd5b6100e9600480803573ffffffffffffffffffffffffffffffffffffffff1690602001909190803590602001908201803590602001919091929050506102f4565b005b34156100f657600080fd5b610122600480803573ffffffffffffffffffffffffffffffffffffffff1690602001909190505061058f565b005b341561012f57600080fd5b610137610629565b005b341561014457600080fd5b610170600480803573ffffffffffffffffffffffffffffffffffffffff169060200190919050506106ba565b005b341561017d57600080fd5b610185610754565b6040518080602001828103825283818151815260200191508051906020019080838360005b838110156101c55780820151818401526020810190506101aa565b50505050905090810190601f1680156101f25780820380516001836020036101000a031916815260200191505b509250505060405180910390f35b341561020b57600080fd5b61021361083c565b604051808273ffffffffffffffffffffffffffffffffffffffff1673ffffffffffffffffffffffffffffffffffffffff16815260200191505060405180910390f35b341561026057600080fd5b610268610861565b604051808215151515815260200191505060405180910390f35b341561028d57600080fd5b6102b9600480803573ffffffffffffffffffffffffffffffffffffffff169060200190919050506108e4565b005b34156102c657600080fd5b6102f2600480803573ffffffffffffffffffffffffffffffffffffffff1690602001909190505061097e565b005b600160009054906101000a900473ffffffffffffffffffffffffffffffffffffffff1673ffffffffffffffffffffffffffffffffffffffff163373ffffffffffffffffffffffffffffffffffffffff16148061039d5750600260009054906101000a900473ffffffffffffffffffffffffffffffffffffffff1673ffffffffffffffffffffffffffffffffffffffff163373ffffffffffffffffffffffffffffffffffffffff16145b806103f55750600360009054906101000a900473ffffffffffffffffffffffffffffffffffffffff1673ffffffffffffffffffffffffffffffffffffffff163373ffffffffffffffffffffffffffffffffffffffff16145b151561040057600080fd5b6000600460008573ffffffffffffffffffffffffffffffffffffffff1673ffffffffffffffffffffffffffffffffffffffff16815260200190815260200160002060000160009054906101000a900473ffffffffffffffffffffffffffffffffffffffff1673ffffffffffffffffffffffffffffffffffffffff1614151561048757600080fd5b60408051908101604052808473ffffffffffffffffffffffffffffffffffffffff16815260200183838080601f016020809104026020016040519081016040528093929190818152602001838380828437820191505050505050815250600460008573ffffffffffffffffffffffffffffffffffffffff1673ffffffffffffffffffffffffffffffffffffffff16815260200190815260200160002060008201518160000160006101000a81548173ffffffffffffffffffffffffffffffffffffffff021916908373ffffffffffffffffffffffffffffffffffffffff1602179055506020820151816001019080519060200190610586929190610af5565b50905050505050565b6000809054906101000a900473ffffffffffffffffffffffffffffffffffffffff1673ffffffffffffffffffffffffffffffffffffffff163373ffffffffffffffffffffffffffffffffffffffff1614156106265780600360006101000a81548173ffffffffffffffffffffffffffffffffffffffff021916908373ffffffffffffffffffffffffffffffffffffffff1602179055505b50565b6000809054906101000a900473ffffffffffffffffffffffffffffffffffffffff1673ffffffffffffffffffffffffffffffffffffffff163373ffffffffffffffffffffffffffffffffffffffff1614156106b8576000809054906101000a900473ffffffffffffffffffffffffffffffffffffffff1673ffffffffffffffffffffffffffffffffffffffff16ff5b565b6000809054906101000a900473ffffffffffffffffffffffffffffffffffffffff1673ffffffffffffffffffffffffffffffffffffffff163373ffffffffffffffffffffffffffffffffffffffff1614156107515780600260006101000a81548173ffffffffffffffffffffffffffffffffffffffff021916908373ffffffffffffffffffffffffffffffffffffffff1602179055505b50565b61075c610b75565b600460003373ffffffffffffffffffffffffffffffffffffffff1673ffffffffffffffffffffffffffffffffffffffff1681526020019081526020016000206001018054600181600116156101000203166002900480601f0160208091040260200160405190810160405280929190818152602001828054600181600116156101000203166002900480156108325780601f1061080757610100808354040283529160200191610832565b820191906000526020600020905b81548152906001019060200180831161081557829003601f168201915b5050505050905090565b6000809054906101000a900473ffffffffffffffffffffffffffffffffffffffff1681565b600080600460003373ffffffffffffffffffffffffffffffffffffffff1673ffffffffffffffffffffffffffffffffffffffff16815260200190815260200160002060000160009054906101000a900473ffffffffffffffffffffffffffffffffffffffff1673ffffffffffffffffffffffffffffffffffffffff161415905090565b6000809054906101000a900473ffffffffffffffffffffffffffffffffffffffff1673ffffffffffffffffffffffffffffffffffffffff163373ffffffffffffffffffffffffffffffffffffffff16141561097b5780600160006101000a81548173ffffffffffffffffffffffffffffffffffffffff021916908373ffffffffffffffffffffffffffffffffffffffff1602179055505b50565b6000809054906101000a900473ffffffffffffffffffffffffffffffffffffffff1673ffffffffffffffffffffffffffffffffffffffff163373ffffffffffffffffffffffffffffffffffffffff161415610af25760008173ffffffffffffffffffffffffffffffffffffffff16141515156109f957600080fd5b7f0384899bd253d83b23daa4d29aaa2efe0563d1132b43101e9ad667235aeb951b6000809054906101000a900473ffffffffffffffffffffffffffffffffffffffff1682604051808373ffffffffffffffffffffffffffffffffffffffff1673ffffffffffffffffffffffffffffffffffffffff1681526020018273ffffffffffffffffffffffffffffffffffffffff1673ffffffffffffffffffffffffffffffffffffffff1681526020019250505060405180910390a1806000806101000a81548173ffffffffffffffffffffffffffffffffffffffff021916908373ffffffffffffffffffffffffffffffffffffffff1602179055505b50565b828054600181600116156101000203166002900490600052602060002090601f016020900481019282601f10610b3657805160ff1916838001178555610b64565b82800160010185558215610b64579182015b82811115610b63578251825591602001919060010190610b48565b5b509050610b719190610b89565b5090565b602060405190810160405280600081525090565b610bab91905b80821115610ba7576000816000905550600101610b8f565b5090565b905600a165627a7a72305820873abb053ba6a3b7a5f58b0cfaafdf152894ec485503558227456feb544bc1b90029",
  "source": "pragma solidity ^0.4.18;\n\nimport \"./zeppelin/lifecycle/Killable.sol\";\n\ncontract Authentication is Killable {\n\n    struct User {\n        address user;\n        string userType;\n    }\n\n    address private studio;\n    address private individual;\n    address private reseller;\n\n    mapping (address => User) private users;\n\n    uint private id; // Stores user id temporarily\n\n    modifier trusted() {\n        require (msg.sender == studio || msg.sender == individual || msg.sender == reseller);\n        _;\n    }\n\n    function setStudio(address _studio) public onlyOwner {\n        studio = _studio;\n    }\n\n    function setIndividual(address _individual) public onlyOwner {\n        individual = _individual;\n    }\n\n    function setReseller(address _reseller) public onlyOwner {\n        reseller = _reseller;\n    }\n\n    function login() public view returns (bool) {\n        return users[msg.sender].user != 0x0;\n    }\n\n    function userType() public view returns (string) {\n        return users[msg.sender].userType;\n    }\n\n    function signup(address _user, string _userType) trusted external {\n        //called from Individual or Studio contract (trusted)\n        require(users[_user].user == 0x0);\n        users[_user] = User(_user, _userType);\n    }\n}\n",
  "sourcePath": "/Users/eric/Development/Jumbo/contracts/Authentication.sol",
  "compiler": {
    "name": "solc",
    "version": "0.4.19+commit.c4cbbb05.Emscripten.clang"
  },
  "schemaVersion": "2.0.0",
  "updatedAt": "2018-04-13T12:57:08.866Z"
}