{
  "contractName": "Array",
  "abi": [
    {
      "constant": true,
      "inputs": [],
      "name": "NOT_FOUND",
      "outputs": [
        {
          "name": "",
          "type": "int256"
        }
      ],
      "payable": false,
      "stateMutability": "pure",
      "type": "function"
    },
    {
      "constant": true,
      "inputs": [
        {
          "name": "haystack",
          "type": "address[]"
        },
        {
          "name": "needle",
          "type": "address"
        }
      ],
      "name": "contains",
      "outputs": [
        {
          "name": "",
          "type": "int256"
        }
      ],
      "payable": false,
      "stateMutability": "pure",
      "type": "function"
    },
    {
      "constant": true,
      "inputs": [
        {
          "name": "haystack",
          "type": "address[]"
        },
        {
          "name": "needle",
          "type": "address"
        }
      ],
      "name": "remove",
      "outputs": [
        {
          "name": "",
          "type": "address[]"
        }
      ],
      "payable": false,
      "stateMutability": "pure",
      "type": "function"
    }
  ],
  "bytecode": "0x6060604052341561000f57600080fd5b6103df8061001e6000396000f300606060405260043610610057576000357c0100000000000000000000000000000000000000000000000000000000900463ffffffff1680633da80d661461005c578063566a691b146100de5780635ffce20a146101a1575b600080fd5b6100c860048080359060200190820180359060200190808060200260200160405190810160405280939291908181526020018383602002808284378201915050505050509190803573ffffffffffffffffffffffffffffffffffffffff169060200190919050506101bf565b6040518082815260200191505060405180910390f35b61014a60048080359060200190820180359060200190808060200260200160405190810160405280939291908181526020018383602002808284378201915050505050509190803573ffffffffffffffffffffffffffffffffffffffff16906020019091905050610251565b6040518080602001828103825283818151815260200191508051906020019060200280838360005b8381101561018d578082015181840152602081019050610172565b505050509050019250505060405180910390f35b6101a9610377565b6040518082815260200191505060405180910390f35b600080600080600092506101d1610377565b9150600090505b8551811015610245578473ffffffffffffffffffffffffffffffffffffffff16868281518110151561020657fe5b9060200190602002015173ffffffffffffffffffffffffffffffffffffffff1614156102385760019250809150610245565b80806001019150506101d8565b81935050505092915050565b61025961039f565b60008090505b835181101561036d578273ffffffffffffffffffffffffffffffffffffffff16848281518110151561028d57fe5b9060200190602002015173ffffffffffffffffffffffffffffffffffffffff1614156103605760018451038110156103255783600182018151811015156102d057fe5b9060200190602002015184828151811015156102e857fe5b9060200190602002019073ffffffffffffffffffffffffffffffffffffffff16908173ffffffffffffffffffffffffffffffffffffffff16815250505b83600185510381518110151561033757fe5b906020019060200201600073ffffffffffffffffffffffffffffffffffffffff1681525061036d565b808060010191505061025f565b8391505092915050565b60007fffffffffffffffffffffffffffffffffffffffffffffffffffffffffffffffff905090565b6020604051908101604052806000815250905600a165627a7a723058201215919de7d01a203a96cf45fd939bcc1772d6d2bd8a057ca4214429b51631a20029",
  "source": "pragma solidity ^0.4.18;\n\nlibrary Array {\n    function NOT_FOUND() public pure returns (int) {\n        return -1;\n    }\n\n    function contains(address[] haystack, address needle) public pure returns (int) {\n        bool exists = false;\n        int atIndex = NOT_FOUND();\n        for (uint i = 0; i < haystack.length; i++) {\n            if (haystack[i] == needle) {\n                exists = true;\n                atIndex = int(i);\n                break;\n            }\n        }\n        return atIndex;\n    }\n\n    function remove(address[] haystack, address needle) public pure returns (address[]) {\n        for (uint i = 0; i < haystack.length; i++) {\n            if (haystack[i] == needle) {\n                if (i < haystack.length - 1) {\n                    haystack[i] = haystack[i+1];\n                }\n                delete haystack[haystack.length - 1];\n                break;\n            }\n        }\n        return haystack;\n    }\n}\n",
  "sourcePath": "/Users/eric/Development/Jumbo/contracts/Array.sol",
  "compiler": {
    "name": "solc",
    "version": "0.4.19+commit.c4cbbb05.Emscripten.clang"
  },
  "schemaVersion": "2.0.0",
  "updatedAt": "2018-03-28T16:22:13.261Z"
}