{
  "contractName": "Array",
  "abi": [
    {
      "constant": true,
      "inputs": [],
      "name": "NOT_FOUND",
      "outputs": [
        {
          "name": "",
          "type": "int256"
        }
      ],
      "payable": false,
      "stateMutability": "pure",
      "type": "function"
    },
    {
      "constant": true,
      "inputs": [
        {
          "name": "haystack",
          "type": "address[]"
        },
        {
          "name": "needle",
          "type": "address"
        }
      ],
      "name": "contains",
      "outputs": [
        {
          "name": "",
          "type": "int256"
        }
      ],
      "payable": false,
      "stateMutability": "pure",
      "type": "function"
    },
    {
      "constant": true,
      "inputs": [
        {
          "name": "haystack",
          "type": "address[]"
        },
        {
          "name": "needle",
          "type": "address"
        }
      ],
      "name": "remove",
      "outputs": [
        {
          "name": "",
          "type": "address[]"
        }
      ],
      "payable": false,
      "stateMutability": "pure",
      "type": "function"
    }
  ],
  "bytecode": "0x6060604052341561000f57600080fd5b6103df8061001e6000396000f300606060405260043610610057576000357c0100000000000000000000000000000000000000000000000000000000900463ffffffff1680633da80d661461005c578063566a691b146100de5780635ffce20a146101a1575b600080fd5b6100c860048080359060200190820180359060200190808060200260200160405190810160405280939291908181526020018383602002808284378201915050505050509190803573ffffffffffffffffffffffffffffffffffffffff169060200190919050506101bf565b6040518082815260200191505060405180910390f35b61014a60048080359060200190820180359060200190808060200260200160405190810160405280939291908181526020018383602002808284378201915050505050509190803573ffffffffffffffffffffffffffffffffffffffff16906020019091905050610251565b6040518080602001828103825283818151815260200191508051906020019060200280838360005b8381101561018d578082015181840152602081019050610172565b505050509050019250505060405180910390f35b6101a9610377565b6040518082815260200191505060405180910390f35b600080600080600092506101d1610377565b9150600090505b8551811015610245578473ffffffffffffffffffffffffffffffffffffffff16868281518110151561020657fe5b9060200190602002015173ffffffffffffffffffffffffffffffffffffffff1614156102385760019250809150610245565b80806001019150506101d8565b81935050505092915050565b61025961039f565b60008090505b835181101561036d578273ffffffffffffffffffffffffffffffffffffffff16848281518110151561028d57fe5b9060200190602002015173ffffffffffffffffffffffffffffffffffffffff1614156103605760018451038110156103255783600182018151811015156102d057fe5b9060200190602002015184828151811015156102e857fe5b9060200190602002019073ffffffffffffffffffffffffffffffffffffffff16908173ffffffffffffffffffffffffffffffffffffffff16815250505b83600185510381518110151561033757fe5b906020019060200201600073ffffffffffffffffffffffffffffffffffffffff1681525061036d565b808060010191505061025f565b8391505092915050565b60007fffffffffffffffffffffffffffffffffffffffffffffffffffffffffffffffff905090565b6020604051908101604052806000815250905600a165627a7a72305820fef57270012c6a9a9638348523df551252cafebdf354c5107b016d05ed665de60029",
  "source": "pragma solidity ^0.4.18;\nimport \"./zeppelin/lifecycle/Killable.sol\";\nimport { Authentication } from \"./Authentication.sol\";\nimport { Class } from \"./Class.sol\";\nimport { Schedule } from \"./Schedule.sol\";\nimport { Reseller } from \"./Reseller.sol\";\n\nlibrary ScheduleFactory {\n    function create(address sender, address class, string instructor, uint dateStart, uint dateEnd, uint nSpots, uint nSpotsReseller, uint priceIndividual, uint priceReseller) public returns (address) {\n        require(class != 0x0);\n        require(dateStart > 0);\n        require(dateEnd > 0);\n        require(nSpots > nSpotsReseller);\n        require(priceIndividual > 0);\n        require(priceReseller > 0);\n        \n        Schedule schedule = new Schedule(class, instructor, dateStart, dateEnd, nSpots, nSpotsReseller, priceIndividual, priceReseller);\n        schedule.transferOwnership(sender);\n        assert(schedule.owner() == sender);\n        return schedule;\n    }\n}\n\nlibrary ClassFactory {\n    function create(address sender, string name, string description) public returns (address) {\n        Class class = new Class(name, description);\n        class.transferOwnership(sender);\n        assert(class.owner() == sender);\n        return class;\n    }\n}\n\nlibrary Array {\n\n    function NOT_FOUND() public pure returns (int) {\n        return -1;\n    }\n\n    function contains(address[] haystack, address needle) public pure returns (int) {\n        bool exists = false;\n        int atIndex = NOT_FOUND();\n        for (uint i = 0; i < haystack.length; i++) {\n            if (haystack[i] == needle) {\n                exists = true;\n                atIndex = int(i);\n                break;\n            }\n        }\n        return atIndex;\n    }\n\n    function remove(address[] haystack, address needle) public pure returns (address[]) {\n        for (uint i = 0; i < haystack.length; i++) {\n            if (haystack[i] == needle) {\n                if (i < haystack.length - 1) {\n                    haystack[i] = haystack[i+1];\n                }\n                delete haystack[haystack.length - 1];\n                break;\n            }\n        }\n        return haystack;\n    }\n}\n\ncontract Studio is Killable {\n    \n    mapping(address => string) public name;\n    mapping(address => string) public contactDetails;\n    mapping(address => address[]) public resellers;\n    mapping(address => address[]) public schedules;\n    mapping(address => address[]) public classes;\n    address public authentication;\n    address public reseller;\n\n    event ScheduleAdded(address indexed studio, address indexed klass, address indexed schedule);\n    event ScheduleRemoved(address indexed studio, address indexed schedule);\n    event ClassAdded(address indexed studio, address indexed klass);\n    event ContactDetailsUpdated(address indexed studio, string contactDetails);\n    \n    modifier authenticated() {\n        require(bytes(name[msg.sender]).length > 0);\n        _;\n    }\n\n    function setAuthentication(address _authentication) public onlyOwner {\n        authentication = _authentication;\n    }\n\n    function setReseller(address _reseller) public onlyOwner {\n        reseller = _reseller;\n    }\n\n    function classCreate(string _name, string _description) public {\n        address class = ClassFactory.create(msg.sender, _name, _description);\n        classes[msg.sender].push(class);\n        ClassAdded(msg.sender, address(class));\n    }\n\n    function scheduleCreate(address class, string instructor, uint dateStart, uint dateEnd, uint nSpots, uint nSpotsReseller, uint priceIndividual, uint priceReseller) public {\n        address schedule = ScheduleFactory.create(msg.sender, class, instructor, dateStart, dateEnd, nSpots, nSpotsReseller, priceIndividual, priceReseller);\n        schedules[msg.sender].push(schedule);\n        ScheduleAdded(msg.sender, class, schedule);\n    }\n\n    function signup(string _name) public {\n        require(keccak256(name[msg.sender]) == keccak256(\"\"));\n        name[msg.sender] = _name;\n        Authentication(authentication).signup(msg.sender, \"STUDIO\");\n    }\n\n    function userExists(address user) public view returns (bool) {\n        return bytes(name[user]).length > 0;\n    }\n\n    function getName(address studio) public view returns (string) {\n        return name[studio];\n    }\n\n    function getContactDetails(address studio) public view returns (string) {\n        return contactDetails[studio];\n    }\n\n    function updateContactDetails(string _contactDetails) authenticated public {\n        contactDetails[msg.sender] = _contactDetails;\n        ContactDetailsUpdated(msg.sender, contactDetails[msg.sender]);\n    }\n\n    function classesCount(address studio) public view returns (uint) {\n        return classes[studio].length;\n    }\n\n    function classAtIndex(address studio, uint index) public view returns (address) {\n        return classes[studio][index];\n    }\n\n    function schedulesCount(address studio) public view returns (uint) {\n        return schedules[studio].length;\n    }\n\n    function scheduleAtIndex(address studio, uint index) public view returns (address) {\n        return schedules[studio][index];\n    }\n\n    function scheduleRemoved(address schedule) public authenticated {\n        for (uint i = 0; i < schedules[msg.sender].length; i++) {\n            if (schedules[msg.sender][i] == schedule) {\n                if (i < schedules[msg.sender].length - 1) {\n                    schedules[msg.sender][i] = schedules[msg.sender][i+1];\n                }\n                delete schedules[msg.sender][schedules[msg.sender].length - 1];\n                schedules[msg.sender].length--;\n                ScheduleRemoved(msg.sender, schedule);\n                break;\n            }\n        }\n    }\n\n    function resellersCount() authenticated public view returns (uint) {\n        return resellers[msg.sender].length;\n    }\n\n    function resellerAtIndex(uint index) authenticated public view returns (address) {\n        return resellers[msg.sender][index];\n    }\n\n    function addReseller(address _reseller) public authenticated {\n        require(isAuthorizedReseller(msg.sender, _reseller) == false);\n        resellers[msg.sender].push(_reseller);\n        Reseller(reseller).resellerAdded(msg.sender, _reseller);\n    }\n\n    function removeReseller(address _reseller) public authenticated returns (bool) {\n        assert(isAuthorizedReseller(msg.sender, _reseller));\n        int atIndex;\n        atIndex = Array.contains(resellers[msg.sender], _reseller);\n        if (atIndex >= 0) {\n            delete(resellers[msg.sender][uint(atIndex)]);\n            Reseller(reseller).resellerRemoved(msg.sender, _reseller);\n        }\n        return atIndex != Array.NOT_FOUND();\n    }\n\n    function isAuthorizedReseller(address _studio, address _reseller) public view returns (bool) {\n        return Array.contains(resellers[_studio], _reseller) != Array.NOT_FOUND();\n    }\n}\n",
  "sourcePath": "/Users/eric/Development/Jumbo/contracts/Studio.sol",
  "compiler": {
    "name": "solc",
    "version": "0.4.19+commit.c4cbbb05.Emscripten.clang"
  },
  "schemaVersion": "2.0.0",
  "updatedAt": "2018-03-27T20:37:16.706Z"
}