{
  "contractName": "ClassFactory",
  "abi": [
    {
      "constant": false,
      "inputs": [
        {
          "name": "sender",
          "type": "address"
        },
        {
          "name": "name",
          "type": "string"
        },
        {
          "name": "description",
          "type": "string"
        }
      ],
      "name": "create",
      "outputs": [
        {
          "name": "",
          "type": "address"
        }
      ],
      "payable": false,
      "stateMutability": "nonpayable",
      "type": "function"
    }
  ],
  "bytecode": "0x6060604052341561000f57600080fd5b610d648061001e6000396000f300606060405260043610610041576000357c0100000000000000000000000000000000000000000000000000000000900463ffffffff168063796d583614610046575b600080fd5b6100f8600480803573ffffffffffffffffffffffffffffffffffffffff1690602001909190803590602001908201803590602001908080601f0160208091040260200160405190810160405280939291908181526020018383808284378201915050505050509190803590602001908201803590602001908080601f0160208091040260200160405190810160405280939291908181526020018383808284378201915050505050509190505061013a565b604051808273ffffffffffffffffffffffffffffffffffffffff1673ffffffffffffffffffffffffffffffffffffffff16815260200191505060405180910390f35b60008083836101476103b0565b808060200180602001838103835285818151815260200191508051906020019080838360005b8381101561018857808201518184015260208101905061016d565b50505050905090810190601f1680156101b55780820380516001836020036101000a031916815260200191505b50838103825284818151815260200191508051906020019080838360005b838110156101ee5780820151818401526020810190506101d3565b50505050905090810190601f16801561021b5780820380516001836020036101000a031916815260200191505b50945050505050604051809103906000f080151561023857600080fd5b90508073ffffffffffffffffffffffffffffffffffffffff1663f2fde38b866040518263ffffffff167c0100000000000000000000000000000000000000000000000000000000028152600401808273ffffffffffffffffffffffffffffffffffffffff1673ffffffffffffffffffffffffffffffffffffffff168152602001915050600060405180830381600087803b15156102d457600080fd5b6102c65a03f115156102e557600080fd5b5050508473ffffffffffffffffffffffffffffffffffffffff168173ffffffffffffffffffffffffffffffffffffffff16638da5cb5b6000604051602001526040518163ffffffff167c0100000000000000000000000000000000000000000000000000000000028152600401602060405180830381600087803b151561036b57600080fd5b6102c65a03f1151561037c57600080fd5b5050506040518051905073ffffffffffffffffffffffffffffffffffffffff161415156103a557fe5b809150509392505050565b604051610978806103c18339019056006060604052341561000f57600080fd5b60405161097838038061097883398101604052808051820191906020018051820191905050336000806101000a81548173ffffffffffffffffffffffffffffffffffffffff021916908373ffffffffffffffffffffffffffffffffffffffff160217905550816001908051906020019061008a9291906100a9565b5080600290805190602001906100a19291906100a9565b50505061014e565b828054600181600116156101000203166002900490600052602060002090601f016020900481019282601f106100ea57805160ff1916838001178555610118565b82800160010185558215610118579182015b828111156101175782518255916020019190600101906100fc565b5b5090506101259190610129565b5090565b61014b91905b8082111561014757600081600090555060010161012f565b5090565b90565b61081b8061015d6000396000f300606060405260043610610083576000357c0100000000000000000000000000000000000000000000000000000000900463ffffffff16806306fdde031461008857806341c0e1b5146101165780637284e4161461012b5780638da5cb5b146101b957806390c3f38f1461020e578063c47f00271461026b578063f2fde38b146102c8575b600080fd5b341561009357600080fd5b61009b610301565b6040518080602001828103825283818151815260200191508051906020019080838360005b838110156100db5780820151818401526020810190506100c0565b50505050905090810190601f1680156101085780820380516001836020036101000a031916815260200191505b509250505060405180910390f35b341561012157600080fd5b61012961039f565b005b341561013657600080fd5b61013e610430565b6040518080602001828103825283818151815260200191508051906020019080838360005b8381101561017e578082015181840152602081019050610163565b50505050905090810190601f1680156101ab5780820380516001836020036101000a031916815260200191505b509250505060405180910390f35b34156101c457600080fd5b6101cc6104ce565b604051808273ffffffffffffffffffffffffffffffffffffffff1673ffffffffffffffffffffffffffffffffffffffff16815260200191505060405180910390f35b341561021957600080fd5b610269600480803590602001908201803590602001908080601f016020809104026020016040519081016040528093929190818152602001838380828437820191505050505050919050506104f3565b005b341561027657600080fd5b6102c6600480803590602001908201803590602001908080601f01602080910402602001604051908101604052809392919081815260200183838082843782019150505050505091905050610563565b005b34156102d357600080fd5b6102ff600480803573ffffffffffffffffffffffffffffffffffffffff169060200190919050506105d3565b005b60018054600181600116156101000203166002900480601f0160208091040260200160405190810160405280929190818152602001828054600181600116156101000203166002900480156103975780601f1061036c57610100808354040283529160200191610397565b820191906000526020600020905b81548152906001019060200180831161037a57829003601f168201915b505050505081565b6000809054906101000a900473ffffffffffffffffffffffffffffffffffffffff1673ffffffffffffffffffffffffffffffffffffffff163373ffffffffffffffffffffffffffffffffffffffff16141561042e576000809054906101000a900473ffffffffffffffffffffffffffffffffffffffff1673ffffffffffffffffffffffffffffffffffffffff16ff5b565b60028054600181600116156101000203166002900480601f0160208091040260200160405190810160405280929190818152602001828054600181600116156101000203166002900480156104c65780601f1061049b576101008083540402835291602001916104c6565b820191906000526020600020905b8154815290600101906020018083116104a957829003601f168201915b505050505081565b6000809054906101000a900473ffffffffffffffffffffffffffffffffffffffff1681565b6000809054906101000a900473ffffffffffffffffffffffffffffffffffffffff1673ffffffffffffffffffffffffffffffffffffffff163373ffffffffffffffffffffffffffffffffffffffff16141561056057806002908051906020019061055e92919061074a565b505b50565b6000809054906101000a900473ffffffffffffffffffffffffffffffffffffffff1673ffffffffffffffffffffffffffffffffffffffff163373ffffffffffffffffffffffffffffffffffffffff1614156105d05780600190805190602001906105ce92919061074a565b505b50565b6000809054906101000a900473ffffffffffffffffffffffffffffffffffffffff1673ffffffffffffffffffffffffffffffffffffffff163373ffffffffffffffffffffffffffffffffffffffff1614156107475760008173ffffffffffffffffffffffffffffffffffffffff161415151561064e57600080fd5b7f0384899bd253d83b23daa4d29aaa2efe0563d1132b43101e9ad667235aeb951b6000809054906101000a900473ffffffffffffffffffffffffffffffffffffffff1682604051808373ffffffffffffffffffffffffffffffffffffffff1673ffffffffffffffffffffffffffffffffffffffff1681526020018273ffffffffffffffffffffffffffffffffffffffff1673ffffffffffffffffffffffffffffffffffffffff1681526020019250505060405180910390a1806000806101000a81548173ffffffffffffffffffffffffffffffffffffffff021916908373ffffffffffffffffffffffffffffffffffffffff1602179055505b50565b828054600181600116156101000203166002900490600052602060002090601f016020900481019282601f1061078b57805160ff19168380011785556107b9565b828001600101855582156107b9579182015b828111156107b857825182559160200191906001019061079d565b5b5090506107c691906107ca565b5090565b6107ec91905b808211156107e85760008160009055506001016107d0565b5090565b905600a165627a7a72305820d1f2e3d640ed612ba7be72657f6889e2b2043fa3ad49817c3f9310aaa5e0d23d0029a165627a7a72305820c409632269aaf05cfdf917080f37cf2ea89efba297605a09462f15a731b33fe80029",
  "source": "pragma solidity ^0.4.18;\nimport { Class } from \"./Class.sol\";\n\nlibrary ClassFactory {\n    function create(address sender, string name, string description) public returns (address) {\n        Class class = new Class(name, description);\n        class.transferOwnership(sender);\n        assert(class.owner() == sender);\n        return class;\n    }\n}",
  "sourcePath": "/Users/eric/Development/Jumbo/contracts/ClassFactory.sol",
  "compiler": {
    "name": "solc",
    "version": "0.4.19+commit.c4cbbb05.Emscripten.clang"
  },
  "schemaVersion": "2.0.0",
  "updatedAt": "2018-03-27T20:54:39.841Z"
}