{
  "contractName": "Killable",
  "abi": [
    {
      "constant": true,
      "inputs": [],
      "name": "owner",
      "outputs": [
        {
          "name": "",
          "type": "address"
        }
      ],
      "payable": false,
      "stateMutability": "view",
      "type": "function"
    },
    {
      "constant": false,
      "inputs": [
        {
          "name": "newOwner",
          "type": "address"
        }
      ],
      "name": "transferOwnership",
      "outputs": [],
      "payable": false,
      "stateMutability": "nonpayable",
      "type": "function"
    },
    {
      "anonymous": false,
      "inputs": [
        {
          "indexed": false,
          "name": "from",
          "type": "address"
        },
        {
          "indexed": false,
          "name": "to",
          "type": "address"
        }
      ],
      "name": "OwnershipChanged",
      "type": "event"
    },
    {
      "constant": false,
      "inputs": [],
      "name": "kill",
      "outputs": [],
      "payable": false,
      "stateMutability": "nonpayable",
      "type": "function"
    }
  ],
  "bytecode": "0x6060604052336000806101000a81548173ffffffffffffffffffffffffffffffffffffffff021916908373ffffffffffffffffffffffffffffffffffffffff160217905550610358806100536000396000f300606060405260043610610057576000357c0100000000000000000000000000000000000000000000000000000000900463ffffffff16806341c0e1b51461005c5780638da5cb5b14610071578063f2fde38b146100c6575b600080fd5b341561006757600080fd5b61006f6100ff565b005b341561007c57600080fd5b610084610190565b604051808273ffffffffffffffffffffffffffffffffffffffff1673ffffffffffffffffffffffffffffffffffffffff16815260200191505060405180910390f35b34156100d157600080fd5b6100fd600480803573ffffffffffffffffffffffffffffffffffffffff169060200190919050506101b5565b005b6000809054906101000a900473ffffffffffffffffffffffffffffffffffffffff1673ffffffffffffffffffffffffffffffffffffffff163373ffffffffffffffffffffffffffffffffffffffff16141561018e576000809054906101000a900473ffffffffffffffffffffffffffffffffffffffff1673ffffffffffffffffffffffffffffffffffffffff16ff5b565b6000809054906101000a900473ffffffffffffffffffffffffffffffffffffffff1681565b6000809054906101000a900473ffffffffffffffffffffffffffffffffffffffff1673ffffffffffffffffffffffffffffffffffffffff163373ffffffffffffffffffffffffffffffffffffffff1614156103295760008173ffffffffffffffffffffffffffffffffffffffff161415151561023057600080fd5b7f0384899bd253d83b23daa4d29aaa2efe0563d1132b43101e9ad667235aeb951b6000809054906101000a900473ffffffffffffffffffffffffffffffffffffffff1682604051808373ffffffffffffffffffffffffffffffffffffffff1673ffffffffffffffffffffffffffffffffffffffff1681526020018273ffffffffffffffffffffffffffffffffffffffff1673ffffffffffffffffffffffffffffffffffffffff1681526020019250505060405180910390a1806000806101000a81548173ffffffffffffffffffffffffffffffffffffffff021916908373ffffffffffffffffffffffffffffffffffffffff1602179055505b505600a165627a7a7230582075e6cca14a2ab81e8ca93c3ca5bd2dbe0da592060db4dd15f4881b397deff8140029",
  "source": "pragma solidity ^0.4.18;\n\nimport \"./../ownership/Ownable.sol\";\n\n/*\n * Killable\n * Base contract that can be killed by owner. All funds in contract will be sent to the owner.\n */\ncontract Killable is Ownable {\n  function kill() public onlyOwner {\n    selfdestruct(owner);\n  }\n}\n",
  "sourcePath": "/Users/eric/Development/Jumbo/contracts/zeppelin/lifecycle/Killable.sol",
  "compiler": {
    "name": "solc",
    "version": "0.4.19+commit.c4cbbb05.Emscripten.clang"
  },
  "schemaVersion": "2.0.0",
  "updatedAt": "2018-03-27T03:20:02.019Z"
}