{
  "contractName": "Reseller",
  "abi": [
    {
      "constant": true,
      "inputs": [
        {
          "name": "",
          "type": "address"
        }
      ],
      "name": "name",
      "outputs": [
        {
          "name": "",
          "type": "string"
        }
      ],
      "payable": false,
      "stateMutability": "view",
      "type": "function"
    },
    {
      "constant": true,
      "inputs": [
        {
          "name": "",
          "type": "address"
        }
      ],
      "name": "contactDetails",
      "outputs": [
        {
          "name": "",
          "type": "string"
        }
      ],
      "payable": false,
      "stateMutability": "view",
      "type": "function"
    },
    {
      "constant": false,
      "inputs": [],
      "name": "kill",
      "outputs": [],
      "payable": false,
      "stateMutability": "nonpayable",
      "type": "function"
    },
    {
      "constant": true,
      "inputs": [],
      "name": "owner",
      "outputs": [
        {
          "name": "",
          "type": "address"
        }
      ],
      "payable": false,
      "stateMutability": "view",
      "type": "function"
    },
    {
      "constant": true,
      "inputs": [],
      "name": "authentication",
      "outputs": [
        {
          "name": "",
          "type": "address"
        }
      ],
      "payable": false,
      "stateMutability": "view",
      "type": "function"
    },
    {
      "constant": false,
      "inputs": [
        {
          "name": "newOwner",
          "type": "address"
        }
      ],
      "name": "transferOwnership",
      "outputs": [],
      "payable": false,
      "stateMutability": "nonpayable",
      "type": "function"
    },
    {
      "anonymous": false,
      "inputs": [
        {
          "indexed": true,
          "name": "studio",
          "type": "address"
        },
        {
          "indexed": false,
          "name": "contactDetails",
          "type": "string"
        }
      ],
      "name": "ContactDetailsUpdated",
      "type": "event"
    },
    {
      "anonymous": false,
      "inputs": [
        {
          "indexed": true,
          "name": "studio",
          "type": "address"
        },
        {
          "indexed": true,
          "name": "reseller",
          "type": "address"
        }
      ],
      "name": "ResellerAdded",
      "type": "event"
    },
    {
      "anonymous": false,
      "inputs": [
        {
          "indexed": true,
          "name": "studio",
          "type": "address"
        },
        {
          "indexed": true,
          "name": "reseller",
          "type": "address"
        }
      ],
      "name": "ResellerRemoved",
      "type": "event"
    },
    {
      "anonymous": false,
      "inputs": [
        {
          "indexed": false,
          "name": "from",
          "type": "address"
        },
        {
          "indexed": false,
          "name": "to",
          "type": "address"
        }
      ],
      "name": "OwnershipChanged",
      "type": "event"
    },
    {
      "constant": false,
      "inputs": [
        {
          "name": "_authentication",
          "type": "address"
        }
      ],
      "name": "setAuthentication",
      "outputs": [],
      "payable": false,
      "stateMutability": "nonpayable",
      "type": "function"
    },
    {
      "constant": false,
      "inputs": [
        {
          "name": "_studio",
          "type": "address"
        }
      ],
      "name": "setStudio",
      "outputs": [],
      "payable": false,
      "stateMutability": "nonpayable",
      "type": "function"
    },
    {
      "constant": false,
      "inputs": [
        {
          "name": "_name",
          "type": "string"
        }
      ],
      "name": "signup",
      "outputs": [],
      "payable": false,
      "stateMutability": "nonpayable",
      "type": "function"
    },
    {
      "constant": true,
      "inputs": [],
      "name": "signedUp",
      "outputs": [
        {
          "name": "",
          "type": "bool"
        }
      ],
      "payable": false,
      "stateMutability": "view",
      "type": "function"
    },
    {
      "constant": true,
      "inputs": [
        {
          "name": "reseller",
          "type": "address"
        }
      ],
      "name": "getName",
      "outputs": [
        {
          "name": "",
          "type": "string"
        }
      ],
      "payable": false,
      "stateMutability": "view",
      "type": "function"
    },
    {
      "constant": true,
      "inputs": [
        {
          "name": "reseller",
          "type": "address"
        }
      ],
      "name": "getContactDetails",
      "outputs": [
        {
          "name": "",
          "type": "string"
        }
      ],
      "payable": false,
      "stateMutability": "view",
      "type": "function"
    },
    {
      "constant": false,
      "inputs": [
        {
          "name": "_contactDetails",
          "type": "string"
        }
      ],
      "name": "updateContactDetails",
      "outputs": [],
      "payable": false,
      "stateMutability": "nonpayable",
      "type": "function"
    },
    {
      "constant": true,
      "inputs": [],
      "name": "getStudiosCount",
      "outputs": [
        {
          "name": "",
          "type": "uint256"
        }
      ],
      "payable": false,
      "stateMutability": "view",
      "type": "function"
    },
    {
      "constant": true,
      "inputs": [
        {
          "name": "index",
          "type": "uint256"
        }
      ],
      "name": "getStudio",
      "outputs": [
        {
          "name": "",
          "type": "address"
        }
      ],
      "payable": false,
      "stateMutability": "view",
      "type": "function"
    },
    {
      "constant": true,
      "inputs": [
        {
          "name": "index",
          "type": "uint256"
        }
      ],
      "name": "getStudioState",
      "outputs": [
        {
          "name": "",
          "type": "uint256"
        }
      ],
      "payable": false,
      "stateMutability": "view",
      "type": "function"
    },
    {
      "constant": false,
      "inputs": [
        {
          "name": "schedule",
          "type": "address"
        },
        {
          "name": "individual",
          "type": "address"
        }
      ],
      "name": "spotPurchase",
      "outputs": [],
      "payable": true,
      "stateMutability": "payable",
      "type": "function"
    },
    {
      "constant": false,
      "inputs": [
        {
          "name": "schedule",
          "type": "address"
        },
        {
          "name": "individual",
          "type": "address"
        }
      ],
      "name": "spotCancel",
      "outputs": [],
      "payable": false,
      "stateMutability": "nonpayable",
      "type": "function"
    },
    {
      "constant": false,
      "inputs": [
        {
          "name": "_studio",
          "type": "address"
        },
        {
          "name": "reseller",
          "type": "address"
        }
      ],
      "name": "resellerAdded",
      "outputs": [],
      "payable": false,
      "stateMutability": "nonpayable",
      "type": "function"
    },
    {
      "constant": false,
      "inputs": [
        {
          "name": "_studio",
          "type": "address"
        },
        {
          "name": "reseller",
          "type": "address"
        }
      ],
      "name": "resellerRemoved",
      "outputs": [],
      "payable": false,
      "stateMutability": "nonpayable",
      "type": "function"
    }
  ],
  "bytecode": "0x6060604052336000806101000a81548173ffffffffffffffffffffffffffffffffffffffff021916908373ffffffffffffffffffffffffffffffffffffffff160217905550612132806100536000396000f300606060405260043610610112576000357c0100000000000000000000000000000000000000000000000000000000900463ffffffff16806301984892146101175780630202e6c5146101c95780631482024f146102265780631b3e819b146102d857806341c0e1b514610330578063519c63771461034557806353bc973e146103a25780635b75ee79146103db5780635fd4b08a14610404578063607aeefb146104b6578063648d8503146105035780638da5cb5b146105305780639296354f14610585578063940bf8ab146105e8578063a53522ce1461061f578063b976c66b14610677578063b996c170146106b0578063cf3dcea614610705578063dca74848146107b7578063f2fde38b1461080f575b600080fd5b341561012257600080fd5b61014e600480803573ffffffffffffffffffffffffffffffffffffffff16906020019091905050610848565b6040518080602001828103825283818151815260200191508051906020019080838360005b8381101561018e578082015181840152602081019050610173565b50505050905090810190601f1680156101bb5780820380516001836020036101000a031916815260200191505b509250505060405180910390f35b34156101d457600080fd5b610224600480803590602001908201803590602001908080601f016020809104026020016040519081016040528093929190818152602001838380828437820191505050505050919050506108f8565b005b341561023157600080fd5b61025d600480803573ffffffffffffffffffffffffffffffffffffffff16906020019091905050610b2a565b6040518080602001828103825283818151815260200191508051906020019080838360005b8381101561029d578082015181840152602081019050610282565b50505050905090810190601f1680156102ca5780820380516001836020036101000a031916815260200191505b509250505060405180910390f35b34156102e357600080fd5b61032e600480803573ffffffffffffffffffffffffffffffffffffffff1690602001909190803573ffffffffffffffffffffffffffffffffffffffff16906020019091905050610bda565b005b341561033b57600080fd5b610343610d8d565b005b341561035057600080fd5b6103a0600480803590602001908201803590602001908080601f01602080910402602001604051908101604052809392919081815260200183838082843782019150505050505091905050610e1e565b005b34156103ad57600080fd5b6103d9600480803573ffffffffffffffffffffffffffffffffffffffff16906020019091905050611025565b005b34156103e657600080fd5b6103ee6110bf565b6040518082815260200191505060405180910390f35b341561040f57600080fd5b61043b600480803573ffffffffffffffffffffffffffffffffffffffff169060200190919050506111d6565b6040518080602001828103825283818151815260200191508051906020019080838360005b8381101561047b578082015181840152602081019050610460565b50505050905090810190601f1680156104a85780820380516001836020036101000a031916815260200191505b509250505060405180910390f35b610501600480803573ffffffffffffffffffffffffffffffffffffffff1690602001909190803573ffffffffffffffffffffffffffffffffffffffff169060200190919050506112bd565b005b341561050e57600080fd5b610516611471565b604051808215151515815260200191505060405180910390f35b341561053b57600080fd5b61054361153a565b604051808273ffffffffffffffffffffffffffffffffffffffff1673ffffffffffffffffffffffffffffffffffffffff16815260200191505060405180910390f35b341561059057600080fd5b6105a6600480803590602001909190505061155f565b604051808273ffffffffffffffffffffffffffffffffffffffff1673ffffffffffffffffffffffffffffffffffffffff16815260200191505060405180910390f35b34156105f357600080fd5b6106096004808035906020019091905050611701565b6040518082815260200191505060405180910390f35b341561062a57600080fd5b610675600480803573ffffffffffffffffffffffffffffffffffffffff1690602001909190803573ffffffffffffffffffffffffffffffffffffffff1690602001909190505061189b565b005b341561068257600080fd5b6106ae600480803573ffffffffffffffffffffffffffffffffffffffff16906020019091905050611ae2565b005b34156106bb57600080fd5b6106c3611b7c565b604051808273ffffffffffffffffffffffffffffffffffffffff1673ffffffffffffffffffffffffffffffffffffffff16815260200191505060405180910390f35b341561071057600080fd5b61073c600480803573ffffffffffffffffffffffffffffffffffffffff16906020019091905050611ba2565b6040518080602001828103825283818151815260200191508051906020019080838360005b8381101561077c578082015181840152602081019050610761565b50505050905090810190601f1680156107a95780820380516001836020036101000a031916815260200191505b509250505060405180910390f35b34156107c257600080fd5b61080d600480803573ffffffffffffffffffffffffffffffffffffffff1690602001909190803573ffffffffffffffffffffffffffffffffffffffff16906020019091905050611c89565b005b341561081a57600080fd5b610846600480803573ffffffffffffffffffffffffffffffffffffffff16906020019091905050611e50565b005b60016020528060005260406000206000915090508054600181600116156101000203166002900480601f0160208091040260200160405190810160405280929190818152602001828054600181600116156101000203166002900480156108f05780601f106108c5576101008083540402835291602001916108f0565b820191906000526020600020905b8154815290600101906020018083116108d357829003601f168201915b505050505081565b604051806000019050604051809103902060001916600160003373ffffffffffffffffffffffffffffffffffffffff1673ffffffffffffffffffffffffffffffffffffffff16815260200190815260200160002060405180828054600181600116156101000203166002900480156109a75780601f106109855761010080835404028352918201916109a7565b820191906000526020600020905b815481529060010190602001808311610993575b5050915050604051809103902060001916141515156109c557600080fd5b80600360003373ffffffffffffffffffffffffffffffffffffffff1673ffffffffffffffffffffffffffffffffffffffff1681526020019081526020016000209080519060200190610a18929190611fc7565b503373ffffffffffffffffffffffffffffffffffffffff167f6f6e7970dcc1543329dca9c68dccf616fdfa1c2d2ff4e9fc9e4ee462427096b6600360003373ffffffffffffffffffffffffffffffffffffffff1673ffffffffffffffffffffffffffffffffffffffff1681526020019081526020016000206040518080602001828103825283818154600181600116156101000203166002900481526020019150805460018160011615610100020316600290048015610b195780601f10610aee57610100808354040283529160200191610b19565b820191906000526020600020905b815481529060010190602001808311610afc57829003601f168201915b50509250505060405180910390a250565b60036020528060005260406000206000915090508054600181600116156101000203166002900480601f016020809104026020016040519081016040528092919081815260200182805460018160011615610100020316600290048015610bd25780601f10610ba757610100808354040283529160200191610bd2565b820191906000526020600020905b815481529060010190602001808311610bb557829003601f168201915b505050505081565b604051806000019050604051809103902060001916600160003373ffffffffffffffffffffffffffffffffffffffff1673ffffffffffffffffffffffffffffffffffffffff1681526020019081526020016000206040518082805460018160011615610100020316600290048015610c895780601f10610c67576101008083540402835291820191610c89565b820191906000526020600020905b815481529060010190602001808311610c75575b505091505060405180910390206000191614151515610ca757600080fd5b8173ffffffffffffffffffffffffffffffffffffffff16631b3e819b82336040518363ffffffff167c0100000000000000000000000000000000000000000000000000000000028152600401808373ffffffffffffffffffffffffffffffffffffffff1673ffffffffffffffffffffffffffffffffffffffff1681526020018273ffffffffffffffffffffffffffffffffffffffff1673ffffffffffffffffffffffffffffffffffffffff16815260200192505050600060405180830381600087803b1515610d7557600080fd5b6102c65a03f11515610d8657600080fd5b5050505050565b6000809054906101000a900473ffffffffffffffffffffffffffffffffffffffff1673ffffffffffffffffffffffffffffffffffffffff163373ffffffffffffffffffffffffffffffffffffffff161415610e1c576000809054906101000a900473ffffffffffffffffffffffffffffffffffffffff1673ffffffffffffffffffffffffffffffffffffffff16ff5b565b6000600160003373ffffffffffffffffffffffffffffffffffffffff1673ffffffffffffffffffffffffffffffffffffffff168152602001908152602001600020805460018160011615610100020316600290049050141515610e8057600080fd5b6000600460009054906101000a900473ffffffffffffffffffffffffffffffffffffffff1673ffffffffffffffffffffffffffffffffffffffff1614151515610ec557fe5b80600160003373ffffffffffffffffffffffffffffffffffffffff1673ffffffffffffffffffffffffffffffffffffffff1681526020019081526020016000209080519060200190610f18929190611fc7565b50600460009054906101000a900473ffffffffffffffffffffffffffffffffffffffff1673ffffffffffffffffffffffffffffffffffffffff16631e88f7dc336040518263ffffffff167c0100000000000000000000000000000000000000000000000000000000028152600401808273ffffffffffffffffffffffffffffffffffffffff1673ffffffffffffffffffffffffffffffffffffffff16815260200180602001828103825260088152602001807f524553454c4c455200000000000000000000000000000000000000000000000081525060200192505050600060405180830381600087803b151561100e57600080fd5b6102c65a03f1151561101f57600080fd5b50505050565b6000809054906101000a900473ffffffffffffffffffffffffffffffffffffffff1673ffffffffffffffffffffffffffffffffffffffff163373ffffffffffffffffffffffffffffffffffffffff1614156110bc5780600460006101000a81548173ffffffffffffffffffffffffffffffffffffffff021916908373ffffffffffffffffffffffffffffffffffffffff1602179055505b50565b6000604051806000019050604051809103902060001916600160003373ffffffffffffffffffffffffffffffffffffffff1673ffffffffffffffffffffffffffffffffffffffff16815260200190815260200160002060405180828054600181600116156101000203166002900480156111705780601f1061114e576101008083540402835291820191611170565b820191906000526020600020905b81548152906001019060200180831161115c575b50509150506040518091039020600019161415151561118e57600080fd5b600260003373ffffffffffffffffffffffffffffffffffffffff1673ffffffffffffffffffffffffffffffffffffffff16815260200190815260200160002080549050905090565b6111de612047565b600160008373ffffffffffffffffffffffffffffffffffffffff1673ffffffffffffffffffffffffffffffffffffffff1681526020019081526020016000208054600181600116156101000203166002900480601f0160208091040260200160405190810160405280929190818152602001828054600181600116156101000203166002900480156112b15780601f10611286576101008083540402835291602001916112b1565b820191906000526020600020905b81548152906001019060200180831161129457829003601f168201915b50505050509050919050565b604051806000019050604051809103902060001916600160003373ffffffffffffffffffffffffffffffffffffffff1673ffffffffffffffffffffffffffffffffffffffff168152602001908152602001600020604051808280546001816001161561010002031660029004801561136c5780601f1061134a57610100808354040283529182019161136c565b820191906000526020600020905b815481529060010190602001808311611358575b50509150506040518091039020600019161415151561138a57600080fd5b8173ffffffffffffffffffffffffffffffffffffffff1663607aeefb3483336040518463ffffffff167c0100000000000000000000000000000000000000000000000000000000028152600401808373ffffffffffffffffffffffffffffffffffffffff1673ffffffffffffffffffffffffffffffffffffffff1681526020018273ffffffffffffffffffffffffffffffffffffffff1673ffffffffffffffffffffffffffffffffffffffff168152602001925050506000604051808303818588803b151561145857600080fd5b6125ee5a03f1151561146957600080fd5b505050505050565b6000604051806000019050604051809103902060001916600160003373ffffffffffffffffffffffffffffffffffffffff1673ffffffffffffffffffffffffffffffffffffffff16815260200190815260200160002060405180828054600181600116156101000203166002900480156115225780601f10611500576101008083540402835291820191611522565b820191906000526020600020905b81548152906001019060200180831161150e575b50509150506040518091039020600019161415905090565b6000809054906101000a900473ffffffffffffffffffffffffffffffffffffffff1681565b6000604051806000019050604051809103902060001916600160003373ffffffffffffffffffffffffffffffffffffffff1673ffffffffffffffffffffffffffffffffffffffff16815260200190815260200160002060405180828054600181600116156101000203166002900480156116105780601f106115ee576101008083540402835291820191611610565b820191906000526020600020905b8154815290600101906020018083116115fc575b50509150506040518091039020600019161415151561162e57600080fd5b6000600260003373ffffffffffffffffffffffffffffffffffffffff1673ffffffffffffffffffffffffffffffffffffffff1681526020019081526020016000208054905011151561167f57600080fd5b600260003373ffffffffffffffffffffffffffffffffffffffff1673ffffffffffffffffffffffffffffffffffffffff168152602001908152602001600020828154811015156116cb57fe5b906000526020600020900160000160009054906101000a900473ffffffffffffffffffffffffffffffffffffffff169050919050565b6000604051806000019050604051809103902060001916600160003373ffffffffffffffffffffffffffffffffffffffff1673ffffffffffffffffffffffffffffffffffffffff16815260200190815260200160002060405180828054600181600116156101000203166002900480156117b25780601f106117905761010080835404028352918201916117b2565b820191906000526020600020905b81548152906001019060200180831161179e575b5050915050604051809103902060001916141515156117d057600080fd5b6000600260003373ffffffffffffffffffffffffffffffffffffffff1673ffffffffffffffffffffffffffffffffffffffff1681526020019081526020016000208054905011151561182157600080fd5b600260003373ffffffffffffffffffffffffffffffffffffffff1673ffffffffffffffffffffffffffffffffffffffff1681526020019081526020016000208281548110151561186d57fe5b906000526020600020900160000160149054906101000a900460ff16600281111561189457fe5b9050919050565b6000600560009054906101000a900473ffffffffffffffffffffffffffffffffffffffff1673ffffffffffffffffffffffffffffffffffffffff163373ffffffffffffffffffffffffffffffffffffffff161415156118f957600080fd5b600090505b600260008373ffffffffffffffffffffffffffffffffffffffff1673ffffffffffffffffffffffffffffffffffffffff16815260200190815260200160002080549050811015611add578273ffffffffffffffffffffffffffffffffffffffff16600260008473ffffffffffffffffffffffffffffffffffffffff1673ffffffffffffffffffffffffffffffffffffffff168152602001908152602001600020828154811015156119ab57fe5b906000526020600020900160000160009054906101000a900473ffffffffffffffffffffffffffffffffffffffff1673ffffffffffffffffffffffffffffffffffffffff161415611ad05760028060008473ffffffffffffffffffffffffffffffffffffffff1673ffffffffffffffffffffffffffffffffffffffff16815260200190815260200160002082815481101515611a4357fe5b906000526020600020900160000160146101000a81548160ff02191690836002811115611a6c57fe5b02179055508173ffffffffffffffffffffffffffffffffffffffff168373ffffffffffffffffffffffffffffffffffffffff167fedb8467e18d9870ec27fe424677884c3214143d1531eca954a5fc4b907ea6a8d60405160405180910390a3611add565b80806001019150506118fe565b505050565b6000809054906101000a900473ffffffffffffffffffffffffffffffffffffffff1673ffffffffffffffffffffffffffffffffffffffff163373ffffffffffffffffffffffffffffffffffffffff161415611b795780600560006101000a81548173ffffffffffffffffffffffffffffffffffffffff021916908373ffffffffffffffffffffffffffffffffffffffff1602179055505b50565b600460009054906101000a900473ffffffffffffffffffffffffffffffffffffffff1681565b611baa612047565b600360008373ffffffffffffffffffffffffffffffffffffffff1673ffffffffffffffffffffffffffffffffffffffff1681526020019081526020016000208054600181600116156101000203166002900480601f016020809104026020016040519081016040528092919081815260200182805460018160011615610100020316600290048015611c7d5780601f10611c5257610100808354040283529160200191611c7d565b820191906000526020600020905b815481529060010190602001808311611c6057829003601f168201915b50505050509050919050565b600560009054906101000a900473ffffffffffffffffffffffffffffffffffffffff1673ffffffffffffffffffffffffffffffffffffffff163373ffffffffffffffffffffffffffffffffffffffff16141515611ce557600080fd5b600260008273ffffffffffffffffffffffffffffffffffffffff1673ffffffffffffffffffffffffffffffffffffffff1681526020019081526020016000208054806001018281611d36919061205b565b9160005260206000209001600060408051908101604052808673ffffffffffffffffffffffffffffffffffffffff16815260200160016002811115611d7757fe5b815250909190915060008201518160000160006101000a81548173ffffffffffffffffffffffffffffffffffffffff021916908373ffffffffffffffffffffffffffffffffffffffff16021790555060208201518160000160146101000a81548160ff02191690836002811115611dea57fe5b02179055505050508073ffffffffffffffffffffffffffffffffffffffff168273ffffffffffffffffffffffffffffffffffffffff167f5c3b7df39be3f97e714ba7881ff072502d9047391cc4c1e79bc1f79ff53ab92460405160405180910390a35050565b6000809054906101000a900473ffffffffffffffffffffffffffffffffffffffff1673ffffffffffffffffffffffffffffffffffffffff163373ffffffffffffffffffffffffffffffffffffffff161415611fc45760008173ffffffffffffffffffffffffffffffffffffffff1614151515611ecb57600080fd5b7f0384899bd253d83b23daa4d29aaa2efe0563d1132b43101e9ad667235aeb951b6000809054906101000a900473ffffffffffffffffffffffffffffffffffffffff1682604051808373ffffffffffffffffffffffffffffffffffffffff1673ffffffffffffffffffffffffffffffffffffffff1681526020018273ffffffffffffffffffffffffffffffffffffffff1673ffffffffffffffffffffffffffffffffffffffff1681526020019250505060405180910390a1806000806101000a81548173ffffffffffffffffffffffffffffffffffffffff021916908373ffffffffffffffffffffffffffffffffffffffff1602179055505b50565b828054600181600116156101000203166002900490600052602060002090601f016020900481019282601f1061200857805160ff1916838001178555612036565b82800160010185558215612036579182015b8281111561203557825182559160200191906001019061201a565b5b5090506120439190612087565b5090565b602060405190810160405280600081525090565b8154818355818115116120825781836000526020600020918201910161208191906120ac565b5b505050565b6120a991905b808211156120a557600081600090555060010161208d565b5090565b90565b61210391905b808211156120ff57600080820160006101000a81549073ffffffffffffffffffffffffffffffffffffffff02191690556000820160146101000a81549060ff0219169055506001016120b2565b5090565b905600a165627a7a7230582077a496ab2c708af7f8e4293a30331e316ac365e8a536564200d916c8899da8da0029",
  "source": "pragma solidity ^0.4.18;\nimport \"./zeppelin/lifecycle/Killable.sol\";\nimport { Schedule } from \"./Schedule.sol\";\nimport { Authentication } from \"./Authentication.sol\";\n\ncontract Reseller is Killable {\n\n    enum State {\n        Pending, Approved, Suspended\n    }\n\n    struct Studio {\n        address studio;\n        State state;\n    }\n\n    event ContactDetailsUpdated(address indexed studio, string contactDetails);\n    event ResellerAdded(address indexed studio, address indexed reseller);\n    event ResellerRemoved(address indexed studio, address indexed reseller);\n\n    mapping(address => string) public name;\n    mapping(address => Studio[]) private studios;\n    mapping(address => string) public contactDetails;\n\n    address public authentication;\n    address private studio;\n\n    modifier authenticated() {\n        require(keccak256(name[msg.sender]) != keccak256(\"\"));\n        _;\n    }\n    modifier onlyStudio() {\n        require(msg.sender == studio);\n        _;\n    }\n\n    function setAuthentication(address _authentication) public onlyOwner {\n        authentication = _authentication;\n    }\n\n    function setStudio(address _studio) public onlyOwner {\n        studio = _studio;\n    }\n\n    function signup(string _name) public {\n        require(bytes(name[msg.sender]).length == 0);\n        assert(authentication != 0x0);\n        name[msg.sender] = _name;\n        Authentication(authentication).signup(msg.sender, \"RESELLER\");\n    }\n\n    function signedUp() public view returns (bool) {\n        return keccak256(name[msg.sender]) != keccak256(\"\");\n    }\n\n    function getName(address reseller) public view returns (string) {\n        return name[reseller];\n    }\n\n    function getContactDetails(address reseller) public view returns (string) {\n        return contactDetails[reseller];\n    }\n\n    function updateContactDetails(string _contactDetails) authenticated public {\n        contactDetails[msg.sender] = _contactDetails;\n        ContactDetailsUpdated(msg.sender, contactDetails[msg.sender]);\n    }\n\n    function getStudiosCount() public authenticated view returns (uint) {\n        return studios[msg.sender].length;\n    }\n\n    function getStudio(uint index) public authenticated view returns (address) {\n        require(studios[msg.sender].length > 0);\n        return studios[msg.sender][index].studio;\n    }\n\n    function getStudioState(uint index) public authenticated view returns (uint) {\n        require(studios[msg.sender].length > 0);\n        return uint(studios[msg.sender][index].state);\n    }\n\n    function spotPurchase(address schedule, address individual) public authenticated payable {\n        Schedule(schedule).spotPurchase.value(msg.value)(individual, msg.sender);\n    }\n\n    function spotCancel(address schedule, address individual) public authenticated {\n        Schedule(schedule).spotCancel(individual, msg.sender);\n    }\n\n    function resellerAdded(address _studio, address reseller) external onlyStudio {\n        studios[reseller].push(Studio(_studio, State.Approved));\n        ResellerAdded(_studio, reseller);\n    }\n\n    function resellerRemoved(address _studio, address reseller) external onlyStudio {\n        for (uint i = 0; i < studios[reseller].length; i++) {\n            if (studios[reseller][i].studio == _studio) {\n                studios[reseller][i].state = State.Suspended;\n                ResellerRemoved(_studio, reseller);\n                break;\n            }\n        }\n    }\n}\n",
  "sourcePath": "/Users/eric/Development/Jumbo/contracts/Reseller.sol",
  "compiler": {
    "name": "solc",
    "version": "0.4.19+commit.c4cbbb05.Emscripten.clang"
  },
  "schemaVersion": "2.0.0",
  "updatedAt": "2018-03-27T20:37:16.727Z"
}