{
  "contractName": "Schedule",
  "abi": [
    {
      "constant": false,
      "inputs": [],
      "name": "kill",
      "outputs": [],
      "payable": false,
      "stateMutability": "nonpayable",
      "type": "function"
    },
    {
      "constant": true,
      "inputs": [],
      "name": "instructor",
      "outputs": [
        {
          "name": "",
          "type": "string"
        }
      ],
      "payable": false,
      "stateMutability": "view",
      "type": "function"
    },
    {
      "constant": true,
      "inputs": [],
      "name": "owner",
      "outputs": [
        {
          "name": "",
          "type": "address"
        }
      ],
      "payable": false,
      "stateMutability": "view",
      "type": "function"
    },
    {
      "constant": true,
      "inputs": [],
      "name": "klass",
      "outputs": [
        {
          "name": "",
          "type": "address"
        }
      ],
      "payable": false,
      "stateMutability": "view",
      "type": "function"
    },
    {
      "constant": true,
      "inputs": [],
      "name": "dates",
      "outputs": [
        {
          "name": "start",
          "type": "uint256"
        },
        {
          "name": "end",
          "type": "uint256"
        },
        {
          "name": "cancellation",
          "type": "uint256"
        },
        {
          "name": "purchase",
          "type": "uint256"
        }
      ],
      "payable": false,
      "stateMutability": "view",
      "type": "function"
    },
    {
      "constant": true,
      "inputs": [],
      "name": "nSpots",
      "outputs": [
        {
          "name": "",
          "type": "uint256"
        }
      ],
      "payable": false,
      "stateMutability": "view",
      "type": "function"
    },
    {
      "constant": false,
      "inputs": [
        {
          "name": "newOwner",
          "type": "address"
        }
      ],
      "name": "transferOwnership",
      "outputs": [],
      "payable": false,
      "stateMutability": "nonpayable",
      "type": "function"
    },
    {
      "inputs": [
        {
          "name": "_class",
          "type": "address"
        },
        {
          "name": "_instructor",
          "type": "string"
        },
        {
          "name": "_dateStart",
          "type": "uint256"
        },
        {
          "name": "_dateEnd",
          "type": "uint256"
        },
        {
          "name": "_nSpots",
          "type": "uint256"
        },
        {
          "name": "_nSpotsReseller",
          "type": "uint256"
        },
        {
          "name": "priceIndividual",
          "type": "uint256"
        },
        {
          "name": "priceReseller",
          "type": "uint256"
        }
      ],
      "payable": false,
      "stateMutability": "nonpayable",
      "type": "constructor"
    },
    {
      "anonymous": false,
      "inputs": [
        {
          "indexed": false,
          "name": "reason",
          "type": "string"
        }
      ],
      "name": "Cancel",
      "type": "event"
    },
    {
      "anonymous": false,
      "inputs": [
        {
          "indexed": false,
          "name": "spotType",
          "type": "uint256"
        },
        {
          "indexed": false,
          "name": "attendee",
          "type": "address"
        },
        {
          "indexed": false,
          "name": "reseller",
          "type": "address"
        },
        {
          "indexed": false,
          "name": "index",
          "type": "uint256"
        },
        {
          "indexed": false,
          "name": "spotsAvailable",
          "type": "uint256"
        }
      ],
      "name": "SpotPurchased",
      "type": "event"
    },
    {
      "anonymous": false,
      "inputs": [
        {
          "indexed": false,
          "name": "spotType",
          "type": "uint256"
        },
        {
          "indexed": false,
          "name": "attendee",
          "type": "address"
        },
        {
          "indexed": false,
          "name": "reseller",
          "type": "address"
        },
        {
          "indexed": false,
          "name": "spotsAvailable",
          "type": "uint256"
        }
      ],
      "name": "SpotCancelled",
      "type": "event"
    },
    {
      "anonymous": false,
      "inputs": [
        {
          "indexed": true,
          "name": "contractAddress",
          "type": "address"
        },
        {
          "indexed": false,
          "name": "newPrice",
          "type": "uint256"
        }
      ],
      "name": "ResellerPriceUpdated",
      "type": "event"
    },
    {
      "anonymous": false,
      "inputs": [
        {
          "indexed": false,
          "name": "from",
          "type": "address"
        },
        {
          "indexed": false,
          "name": "to",
          "type": "address"
        }
      ],
      "name": "OwnershipChanged",
      "type": "event"
    },
    {
      "constant": false,
      "inputs": [
        {
          "name": "attendee",
          "type": "address"
        },
        {
          "name": "reseller",
          "type": "address"
        }
      ],
      "name": "spotPurchase",
      "outputs": [],
      "payable": true,
      "stateMutability": "payable",
      "type": "function"
    },
    {
      "constant": false,
      "inputs": [
        {
          "name": "attendee",
          "type": "address"
        },
        {
          "name": "reseller",
          "type": "address"
        }
      ],
      "name": "spotCancel",
      "outputs": [],
      "payable": false,
      "stateMutability": "nonpayable",
      "type": "function"
    },
    {
      "constant": false,
      "inputs": [
        {
          "name": "_priceReseller",
          "type": "uint256"
        }
      ],
      "name": "priceResellerUpdate",
      "outputs": [],
      "payable": false,
      "stateMutability": "nonpayable",
      "type": "function"
    },
    {
      "constant": false,
      "inputs": [],
      "name": "complete",
      "outputs": [],
      "payable": false,
      "stateMutability": "nonpayable",
      "type": "function"
    },
    {
      "constant": false,
      "inputs": [
        {
          "name": "reason",
          "type": "string"
        }
      ],
      "name": "cancel",
      "outputs": [],
      "payable": false,
      "stateMutability": "nonpayable",
      "type": "function"
    },
    {
      "constant": true,
      "inputs": [
        {
          "name": "spotType",
          "type": "string"
        }
      ],
      "name": "getPriceWithUserType",
      "outputs": [
        {
          "name": "",
          "type": "uint256"
        }
      ],
      "payable": false,
      "stateMutability": "view",
      "type": "function"
    },
    {
      "constant": true,
      "inputs": [],
      "name": "getPrice",
      "outputs": [
        {
          "name": "",
          "type": "uint256"
        }
      ],
      "payable": false,
      "stateMutability": "view",
      "type": "function"
    },
    {
      "constant": true,
      "inputs": [],
      "name": "getNumberOfAttendees",
      "outputs": [
        {
          "name": "",
          "type": "uint256"
        }
      ],
      "payable": false,
      "stateMutability": "view",
      "type": "function"
    },
    {
      "constant": true,
      "inputs": [
        {
          "name": "index",
          "type": "uint256"
        }
      ],
      "name": "getSpotAtIndex",
      "outputs": [
        {
          "name": "",
          "type": "address"
        }
      ],
      "payable": false,
      "stateMutability": "view",
      "type": "function"
    },
    {
      "constant": true,
      "inputs": [
        {
          "name": "sender",
          "type": "address"
        }
      ],
      "name": "spotTypeWithSender",
      "outputs": [
        {
          "name": "",
          "type": "uint8"
        }
      ],
      "payable": false,
      "stateMutability": "view",
      "type": "function"
    },
    {
      "constant": true,
      "inputs": [
        {
          "name": "attendee",
          "type": "address"
        }
      ],
      "name": "spotIsReserved",
      "outputs": [
        {
          "name": "",
          "type": "bool"
        }
      ],
      "payable": false,
      "stateMutability": "view",
      "type": "function"
    }
  ],
  "bytecode": "0x606060405234156200001057600080fd5b6040516200254538038062002545833981016040528080519060200190919080518201919060200180519060200190919080519060200190919080519060200190919080519060200190919080519060200190919080519060200190919050506000336000806101000a81548173ffffffffffffffffffffffffffffffffffffffff021916908373ffffffffffffffffffffffffffffffffffffffff16021790555033600b60006101000a81548173ffffffffffffffffffffffffffffffffffffffff021916908373ffffffffffffffffffffffffffffffffffffffff160217905550608060405190810160405280888152602001878152602001618ca089038152602001610e10890381525060036000820151816000015560208201518160010155604082015181600201556060820151816003015590505088600260006101000a81548173ffffffffffffffffffffffffffffffffffffffff021916908373ffffffffffffffffffffffffffffffffffffffff160217905550336000806101000a81548173ffffffffffffffffffffffffffffffffffffffff021916908373ffffffffffffffffffffffffffffffffffffffff1602179055508760019080519060200190620001e3929190620003f2565b50836008819055508460098190555082600a6000600160038111156200020557fe5b81526020019081526020016000208190555081600a6000600260038111156200022a57fe5b815260200190815260200160002081905550600090505b600954811015620003e357608060405190810160405280600060038111156200026657fe5b8152602001600073ffffffffffffffffffffffffffffffffffffffff168152602001600073ffffffffffffffffffffffffffffffffffffffff168152602001600073ffffffffffffffffffffffffffffffffffffffff168152506007600083815260200190815260200160002060008201518160000160006101000a81548160ff02191690836003811115620002f857fe5b021790555060208201518160000160016101000a81548173ffffffffffffffffffffffffffffffffffffffff021916908373ffffffffffffffffffffffffffffffffffffffff16021790555060408201518160010160006101000a81548173ffffffffffffffffffffffffffffffffffffffff021916908373ffffffffffffffffffffffffffffffffffffffff16021790555060608201518160020160006101000a81548173ffffffffffffffffffffffffffffffffffffffff021916908373ffffffffffffffffffffffffffffffffffffffff160217905550905050808060010191505062000241565b505050505050505050620004a1565b828054600181600116156101000203166002900490600052602060002090601f016020900481019282601f106200043557805160ff191683800117855562000466565b8280016001018555821562000466579182015b828111156200046557825182559160200191906001019062000448565b5b50905062000475919062000479565b5090565b6200049e91905b808211156200049a57600081600090555060010162000480565b5090565b90565b61209480620004b16000396000f3006060604052600436106100fc576000357c0100000000000000000000000000000000000000000000000000000000900463ffffffff1680630b4f3f3d146101015780631b3e819b1461015e57806323d9d4e9146101b657806341c0e1b514610219578063522e11771461022e578063607aeefb1461024357806371ae413d14610290578063879bee981461031e5780638da5cb5b14610379578063922861b7146103ce57806398d5fdca14610423578063a9bf14411461044c578063abfbb34914610475578063c157fc7214610498578063e0962423146104d6578063e6e83e3a14610547578063f2ad41e314610598578063f2fde38b146105c1575b600080fd5b341561010c57600080fd5b61015c600480803590602001908201803590602001908080601f016020809104026020016040519081016040528093929190818152602001838380828437820191505050505050919050506105fa565b005b341561016957600080fd5b6101b4600480803573ffffffffffffffffffffffffffffffffffffffff1690602001909190803573ffffffffffffffffffffffffffffffffffffffff169060200190919050506108f5565b005b34156101c157600080fd5b6101d76004808035906020019091905050610c5f565b604051808273ffffffffffffffffffffffffffffffffffffffff1673ffffffffffffffffffffffffffffffffffffffff16815260200191505060405180910390f35b341561022457600080fd5b61022c610cf5565b005b341561023957600080fd5b610241610d86565b005b61028e600480803573ffffffffffffffffffffffffffffffffffffffff1690602001909190803573ffffffffffffffffffffffffffffffffffffffff16906020019091905050610e17565b005b341561029b57600080fd5b6102a36111b7565b6040518080602001828103825283818151815260200191508051906020019080838360005b838110156102e35780820151818401526020810190506102c8565b50505050905090810190601f1680156103105780820380516001836020036101000a031916815260200191505b509250505060405180910390f35b341561032957600080fd5b610355600480803573ffffffffffffffffffffffffffffffffffffffff16906020019091905050611255565b6040518082600381111561036557fe5b60ff16815260200191505060405180910390f35b341561038457600080fd5b61038c611430565b604051808273ffffffffffffffffffffffffffffffffffffffff1673ffffffffffffffffffffffffffffffffffffffff16815260200191505060405180910390f35b34156103d957600080fd5b6103e1611455565b604051808273ffffffffffffffffffffffffffffffffffffffff1673ffffffffffffffffffffffffffffffffffffffff16815260200191505060405180910390f35b341561042e57600080fd5b61043661147b565b6040518082815260200191505060405180910390f35b341561045757600080fd5b61045f6114ae565b6040518082815260200191505060405180910390f35b341561048057600080fd5b6104966004808035906020019091905050611590565b005b34156104a357600080fd5b6104ab611605565b6040518085815260200184815260200183815260200182815260200194505050505060405180910390f35b34156104e157600080fd5b610531600480803590602001908201803590602001908080601f01602080910402602001604051908101604052809392919081815260200183838082843782019150505050505091905050611623565b6040518082815260200191505060405180910390f35b341561055257600080fd5b61057e600480803573ffffffffffffffffffffffffffffffffffffffff169060200190919050506117cb565b604051808215151515815260200191505060405180910390f35b34156105a357600080fd5b6105ab6117e8565b6040518082815260200191505060405180910390f35b34156105cc57600080fd5b6105f8600480803573ffffffffffffffffffffffffffffffffffffffff169060200190919050506117ee565b005b6000806000809054906101000a900473ffffffffffffffffffffffffffffffffffffffff1673ffffffffffffffffffffffffffffffffffffffff163373ffffffffffffffffffffffffffffffffffffffff1614156108f0577f5c16de217ae60c4203a17684de4c416383dc8cb769cebd4bac0031f88819ae3e836040518080602001828103825283818151815260200191508051906020019080838360005b838110156106b4578082015181840152602081019050610699565b50505050905090810190601f1680156106e15780820380516001836020036101000a031916815260200191505b509250505060405180910390a1600091505b6009548210156108b65760076000838152602001908152602001600020905060008160020160009054906101000a900473ffffffffffffffffffffffffffffffffffffffff1673ffffffffffffffffffffffffffffffffffffffff161415156107de578060020160009054906101000a900473ffffffffffffffffffffffffffffffffffffffff1673ffffffffffffffffffffffffffffffffffffffff166108fc600a6000600260038111156107a557fe5b8152602001908152602001600020549081150290604051600060405180830381858888f1935050505015156107d957600080fd5b6108a9565b60008160000160019054906101000a900473ffffffffffffffffffffffffffffffffffffffff1673ffffffffffffffffffffffffffffffffffffffff161415801561089e57508060000160019054906101000a900473ffffffffffffffffffffffffffffffffffffffff1673ffffffffffffffffffffffffffffffffffffffff166108fc600a60006001600381111561087357fe5b8152602001908152602001600020549081150290604051600060405180830381858888f19350505050155b156108a857600080fd5b5b81806001019250506106f3565b6000809054906101000a900473ffffffffffffffffffffffffffffffffffffffff1673ffffffffffffffffffffffffffffffffffffffff16ff5b505050565b6108fd611ff2565b600080600080600360020154421115151561091757600080fd5b61092087611965565b8095508196508297505050506001151584151514151561093f57600080fd5b3373ffffffffffffffffffffffffffffffffffffffff16856040015173ffffffffffffffffffffffffffffffffffffffff1614151561097d57600080fd5b6109b86000866060015173ffffffffffffffffffffffffffffffffffffffff1614156109ad5785602001516109b3565b85606001515b611bd4565b9150608060405190810160405280600060038111156109d357fe5b8152602001600073ffffffffffffffffffffffffffffffffffffffff168152602001600073ffffffffffffffffffffffffffffffffffffffff168152602001600073ffffffffffffffffffffffffffffffffffffffff168152506007600085815260200190815260200160002060008201518160000160006101000a81548160ff02191690836003811115610a6457fe5b021790555060208201518160000160016101000a81548173ffffffffffffffffffffffffffffffffffffffff021916908373ffffffffffffffffffffffffffffffffffffffff16021790555060408201518160010160006101000a81548173ffffffffffffffffffffffffffffffffffffffff021916908373ffffffffffffffffffffffffffffffffffffffff16021790555060608201518160020160006101000a81548173ffffffffffffffffffffffffffffffffffffffff021916908373ffffffffffffffffffffffffffffffffffffffff16021790555090505060008673ffffffffffffffffffffffffffffffffffffffff161415610b665786610b68565b855b90508073ffffffffffffffffffffffffffffffffffffffff166108fc839081150290604051600060405180830381858888f193505050501515610baa57600080fd5b7f79c3b697a0a0b3c078dc41b4561f27a89d5c5f47e5488fd67a83e09229f2656885600001516003811115610bdb57fe5b886000610be66114ae565b60095403604051808581526020018473ffffffffffffffffffffffffffffffffffffffff1673ffffffffffffffffffffffffffffffffffffffff1681526020018373ffffffffffffffffffffffffffffffffffffffff16815260200182815260200194505050505060405180910390a150505050505050565b60008060009054906101000a900473ffffffffffffffffffffffffffffffffffffffff1673ffffffffffffffffffffffffffffffffffffffff163373ffffffffffffffffffffffffffffffffffffffff161415610cf0576007600083815260200190815260200160002060000160019054906101000a900473ffffffffffffffffffffffffffffffffffffffff1690505b919050565b6000809054906101000a900473ffffffffffffffffffffffffffffffffffffffff1673ffffffffffffffffffffffffffffffffffffffff163373ffffffffffffffffffffffffffffffffffffffff161415610d84576000809054906101000a900473ffffffffffffffffffffffffffffffffffffffff1673ffffffffffffffffffffffffffffffffffffffff16ff5b565b6000809054906101000a900473ffffffffffffffffffffffffffffffffffffffff1673ffffffffffffffffffffffffffffffffffffffff163373ffffffffffffffffffffffffffffffffffffffff161415610e15576000809054906101000a900473ffffffffffffffffffffffffffffffffffffffff1673ffffffffffffffffffffffffffffffffffffffff16ff5b565b610e1f611ff2565b6000806000808673ffffffffffffffffffffffffffffffffffffffff1614151515610e4957600080fd5b610e538686611c09565b80945081955082965050505060011515831515141515610e7257600080fd5b3073ffffffffffffffffffffffffffffffffffffffff1663879bee9860008773ffffffffffffffffffffffffffffffffffffffff161415610eb35787610eb5565b865b6000604051602001526040518263ffffffff167c0100000000000000000000000000000000000000000000000000000000028152600401808273ffffffffffffffffffffffffffffffffffffffff1673ffffffffffffffffffffffffffffffffffffffff168152602001915050602060405180830381600087803b1515610f3b57600080fd5b6102c65a03f11515610f4c57600080fd5b505050604051805190509050608060405190810160405280826003811115610f7057fe5b81526020018773ffffffffffffffffffffffffffffffffffffffff1681526020013373ffffffffffffffffffffffffffffffffffffffff1681526020018673ffffffffffffffffffffffffffffffffffffffff168152509350836007600084815260200190815260200160002060008201518160000160006101000a81548160ff0219169083600381111561100157fe5b021790555060208201518160000160016101000a81548173ffffffffffffffffffffffffffffffffffffffff021916908373ffffffffffffffffffffffffffffffffffffffff16021790555060408201518160010160006101000a81548173ffffffffffffffffffffffffffffffffffffffff021916908373ffffffffffffffffffffffffffffffffffffffff16021790555060608201518160020160006101000a81548173ffffffffffffffffffffffffffffffffffffffff021916908373ffffffffffffffffffffffffffffffffffffffff1602179055509050507f212e2e0a34ba0fd17843c7e70f09aec7d3f92fc30ddd023a076b681df461a9a48460000151600381111561110f57fe5b85602001518660600151856111226114ae565b60095403604051808681526020018573ffffffffffffffffffffffffffffffffffffffff1673ffffffffffffffffffffffffffffffffffffffff1681526020018473ffffffffffffffffffffffffffffffffffffffff1673ffffffffffffffffffffffffffffffffffffffff1681526020018381526020018281526020019550505050505060405180910390a1505050505050565b60018054600181600116156101000203166002900480601f01602080910402602001604051908101604052809291908181526020018280546001816001161561010002031660029004801561124d5780601f106112225761010080835404028352916020019161124d565b820191906000526020600020905b81548152906001019060200180831161123057829003601f168201915b505050505081565b600080600260009054906101000a900473ffffffffffffffffffffffffffffffffffffffff1673ffffffffffffffffffffffffffffffffffffffff16638da5cb5b6000604051602001526040518163ffffffff167c0100000000000000000000000000000000000000000000000000000000028152600401602060405180830381600087803b15156112e657600080fd5b6102c65a03f115156112f757600080fd5b505050604051805190509050600b60009054906101000a900473ffffffffffffffffffffffffffffffffffffffff1673ffffffffffffffffffffffffffffffffffffffff16638fb6bd9c82856000604051602001526040518363ffffffff167c0100000000000000000000000000000000000000000000000000000000028152600401808373ffffffffffffffffffffffffffffffffffffffff1673ffffffffffffffffffffffffffffffffffffffff1681526020018273ffffffffffffffffffffffffffffffffffffffff1673ffffffffffffffffffffffffffffffffffffffff16815260200192505050602060405180830381600087803b15156113fc57600080fd5b6102c65a03f1151561140d57600080fd5b5050506040518051905015611425576002915061142a565b600191505b50919050565b6000809054906101000a900473ffffffffffffffffffffffffffffffffffffffff1681565b600260009054906101000a900473ffffffffffffffffffffffffffffffffffffffff1681565b60008061148733611255565b9050600a600082600381111561149957fe5b81526020019081526020016000205491505090565b60008060008060009054906101000a900473ffffffffffffffffffffffffffffffffffffffff1673ffffffffffffffffffffffffffffffffffffffff163373ffffffffffffffffffffffffffffffffffffffff16141561158b5760009150600090505b6009548110156115875760006007600083815260200190815260200160002060000160019054906101000a900473ffffffffffffffffffffffffffffffffffffffff1673ffffffffffffffffffffffffffffffffffffffff1614151561157a5781806001019250505b8080600101915050611511565b8192505b505090565b80600a6000600260038111156115a257fe5b8152602001908152602001600020819055503073ffffffffffffffffffffffffffffffffffffffff167f57e73e11a1db085916572505249945930d53dd4fb13e6e32f4558b92681904ac826040518082815260200191505060405180910390a250565b60038060000154908060010154908060020154908060030154905084565b600060405180807f494e444956494455414c00000000000000000000000000000000000000000000815250600a019050604051809103902060001916826040518082805190602001908083835b6020831015156116955780518252602082019150602081019050602083039250611670565b6001836020036101000a03801982511681845116808217855250505050505090500191505060405180910390206000191614156116f357600a6000600160038111156116dd57fe5b81526020019081526020016000205490506117c6565b60405180807f524553454c4c45520000000000000000000000000000000000000000000000008152506008019050604051809103902060001916826040518082805190602001908083835b602083101515611763578051825260208201915060208101905060208303925061173e565b6001836020036101000a03801982511681845116808217855250505050505090500191505060405180910390206000191614156117c157600a6000600260038111156117ab57fe5b81526020019081526020016000205490506117c6565b600080fd5b919050565b6000806117d783611965565b909150508091505080915050919050565b60095481565b6000809054906101000a900473ffffffffffffffffffffffffffffffffffffffff1673ffffffffffffffffffffffffffffffffffffffff163373ffffffffffffffffffffffffffffffffffffffff1614156119625760008173ffffffffffffffffffffffffffffffffffffffff161415151561186957600080fd5b7f0384899bd253d83b23daa4d29aaa2efe0563d1132b43101e9ad667235aeb951b6000809054906101000a900473ffffffffffffffffffffffffffffffffffffffff1682604051808373ffffffffffffffffffffffffffffffffffffffff1673ffffffffffffffffffffffffffffffffffffffff1681526020018273ffffffffffffffffffffffffffffffffffffffff1673ffffffffffffffffffffffffffffffffffffffff1681526020019250505060405180910390a1806000806101000a81548173ffffffffffffffffffffffffffffffffffffffff021916908373ffffffffffffffffffffffffffffffffffffffff1602179055505b50565b61196d611ff2565b600080600080600091505b600954821015611b49576007600083815260200190815260200160002090508573ffffffffffffffffffffffffffffffffffffffff168160000160019054906101000a900473ffffffffffffffffffffffffffffffffffffffff1673ffffffffffffffffffffffffffffffffffffffff161415611b3c578060018382608060405190810160405290816000820160009054906101000a900460ff166003811115611a1e57fe5b6003811115611a2957fe5b81526020016000820160019054906101000a900473ffffffffffffffffffffffffffffffffffffffff1673ffffffffffffffffffffffffffffffffffffffff1673ffffffffffffffffffffffffffffffffffffffff1681526020016001820160009054906101000a900473ffffffffffffffffffffffffffffffffffffffff1673ffffffffffffffffffffffffffffffffffffffff1673ffffffffffffffffffffffffffffffffffffffff1681526020016002820160009054906101000a900473ffffffffffffffffffffffffffffffffffffffff1673ffffffffffffffffffffffffffffffffffffffff1673ffffffffffffffffffffffffffffffffffffffff16815250509250945094509450611bcb565b8180600101925050611978565b608060405190810160405280600380811115611b6157fe5b8152602001600073ffffffffffffffffffffffffffffffffffffffff168152602001600073ffffffffffffffffffffffffffffffffffffffff168152602001600073ffffffffffffffffffffffffffffffffffffffff168152506000808292508090509450945094505b50509193909250565b600080611be083611255565b9050600a6000826003811115611bf257fe5b815260200190815260200160002054915050919050565b611c11611ff2565b6000806000806000611c2288611965565b909150508093505060001515831515141515611c3d57600080fd5b600854611c48611f75565b148015611c6c575060008773ffffffffffffffffffffffffffffffffffffffff1614155b15611cf757608060405190810160405280600380811115611c8957fe5b8152602001600073ffffffffffffffffffffffffffffffffffffffff168152602001600073ffffffffffffffffffffffffffffffffffffffff168152602001600073ffffffffffffffffffffffffffffffffffffffff16815250600080829250809050955095509550611f6b565b600091505b600954821015611ee95760076000838152602001908152602001600020905060006003811115611d2857fe5b8160000160009054906101000a900460ff166003811115611d4557fe5b1415611edc5760008160000160019054906101000a900473ffffffffffffffffffffffffffffffffffffffff1673ffffffffffffffffffffffffffffffffffffffff161415611edb578060018382608060405190810160405290816000820160009054906101000a900460ff166003811115611dbd57fe5b6003811115611dc857fe5b81526020016000820160019054906101000a900473ffffffffffffffffffffffffffffffffffffffff1673ffffffffffffffffffffffffffffffffffffffff1673ffffffffffffffffffffffffffffffffffffffff1681526020016001820160009054906101000a900473ffffffffffffffffffffffffffffffffffffffff1673ffffffffffffffffffffffffffffffffffffffff1673ffffffffffffffffffffffffffffffffffffffff1681526020016002820160009054906101000a900473ffffffffffffffffffffffffffffffffffffffff1673ffffffffffffffffffffffffffffffffffffffff1673ffffffffffffffffffffffffffffffffffffffff16815250509250955095509550611f6b565b5b8180600101925050611cfc565b608060405190810160405280600380811115611f0157fe5b8152602001600073ffffffffffffffffffffffffffffffffffffffff168152602001600073ffffffffffffffffffffffffffffffffffffffff168152602001600073ffffffffffffffffffffffffffffffffffffffff168152506000808292508090509550955095505b5050509250925092565b60008060008060009250600091505b600954821015611fe95760076000838152602001908152602001600020905060026003811115611fb057fe5b8160000160009054906101000a900460ff166003811115611fcd57fe5b1415611fdc5782806001019350505b8180600101925050611f84565b82935050505090565b6080604051908101604052806000600381111561200b57fe5b8152602001600073ffffffffffffffffffffffffffffffffffffffff168152602001600073ffffffffffffffffffffffffffffffffffffffff168152602001600073ffffffffffffffffffffffffffffffffffffffff16815250905600a165627a7a72305820e959699f63ceb8a1ec1826795aca0be55483b8341c24b774ef52ef8af0bc93600029",
  "source": "pragma solidity ^0.4.18;\nimport { Studio } from \"./Studio.sol\";\nimport { Class } from \"./Class.sol\";\nimport { Individual } from \"./Individual.sol\";\nimport \"./zeppelin/lifecycle/Killable.sol\";\n\ncontract Schedule is Killable {\n\n    string public instructor;\n    address public klass;\n\n    struct Dates {\n        uint start;\n        uint end;\n        uint cancellation;\n        uint purchase;\n    }\n\n    Dates public dates;\n\n    enum SpotType {\n        Available,\n        Individual,\n        Reseller,\n        Unavailable\n    }\n\n    struct Spot {\n        SpotType spotType;\n        address attendee;\n        address sender; //address of the contract making the external call to spotPurchase / spotCancel\n        address reseller; //optional\n    }\n\n    mapping (uint => Spot) spots;\n    uint private nSpotsReseller;\n    uint public nSpots;\n\n    mapping(uint => uint) private price;\n    Studio private studioContract;\n\n    modifier withinDeadlineCancellation() {\n        require (block.timestamp <= dates.cancellation);\n        _;\n    }\n\n    modifier withinDeadlinePurchase() {\n        require(block.timestamp <= dates.purchase);\n        _;\n    }\n\n    event Cancel(string reason);\n    event SpotPurchased(uint spotType, address attendee, address reseller, uint index, uint spotsAvailable);\n    event SpotCancelled(uint spotType, address attendee, address reseller, uint spotsAvailable);\n    event ResellerPriceUpdated(address indexed contractAddress, uint newPrice);\n\n    function Schedule(address _class, string _instructor, uint _dateStart, uint _dateEnd, uint _nSpots, uint _nSpotsReseller, uint priceIndividual, uint priceReseller) public {\n        studioContract = Studio(msg.sender);\n        dates = Dates(_dateStart, _dateEnd, _dateStart - 60 * 60 * 10, _dateStart - 60 * 60);\n        klass = _class;\n        owner = msg.sender;\n        instructor = _instructor;\n        nSpotsReseller = _nSpotsReseller;\n        nSpots = _nSpots;\n\n        price[uint(SpotType.Individual)] = priceIndividual;\n        price[uint(SpotType.Reseller)] = priceReseller;\n\n        for (uint i = 0; i < nSpots; i++) {\n            spots[i] = Spot(\n                SpotType.Available,\n                0x0,\n                0x0,\n                0x0\n            );\n        }\n    }\n\n    function spotPurchase(address attendee, address reseller) payable external {\n        require(attendee != 0x0);\n        //sender is the msg.sender sent to the original calling method\n        Spot memory spot;\n        bool found;\n        uint256 index;\n        (spot, found, index) = spotFindPurchasable(attendee, reseller);\n        require(found == true);\n        SpotType spotType = this.spotTypeWithSender(reseller != 0x0 ? reseller : attendee);\n        //todo: address of reseller\n        spot = Spot(spotType, attendee, msg.sender, reseller);\n        spots[index] = spot;\n        SpotPurchased(uint(spot.spotType), spot.attendee, spot.reseller, index, nSpots - getNumberOfAttendees());\n    }\n\n    function spotCancel(address attendee, address reseller) withinDeadlineCancellation external {\n        Spot memory spot;\n        bool found;\n        uint256 index;\n        (spot, found, index) = spotFindReserved(attendee);\n        require(found == true);\n        require(spot.sender == msg.sender);\n        uint spotPrice = getPriceWithSender(spot.reseller != 0x0 ? spot.reseller : spot.attendee);\n        spots[index] = Spot(SpotType.Available, 0x0, 0x0, 0x0);\n        address destination = reseller != 0x0 ? reseller : attendee;\n        if (!destination.send(spotPrice)) {\n            revert();\n        }\n        SpotCancelled(uint(spot.spotType), attendee, 0x0, nSpots - getNumberOfAttendees());\n    }\n\n    function priceResellerUpdate(uint _priceReseller) public {\n        price[uint(SpotType.Reseller)] = _priceReseller;\n        ResellerPriceUpdated(this, _priceReseller);\n    }\n\n    function complete() public onlyOwner {\n        //class has completed. \n        selfdestruct(owner);\n        //todo: don't do this http://solidity.readthedocs.io/en/latest/frequently-asked-questions.html#are-mappings-iterable\n    }\n\n    function cancel(string reason) public onlyOwner {\n        //studio needs to cancel this schedule. Refund all spots, notify all attendees of the reason.\n        Cancel(reason);\n\n        //process withdrawals\n        for (uint spotIndex = 0; spotIndex < nSpots; spotIndex ++) {\n            Spot storage spot = spots[spotIndex];\n            if (spot.reseller != 0x0) {\n                if (!spot.reseller.send(price[uint(SpotType.Reseller)])) {\n                    revert();\n                }\n            } else {\n                if (spot.attendee != 0x0 && !spot.attendee.send(price[uint(SpotType.Individual)])) {\t\n                    revert();\n                }\n            }\n        }\n        selfdestruct(owner);\n    }\n\n    modifier sentRequiredFunds() {\n        SpotType spotType = spotTypeWithSender(msg.sender);\n        if (msg.value == price[uint(spotType)]) {\n            _;\n        }\n    }\n\n    function getPriceWithUserType(string spotType) public view returns (uint) {\n        //candidate for onlyOwner\n        if (keccak256(spotType) == keccak256(\"INDIVIDUAL\")) {\n            return price[uint(SpotType.Individual)];\n        } else if (keccak256(spotType) == keccak256(\"RESELLER\")) {\n            return price[uint(SpotType.Reseller)];\n        }\n        revert();\n    }\n\n    function getPrice() public view returns (uint) {\n        SpotType spotType = spotTypeWithSender(msg.sender);\n        return price[uint(spotType)];\n    }\n\n    function getNumberOfAttendees() public onlyOwner view returns (uint) {\n        uint nSpotsReserved = 0;\n        for (uint spotIndex = 0; spotIndex < nSpots; spotIndex++) {\n            if (spots[spotIndex].attendee != 0x0) {\n                nSpotsReserved ++;\n            }\n        }\n        return nSpotsReserved;\n    }\n\n    function getSpotAtIndex(uint index) onlyOwner public view returns (address) {\n        return spots[index].attendee;\n    }\n\n    function spotTypeWithSender(address sender) public view returns (SpotType) {\n        address studio = Class(klass).owner();\n        if (studioContract.isAuthorizedReseller(studio, sender)) {\n            return SpotType.Reseller;\n        } else {\n            return SpotType.Individual;\n        }\n    }\n\n    function spotIsReserved(address attendee) public view returns (bool) {\n        bool found;\n        (, found, ) = spotFindReserved(attendee);\n        return found;\n    }\n\n    function getPriceWithSender(address sender) private view returns (uint) {\n        SpotType spotType = spotTypeWithSender(sender);\n        return price[uint(spotType)];\t\n    }\n\n    function spotFindPurchasable(address attendee, address reseller) private view returns (Spot, bool, uint) {\n        bool found;\n        (, found, ) = spotFindReserved(attendee);\n        require(found == false);\n\n        if (nSpotsResellerReserved() == nSpotsReseller && reseller != 0x0) {\n            return (Spot(SpotType.Unavailable, 0x0, 0x0, 0x0), false, 0);\n        }\n\n        for (uint spotIndex = 0; spotIndex < nSpots; spotIndex++) {\n            Spot storage spot = spots[spotIndex];\n            if (spot.spotType == SpotType.Available) {\n                if (spot.attendee == 0x0) {\n                    return (spot, true, spotIndex);\n                }\n            }\n        }\n        return (Spot(SpotType.Unavailable, 0x0, 0x0, 0x0), false, 0);\n    }\n\n    function nSpotsResellerReserved() private view returns (uint) {\n        uint nSpotsResellerFound = 0;\n        for (uint spotIndex = 0; spotIndex < nSpots; spotIndex++) {\n            Spot storage spot = spots[spotIndex];\n            if (spot.spotType == SpotType.Reseller) {\n                nSpotsResellerFound++;\n            }\n        }\n        return nSpotsResellerFound;\n    }\n\n    function spotFindReserved(address attendee) private view returns (Spot, bool, uint) {\n        for (uint spotIndex = 0; spotIndex < nSpots; spotIndex++) {\n            Spot storage spot = spots[spotIndex];\n            if (spot.attendee == attendee) {\n                //attendee already bought a spot\n                return (spot, true, spotIndex);\n            }\n        }\n        return (Spot(SpotType.Unavailable, 0x0, 0x0, 0x0), false, 0);\n    }\n}\n",
  "sourcePath": "/Users/eric/Development/Jumbo/contracts/Schedule.sol",
  "compiler": {
    "name": "solc",
    "version": "0.4.19+commit.c4cbbb05.Emscripten.clang"
  },
  "schemaVersion": "2.0.0",
  "updatedAt": "2018-03-27T20:54:39.864Z"
}