{
  "contractName": "Schedule",
  "abi": [
    {
      "constant": false,
      "inputs": [],
      "name": "kill",
      "outputs": [],
      "payable": false,
      "stateMutability": "nonpayable",
      "type": "function"
    },
    {
      "constant": true,
      "inputs": [],
      "name": "instructor",
      "outputs": [
        {
          "name": "",
          "type": "string"
        }
      ],
      "payable": false,
      "stateMutability": "view",
      "type": "function"
    },
    {
      "constant": true,
      "inputs": [],
      "name": "owner",
      "outputs": [
        {
          "name": "",
          "type": "address"
        }
      ],
      "payable": false,
      "stateMutability": "view",
      "type": "function"
    },
    {
      "constant": true,
      "inputs": [],
      "name": "klass",
      "outputs": [
        {
          "name": "",
          "type": "address"
        }
      ],
      "payable": false,
      "stateMutability": "view",
      "type": "function"
    },
    {
      "constant": true,
      "inputs": [],
      "name": "dates",
      "outputs": [
        {
          "name": "start",
          "type": "uint256"
        },
        {
          "name": "end",
          "type": "uint256"
        },
        {
          "name": "cancellation",
          "type": "uint256"
        },
        {
          "name": "purchase",
          "type": "uint256"
        }
      ],
      "payable": false,
      "stateMutability": "view",
      "type": "function"
    },
    {
      "constant": true,
      "inputs": [],
      "name": "nSpots",
      "outputs": [
        {
          "name": "",
          "type": "uint256"
        }
      ],
      "payable": false,
      "stateMutability": "view",
      "type": "function"
    },
    {
      "constant": false,
      "inputs": [
        {
          "name": "newOwner",
          "type": "address"
        }
      ],
      "name": "transferOwnership",
      "outputs": [],
      "payable": false,
      "stateMutability": "nonpayable",
      "type": "function"
    },
    {
      "inputs": [
        {
          "name": "_class",
          "type": "address"
        },
        {
          "name": "_instructor",
          "type": "string"
        },
        {
          "name": "_dateStart",
          "type": "uint256"
        },
        {
          "name": "_dateEnd",
          "type": "uint256"
        },
        {
          "name": "_nSpots",
          "type": "uint256"
        },
        {
          "name": "_nSpotsReseller",
          "type": "uint256"
        },
        {
          "name": "priceIndividual",
          "type": "uint256"
        },
        {
          "name": "priceReseller",
          "type": "uint256"
        }
      ],
      "payable": false,
      "stateMutability": "nonpayable",
      "type": "constructor"
    },
    {
      "anonymous": false,
      "inputs": [
        {
          "indexed": false,
          "name": "reason",
          "type": "string"
        }
      ],
      "name": "Cancel",
      "type": "event"
    },
    {
      "anonymous": false,
      "inputs": [
        {
          "indexed": false,
          "name": "spotType",
          "type": "uint256"
        },
        {
          "indexed": false,
          "name": "attendee",
          "type": "address"
        },
        {
          "indexed": false,
          "name": "reseller",
          "type": "address"
        },
        {
          "indexed": false,
          "name": "index",
          "type": "uint256"
        },
        {
          "indexed": false,
          "name": "spotsAvailable",
          "type": "uint256"
        }
      ],
      "name": "SpotPurchased",
      "type": "event"
    },
    {
      "anonymous": false,
      "inputs": [
        {
          "indexed": false,
          "name": "spotType",
          "type": "uint256"
        },
        {
          "indexed": false,
          "name": "attendee",
          "type": "address"
        },
        {
          "indexed": false,
          "name": "reseller",
          "type": "address"
        },
        {
          "indexed": false,
          "name": "spotsAvailable",
          "type": "uint256"
        }
      ],
      "name": "SpotCancelled",
      "type": "event"
    },
    {
      "anonymous": false,
      "inputs": [
        {
          "indexed": true,
          "name": "contractAddress",
          "type": "address"
        },
        {
          "indexed": false,
          "name": "newPrice",
          "type": "uint256"
        }
      ],
      "name": "ResellerPriceUpdated",
      "type": "event"
    },
    {
      "anonymous": false,
      "inputs": [
        {
          "indexed": false,
          "name": "from",
          "type": "address"
        },
        {
          "indexed": false,
          "name": "to",
          "type": "address"
        }
      ],
      "name": "OwnershipChanged",
      "type": "event"
    },
    {
      "constant": false,
      "inputs": [
        {
          "name": "attendee",
          "type": "address"
        },
        {
          "name": "reseller",
          "type": "address"
        }
      ],
      "name": "spotPurchase",
      "outputs": [],
      "payable": true,
      "stateMutability": "payable",
      "type": "function"
    },
    {
      "constant": false,
      "inputs": [
        {
          "name": "attendee",
          "type": "address"
        },
        {
          "name": "reseller",
          "type": "address"
        }
      ],
      "name": "spotCancel",
      "outputs": [],
      "payable": false,
      "stateMutability": "nonpayable",
      "type": "function"
    },
    {
      "constant": false,
      "inputs": [
        {
          "name": "_priceReseller",
          "type": "uint256"
        }
      ],
      "name": "priceResellerUpdate",
      "outputs": [],
      "payable": false,
      "stateMutability": "nonpayable",
      "type": "function"
    },
    {
      "constant": false,
      "inputs": [],
      "name": "complete",
      "outputs": [],
      "payable": false,
      "stateMutability": "nonpayable",
      "type": "function"
    },
    {
      "constant": false,
      "inputs": [
        {
          "name": "reason",
          "type": "string"
        }
      ],
      "name": "cancel",
      "outputs": [],
      "payable": false,
      "stateMutability": "nonpayable",
      "type": "function"
    },
    {
      "constant": true,
      "inputs": [
        {
          "name": "spotType",
          "type": "string"
        }
      ],
      "name": "getPriceWithUserType",
      "outputs": [
        {
          "name": "",
          "type": "uint256"
        }
      ],
      "payable": false,
      "stateMutability": "view",
      "type": "function"
    },
    {
      "constant": true,
      "inputs": [],
      "name": "getPrice",
      "outputs": [
        {
          "name": "",
          "type": "uint256"
        }
      ],
      "payable": false,
      "stateMutability": "view",
      "type": "function"
    },
    {
      "constant": true,
      "inputs": [],
      "name": "getNumberOfAttendees",
      "outputs": [
        {
          "name": "",
          "type": "uint256"
        }
      ],
      "payable": false,
      "stateMutability": "view",
      "type": "function"
    },
    {
      "constant": true,
      "inputs": [
        {
          "name": "index",
          "type": "uint256"
        }
      ],
      "name": "getSpotAtIndex",
      "outputs": [
        {
          "name": "",
          "type": "address"
        }
      ],
      "payable": false,
      "stateMutability": "view",
      "type": "function"
    },
    {
      "constant": true,
      "inputs": [
        {
          "name": "sender",
          "type": "address"
        }
      ],
      "name": "spotTypeWithSender",
      "outputs": [
        {
          "name": "",
          "type": "uint8"
        }
      ],
      "payable": false,
      "stateMutability": "view",
      "type": "function"
    },
    {
      "constant": true,
      "inputs": [
        {
          "name": "attendee",
          "type": "address"
        }
      ],
      "name": "spotIsReserved",
      "outputs": [
        {
          "name": "",
          "type": "bool"
        }
      ],
      "payable": false,
      "stateMutability": "view",
      "type": "function"
    }
  ],
  "bytecode": "0x606060405234156200001057600080fd5b6040516200253138038062002531833981016040528080519060200190919080518201919060200180519060200190919080519060200190919080519060200190919080519060200190919080519060200190919080519060200190919050506000336000806101000a81548173ffffffffffffffffffffffffffffffffffffffff021916908373ffffffffffffffffffffffffffffffffffffffff16021790555033600b60006101000a81548173ffffffffffffffffffffffffffffffffffffffff021916908373ffffffffffffffffffffffffffffffffffffffff160217905550608060405190810160405280888152602001878152602001618ca089038152602001610e10890381525060036000820151816000015560208201518160010155604082015181600201556060820151816003015590505088600260006101000a81548173ffffffffffffffffffffffffffffffffffffffff021916908373ffffffffffffffffffffffffffffffffffffffff160217905550336000806101000a81548173ffffffffffffffffffffffffffffffffffffffff021916908373ffffffffffffffffffffffffffffffffffffffff1602179055508760019080519060200190620001e3929190620003f2565b50836008819055508460098190555082600a6000600160038111156200020557fe5b81526020019081526020016000208190555081600a6000600260038111156200022a57fe5b815260200190815260200160002081905550600090505b600954811015620003e357608060405190810160405280600060038111156200026657fe5b8152602001600073ffffffffffffffffffffffffffffffffffffffff168152602001600073ffffffffffffffffffffffffffffffffffffffff168152602001600073ffffffffffffffffffffffffffffffffffffffff168152506007600083815260200190815260200160002060008201518160000160006101000a81548160ff02191690836003811115620002f857fe5b021790555060208201518160000160016101000a81548173ffffffffffffffffffffffffffffffffffffffff021916908373ffffffffffffffffffffffffffffffffffffffff16021790555060408201518160010160006101000a81548173ffffffffffffffffffffffffffffffffffffffff021916908373ffffffffffffffffffffffffffffffffffffffff16021790555060608201518160020160006101000a81548173ffffffffffffffffffffffffffffffffffffffff021916908373ffffffffffffffffffffffffffffffffffffffff160217905550905050808060010191505062000241565b505050505050505050620004a1565b828054600181600116156101000203166002900490600052602060002090601f016020900481019282601f106200043557805160ff191683800117855562000466565b8280016001018555821562000466579182015b828111156200046557825182559160200191906001019062000448565b5b50905062000475919062000479565b5090565b6200049e91905b808211156200049a57600081600090555060010162000480565b5090565b90565b61208080620004b16000396000f3006060604052600436106100fc576000357c0100000000000000000000000000000000000000000000000000000000900463ffffffff1680630b4f3f3d146101015780631b3e819b1461015e57806323d9d4e9146101b657806341c0e1b514610219578063522e11771461022e578063607aeefb1461024357806371ae413d14610290578063879bee981461031e5780638da5cb5b14610379578063922861b7146103ce57806398d5fdca14610423578063a9bf14411461044c578063abfbb34914610475578063c157fc7214610498578063e0962423146104d6578063e6e83e3a14610547578063f2ad41e314610598578063f2fde38b146105c1575b600080fd5b341561010c57600080fd5b61015c600480803590602001908201803590602001908080601f016020809104026020016040519081016040528093929190818152602001838380828437820191505050505050919050506105fa565b005b341561016957600080fd5b6101b4600480803573ffffffffffffffffffffffffffffffffffffffff1690602001909190803573ffffffffffffffffffffffffffffffffffffffff169060200190919050506108f5565b005b34156101c157600080fd5b6101d76004808035906020019091905050610c59565b604051808273ffffffffffffffffffffffffffffffffffffffff1673ffffffffffffffffffffffffffffffffffffffff16815260200191505060405180910390f35b341561022457600080fd5b61022c610cef565b005b341561023957600080fd5b610241610d80565b005b61028e600480803573ffffffffffffffffffffffffffffffffffffffff1690602001909190803573ffffffffffffffffffffffffffffffffffffffff16906020019091905050610e11565b005b341561029b57600080fd5b6102a36111ab565b6040518080602001828103825283818151815260200191508051906020019080838360005b838110156102e35780820151818401526020810190506102c8565b50505050905090810190601f1680156103105780820380516001836020036101000a031916815260200191505b509250505060405180910390f35b341561032957600080fd5b610355600480803573ffffffffffffffffffffffffffffffffffffffff16906020019091905050611249565b6040518082600381111561036557fe5b60ff16815260200191505060405180910390f35b341561038457600080fd5b61038c611424565b604051808273ffffffffffffffffffffffffffffffffffffffff1673ffffffffffffffffffffffffffffffffffffffff16815260200191505060405180910390f35b34156103d957600080fd5b6103e1611449565b604051808273ffffffffffffffffffffffffffffffffffffffff1673ffffffffffffffffffffffffffffffffffffffff16815260200191505060405180910390f35b341561042e57600080fd5b61043661146f565b6040518082815260200191505060405180910390f35b341561045757600080fd5b61045f6114a2565b6040518082815260200191505060405180910390f35b341561048057600080fd5b6104966004808035906020019091905050611584565b005b34156104a357600080fd5b6104ab6115f9565b6040518085815260200184815260200183815260200182815260200194505050505060405180910390f35b34156104e157600080fd5b610531600480803590602001908201803590602001908080601f01602080910402602001604051908101604052809392919081815260200183838082843782019150505050505091905050611617565b6040518082815260200191505060405180910390f35b341561055257600080fd5b61057e600480803573ffffffffffffffffffffffffffffffffffffffff169060200190919050506117bf565b604051808215151515815260200191505060405180910390f35b34156105a357600080fd5b6105ab6117d8565b6040518082815260200191505060405180910390f35b34156105cc57600080fd5b6105f8600480803573ffffffffffffffffffffffffffffffffffffffff169060200190919050506117de565b005b6000806000809054906101000a900473ffffffffffffffffffffffffffffffffffffffff1673ffffffffffffffffffffffffffffffffffffffff163373ffffffffffffffffffffffffffffffffffffffff1614156108f0577f5c16de217ae60c4203a17684de4c416383dc8cb769cebd4bac0031f88819ae3e836040518080602001828103825283818151815260200191508051906020019080838360005b838110156106b4578082015181840152602081019050610699565b50505050905090810190601f1680156106e15780820380516001836020036101000a031916815260200191505b509250505060405180910390a1600091505b6009548210156108b65760076000838152602001908152602001600020905060008160020160009054906101000a900473ffffffffffffffffffffffffffffffffffffffff1673ffffffffffffffffffffffffffffffffffffffff161415156107de578060020160009054906101000a900473ffffffffffffffffffffffffffffffffffffffff1673ffffffffffffffffffffffffffffffffffffffff166108fc600a6000600260038111156107a557fe5b8152602001908152602001600020549081150290604051600060405180830381858888f1935050505015156107d957600080fd5b6108a9565b60008160000160019054906101000a900473ffffffffffffffffffffffffffffffffffffffff1673ffffffffffffffffffffffffffffffffffffffff161415801561089e57508060000160019054906101000a900473ffffffffffffffffffffffffffffffffffffffff1673ffffffffffffffffffffffffffffffffffffffff166108fc600a60006001600381111561087357fe5b8152602001908152602001600020549081150290604051600060405180830381858888f19350505050155b156108a857600080fd5b5b81806001019250506106f3565b6000809054906101000a900473ffffffffffffffffffffffffffffffffffffffff1673ffffffffffffffffffffffffffffffffffffffff16ff5b505050565b6108fd611fde565b600080600080600360020154421115151561091757600080fd5b61092087611955565b9450945094506001151584151514151561093957600080fd5b3373ffffffffffffffffffffffffffffffffffffffff16856040015173ffffffffffffffffffffffffffffffffffffffff1614151561097757600080fd5b6109b26000866060015173ffffffffffffffffffffffffffffffffffffffff1614156109a75785602001516109ad565b85606001515b611bc4565b9150608060405190810160405280600060038111156109cd57fe5b8152602001600073ffffffffffffffffffffffffffffffffffffffff168152602001600073ffffffffffffffffffffffffffffffffffffffff168152602001600073ffffffffffffffffffffffffffffffffffffffff168152506007600085815260200190815260200160002060008201518160000160006101000a81548160ff02191690836003811115610a5e57fe5b021790555060208201518160000160016101000a81548173ffffffffffffffffffffffffffffffffffffffff021916908373ffffffffffffffffffffffffffffffffffffffff16021790555060408201518160010160006101000a81548173ffffffffffffffffffffffffffffffffffffffff021916908373ffffffffffffffffffffffffffffffffffffffff16021790555060608201518160020160006101000a81548173ffffffffffffffffffffffffffffffffffffffff021916908373ffffffffffffffffffffffffffffffffffffffff16021790555090505060008673ffffffffffffffffffffffffffffffffffffffff161415610b605786610b62565b855b90508073ffffffffffffffffffffffffffffffffffffffff166108fc839081150290604051600060405180830381858888f193505050501515610ba457600080fd5b7f79c3b697a0a0b3c078dc41b4561f27a89d5c5f47e5488fd67a83e09229f2656885600001516003811115610bd557fe5b886000610be06114a2565b60095403604051808581526020018473ffffffffffffffffffffffffffffffffffffffff1673ffffffffffffffffffffffffffffffffffffffff1681526020018373ffffffffffffffffffffffffffffffffffffffff16815260200182815260200194505050505060405180910390a150505050505050565b60008060009054906101000a900473ffffffffffffffffffffffffffffffffffffffff1673ffffffffffffffffffffffffffffffffffffffff163373ffffffffffffffffffffffffffffffffffffffff161415610cea576007600083815260200190815260200160002060000160019054906101000a900473ffffffffffffffffffffffffffffffffffffffff1690505b919050565b6000809054906101000a900473ffffffffffffffffffffffffffffffffffffffff1673ffffffffffffffffffffffffffffffffffffffff163373ffffffffffffffffffffffffffffffffffffffff161415610d7e576000809054906101000a900473ffffffffffffffffffffffffffffffffffffffff1673ffffffffffffffffffffffffffffffffffffffff16ff5b565b6000809054906101000a900473ffffffffffffffffffffffffffffffffffffffff1673ffffffffffffffffffffffffffffffffffffffff163373ffffffffffffffffffffffffffffffffffffffff161415610e0f576000809054906101000a900473ffffffffffffffffffffffffffffffffffffffff1673ffffffffffffffffffffffffffffffffffffffff16ff5b565b610e19611fde565b6000806000808673ffffffffffffffffffffffffffffffffffffffff1614151515610e4357600080fd5b610e4d8686611bf9565b93509350935060011515831515141515610e6657600080fd5b3073ffffffffffffffffffffffffffffffffffffffff1663879bee9860008773ffffffffffffffffffffffffffffffffffffffff161415610ea75787610ea9565b865b6000604051602001526040518263ffffffff167c0100000000000000000000000000000000000000000000000000000000028152600401808273ffffffffffffffffffffffffffffffffffffffff1673ffffffffffffffffffffffffffffffffffffffff168152602001915050602060405180830381600087803b1515610f2f57600080fd5b6102c65a03f11515610f4057600080fd5b505050604051805190509050608060405190810160405280826003811115610f6457fe5b81526020018773ffffffffffffffffffffffffffffffffffffffff1681526020013373ffffffffffffffffffffffffffffffffffffffff1681526020018673ffffffffffffffffffffffffffffffffffffffff168152509350836007600084815260200190815260200160002060008201518160000160006101000a81548160ff02191690836003811115610ff557fe5b021790555060208201518160000160016101000a81548173ffffffffffffffffffffffffffffffffffffffff021916908373ffffffffffffffffffffffffffffffffffffffff16021790555060408201518160010160006101000a81548173ffffffffffffffffffffffffffffffffffffffff021916908373ffffffffffffffffffffffffffffffffffffffff16021790555060608201518160020160006101000a81548173ffffffffffffffffffffffffffffffffffffffff021916908373ffffffffffffffffffffffffffffffffffffffff1602179055509050507f212e2e0a34ba0fd17843c7e70f09aec7d3f92fc30ddd023a076b681df461a9a48460000151600381111561110357fe5b85602001518660600151856111166114a2565b60095403604051808681526020018573ffffffffffffffffffffffffffffffffffffffff1673ffffffffffffffffffffffffffffffffffffffff1681526020018473ffffffffffffffffffffffffffffffffffffffff1673ffffffffffffffffffffffffffffffffffffffff1681526020018381526020018281526020019550505050505060405180910390a1505050505050565b60018054600181600116156101000203166002900480601f0160208091040260200160405190810160405280929190818152602001828054600181600116156101000203166002900480156112415780601f1061121657610100808354040283529160200191611241565b820191906000526020600020905b81548152906001019060200180831161122457829003601f168201915b505050505081565b600080600260009054906101000a900473ffffffffffffffffffffffffffffffffffffffff1673ffffffffffffffffffffffffffffffffffffffff16638da5cb5b6000604051602001526040518163ffffffff167c0100000000000000000000000000000000000000000000000000000000028152600401602060405180830381600087803b15156112da57600080fd5b6102c65a03f115156112eb57600080fd5b505050604051805190509050600b60009054906101000a900473ffffffffffffffffffffffffffffffffffffffff1673ffffffffffffffffffffffffffffffffffffffff16638fb6bd9c82856000604051602001526040518363ffffffff167c0100000000000000000000000000000000000000000000000000000000028152600401808373ffffffffffffffffffffffffffffffffffffffff1673ffffffffffffffffffffffffffffffffffffffff1681526020018273ffffffffffffffffffffffffffffffffffffffff1673ffffffffffffffffffffffffffffffffffffffff16815260200192505050602060405180830381600087803b15156113f057600080fd5b6102c65a03f1151561140157600080fd5b5050506040518051905015611419576002915061141e565b600191505b50919050565b6000809054906101000a900473ffffffffffffffffffffffffffffffffffffffff1681565b600260009054906101000a900473ffffffffffffffffffffffffffffffffffffffff1681565b60008061147b33611249565b9050600a600082600381111561148d57fe5b81526020019081526020016000205491505090565b60008060008060009054906101000a900473ffffffffffffffffffffffffffffffffffffffff1673ffffffffffffffffffffffffffffffffffffffff163373ffffffffffffffffffffffffffffffffffffffff16141561157f5760009150600090505b60095481101561157b5760006007600083815260200190815260200160002060000160019054906101000a900473ffffffffffffffffffffffffffffffffffffffff1673ffffffffffffffffffffffffffffffffffffffff1614151561156e5781806001019250505b8080600101915050611505565b8192505b505090565b80600a60006002600381111561159657fe5b8152602001908152602001600020819055503073ffffffffffffffffffffffffffffffffffffffff167f57e73e11a1db085916572505249945930d53dd4fb13e6e32f4558b92681904ac826040518082815260200191505060405180910390a250565b60038060000154908060010154908060020154908060030154905084565b600060405180807f494e444956494455414c00000000000000000000000000000000000000000000815250600a019050604051809103902060001916826040518082805190602001908083835b6020831015156116895780518252602082019150602081019050602083039250611664565b6001836020036101000a03801982511681845116808217855250505050505090500191505060405180910390206000191614156116e757600a6000600160038111156116d157fe5b81526020019081526020016000205490506117ba565b60405180807f524553454c4c45520000000000000000000000000000000000000000000000008152506008019050604051809103902060001916826040518082805190602001908083835b6020831015156117575780518252602082019150602081019050602083039250611732565b6001836020036101000a03801982511681845116808217855250505050505090500191505060405180910390206000191614156117b557600a60006002600381111561179f57fe5b81526020019081526020016000205490506117ba565b600080fd5b919050565b6000806117cb83611955565b5091505080915050919050565b60095481565b6000809054906101000a900473ffffffffffffffffffffffffffffffffffffffff1673ffffffffffffffffffffffffffffffffffffffff163373ffffffffffffffffffffffffffffffffffffffff1614156119525760008173ffffffffffffffffffffffffffffffffffffffff161415151561185957600080fd5b7f0384899bd253d83b23daa4d29aaa2efe0563d1132b43101e9ad667235aeb951b6000809054906101000a900473ffffffffffffffffffffffffffffffffffffffff1682604051808373ffffffffffffffffffffffffffffffffffffffff1673ffffffffffffffffffffffffffffffffffffffff1681526020018273ffffffffffffffffffffffffffffffffffffffff1673ffffffffffffffffffffffffffffffffffffffff1681526020019250505060405180910390a1806000806101000a81548173ffffffffffffffffffffffffffffffffffffffff021916908373ffffffffffffffffffffffffffffffffffffffff1602179055505b50565b61195d611fde565b600080600080600091505b600954821015611b39576007600083815260200190815260200160002090508573ffffffffffffffffffffffffffffffffffffffff168160000160019054906101000a900473ffffffffffffffffffffffffffffffffffffffff1673ffffffffffffffffffffffffffffffffffffffff161415611b2c578060018382608060405190810160405290816000820160009054906101000a900460ff166003811115611a0e57fe5b6003811115611a1957fe5b81526020016000820160019054906101000a900473ffffffffffffffffffffffffffffffffffffffff1673ffffffffffffffffffffffffffffffffffffffff1673ffffffffffffffffffffffffffffffffffffffff1681526020016001820160009054906101000a900473ffffffffffffffffffffffffffffffffffffffff1673ffffffffffffffffffffffffffffffffffffffff1673ffffffffffffffffffffffffffffffffffffffff1681526020016002820160009054906101000a900473ffffffffffffffffffffffffffffffffffffffff1673ffffffffffffffffffffffffffffffffffffffff1673ffffffffffffffffffffffffffffffffffffffff16815250509250945094509450611bbb565b8180600101925050611968565b608060405190810160405280600380811115611b5157fe5b8152602001600073ffffffffffffffffffffffffffffffffffffffff168152602001600073ffffffffffffffffffffffffffffffffffffffff168152602001600073ffffffffffffffffffffffffffffffffffffffff168152506000808292508090509450945094505b50509193909250565b600080611bd083611249565b9050600a6000826003811115611be257fe5b815260200190815260200160002054915050919050565b611c01611fde565b6000806000806000611c1288611955565b5093505060001515831515141515611c2957600080fd5b600854611c34611f61565b148015611c58575060008773ffffffffffffffffffffffffffffffffffffffff1614155b15611ce357608060405190810160405280600380811115611c7557fe5b8152602001600073ffffffffffffffffffffffffffffffffffffffff168152602001600073ffffffffffffffffffffffffffffffffffffffff168152602001600073ffffffffffffffffffffffffffffffffffffffff16815250600080829250809050955095509550611f57565b600091505b600954821015611ed55760076000838152602001908152602001600020905060006003811115611d1457fe5b8160000160009054906101000a900460ff166003811115611d3157fe5b1415611ec85760008160000160019054906101000a900473ffffffffffffffffffffffffffffffffffffffff1673ffffffffffffffffffffffffffffffffffffffff161415611ec7578060018382608060405190810160405290816000820160009054906101000a900460ff166003811115611da957fe5b6003811115611db457fe5b81526020016000820160019054906101000a900473ffffffffffffffffffffffffffffffffffffffff1673ffffffffffffffffffffffffffffffffffffffff1673ffffffffffffffffffffffffffffffffffffffff1681526020016001820160009054906101000a900473ffffffffffffffffffffffffffffffffffffffff1673ffffffffffffffffffffffffffffffffffffffff1673ffffffffffffffffffffffffffffffffffffffff1681526020016002820160009054906101000a900473ffffffffffffffffffffffffffffffffffffffff1673ffffffffffffffffffffffffffffffffffffffff1673ffffffffffffffffffffffffffffffffffffffff16815250509250955095509550611f57565b5b8180600101925050611ce8565b608060405190810160405280600380811115611eed57fe5b8152602001600073ffffffffffffffffffffffffffffffffffffffff168152602001600073ffffffffffffffffffffffffffffffffffffffff168152602001600073ffffffffffffffffffffffffffffffffffffffff168152506000808292508090509550955095505b5050509250925092565b60008060008060009250600091505b600954821015611fd55760076000838152602001908152602001600020905060026003811115611f9c57fe5b8160000160009054906101000a900460ff166003811115611fb957fe5b1415611fc85782806001019350505b8180600101925050611f70565b82935050505090565b60806040519081016040528060006003811115611ff757fe5b8152602001600073ffffffffffffffffffffffffffffffffffffffff168152602001600073ffffffffffffffffffffffffffffffffffffffff168152602001600073ffffffffffffffffffffffffffffffffffffffff16815250905600a165627a7a7230582044d5481afb231aeb13d0e5c9ca5d0995af5a0c414898729121a1043c865074d10029",
  "source": "pragma solidity ^0.4.18;\nimport { Studio } from \"./Studio.sol\";\nimport { Class } from \"./Class.sol\";\nimport { Individual } from \"./Individual.sol\";\nimport \"./zeppelin/lifecycle/Killable.sol\";\n\ncontract Schedule is Killable {\n\n\tstring public instructor;\n\taddress public klass;\n\n\tstruct Dates {\n\t\tuint start;\n\t\tuint end;\n\t\tuint cancellation;\n\t\tuint purchase;\n\t}\n\n\tDates public dates;\n\n\tenum SpotType {\n\t\tAvailable,\n\t\tIndividual,\n\t\tReseller,\n\t\tUnavailable\n\t}\n\n\tstruct Spot {\n\t\tSpotType spotType;\n\t\taddress attendee;\n\t\taddress sender; //address of the contract making the external call to spotPurchase / spotCancel\n\t\taddress reseller; //optional\n\t}\n\n\tmapping (uint => Spot) spots;\n\tuint private nSpotsReseller;\n\tuint public nSpots;\n\n\tmapping(uint => uint) private price;\n\tStudio private studioContract;\n\n\tmodifier withinDeadlineCancellation() {\n\t\trequire (block.timestamp <= dates.cancellation);\n\t\t_;\n\t}\n\n\tmodifier withinDeadlinePurchase() {\n\t\trequire(block.timestamp <= dates.purchase);\n\t\t_;\n\t}\n\n\tevent Cancel(string reason);\n\tevent SpotPurchased(uint spotType, address attendee, address reseller, uint index, uint spotsAvailable);\n\tevent SpotCancelled(uint spotType, address attendee, address reseller, uint spotsAvailable);\n\tevent ResellerPriceUpdated(address indexed contractAddress, uint newPrice);\n\n\tfunction Schedule(address _class, string _instructor, uint _dateStart, uint _dateEnd, uint _nSpots, uint _nSpotsReseller, uint priceIndividual, uint priceReseller) public {\n\t\tstudioContract = Studio(msg.sender);\n\t\tdates = Dates(_dateStart, _dateEnd, _dateStart - 60 * 60 * 10, _dateStart - 60 * 60);\n\t\tklass = _class;\n\t\towner = msg.sender;\n\t\tinstructor = _instructor;\n\t\tnSpotsReseller = _nSpotsReseller;\n\t\tnSpots = _nSpots;\n\n\t\tprice[uint(SpotType.Individual)] = priceIndividual;\n\t\tprice[uint(SpotType.Reseller)] = priceReseller;\n\n\t\tfor (uint i = 0; i < nSpots; i++) {\n\t\t\tspots[i] = Spot(\n\t\t\t\tSpotType.Available,\n\t\t\t\t0x0,\n\t\t\t\t0x0,\n\t\t\t\t0x0\n\t\t\t);\n\t\t}\n\t}\n\n\tfunction spotPurchase(address attendee, address reseller) payable external {\n\t\trequire(attendee != 0x0);\n\t\t//sender is the msg.sender sent to the original calling method\n\t\tvar (spot, found, index) = spotFindPurchasable(attendee, reseller);\n\t\trequire(found == true);\n\t\tSpotType spotType = this.spotTypeWithSender(reseller != 0x0 ? reseller : attendee);\n\t\t//todo: address of reseller\n\t\tspot = Spot(spotType, attendee, msg.sender, reseller);\n\t\tspots[index] = spot;\n\t\tSpotPurchased(uint(spot.spotType), spot.attendee, spot.reseller, index, nSpots - getNumberOfAttendees());\n\t}\n\n\tfunction spotCancel(address attendee, address reseller) withinDeadlineCancellation external {\n\t\tvar (spot, found, index) = spotFindReserved(attendee);\n\t\trequire(found == true);\n\t\trequire(spot.sender == msg.sender);\n\t\tuint spotPrice = getPriceWithSender(spot.reseller != 0x0 ? spot.reseller : spot.attendee);\n\t\tspots[index] = Spot(SpotType.Available, 0x0, 0x0, 0x0);\n\t\taddress destination = reseller != 0x0 ? reseller : attendee;\n\t\tif (!destination.send(spotPrice)) {\n\t\t\trevert();\n\t\t}\n\t\tSpotCancelled(uint(spot.spotType), attendee, 0x0, nSpots - getNumberOfAttendees());\n\t}\n\n\tfunction priceResellerUpdate(uint _priceReseller) public {\n\t\tprice[uint(SpotType.Reseller)] = _priceReseller;\n\t\tResellerPriceUpdated(this, _priceReseller);\n\t}\n\n\tfunction complete() public onlyOwner {\n\t\t//class has completed. \n\t\tselfdestruct(owner);\n\t\t//todo: don't do this http://solidity.readthedocs.io/en/latest/frequently-asked-questions.html#are-mappings-iterable\n\t}\n\n\tfunction cancel(string reason) public onlyOwner {\n\t\t//studio needs to cancel this schedule. Refund all spots, notify all attendees of the reason.\n\t\tCancel(reason);\n\n\t\t//process withdrawals\n\t\tfor (uint spotIndex = 0; spotIndex < nSpots; spotIndex ++) {\n\t\t\tSpot storage spot = spots[spotIndex];\n\t\t\tif (spot.reseller != 0x0) {\n\t\t\t\tif (!spot.reseller.send(price[uint(SpotType.Reseller)])) {\n\t\t\t\t\trevert();\n\t\t\t\t}\n\t\t\t} else {\n\t\t\t\tif (spot.attendee != 0x0 && !spot.attendee.send(price[uint(SpotType.Individual)])) {\t\n\t\t\t\t\trevert();\n\t\t\t\t}\n\t\t\t}\n\t\t}\n\t\tselfdestruct(owner);\n\t}\n\n\tmodifier sentRequiredFunds() {\n\t\tSpotType spotType = spotTypeWithSender(msg.sender);\n\t\tif (msg.value == price[uint(spotType)]) {\n\t\t\t_;\n\t\t}\n\t}\n\n\tfunction getPriceWithUserType(string spotType) public view returns (uint) {\n\t\t//candidate for onlyOwner\n\t\tif (keccak256(spotType) == keccak256(\"INDIVIDUAL\")) {\n\t\t\treturn price[uint(SpotType.Individual)];\n\t\t} else if (keccak256(spotType) == keccak256(\"RESELLER\")) {\n\t\t\treturn price[uint(SpotType.Reseller)];\n\t\t}\n\t\trevert();\n\t}\n\n\tfunction getPrice() public view returns (uint) {\n\t\tSpotType spotType = spotTypeWithSender(msg.sender);\n\t\treturn price[uint(spotType)];\n\t}\n\n\tfunction getNumberOfAttendees() public onlyOwner view returns (uint) {\n\t\tuint nSpotsReserved = 0;\n\t\tfor (uint spotIndex = 0; spotIndex < nSpots; spotIndex++) {\n\t\t\tif (spots[spotIndex].attendee != 0x0) {\n\t\t\t\tnSpotsReserved ++;\n\t\t\t}\n\t\t}\n\t\treturn nSpotsReserved;\n\t}\n\n\tfunction getSpotAtIndex(uint index) onlyOwner public view returns (address) {\n\t\treturn spots[index].attendee;\n\t}\n\n\tfunction spotTypeWithSender(address sender) public view returns (SpotType) {\n\t\taddress studio = Class(klass).owner();\n\t\tif (studioContract.isAuthorizedReseller(studio, sender)) {\n\t\t\treturn SpotType.Reseller;\n\t\t} else {\n\t\t\treturn SpotType.Individual;\n\t\t}\n\t}\n\n\tfunction spotIsReserved(address attendee) public view returns (bool) {\n\t\tvar (, found, ) = spotFindReserved(attendee);\n\t\treturn found;\n\t}\n\n\tfunction getPriceWithSender(address sender) private view returns (uint) {\n\t\tSpotType spotType = spotTypeWithSender(sender);\n\t\treturn price[uint(spotType)];\t\n\t}\n\n\tfunction spotFindPurchasable(address attendee, address reseller) private view returns (Spot, bool, uint) {\n\t\tvar (, found, ) = spotFindReserved(attendee);\n\t\trequire(found == false);\n\n\t\tif (nSpotsResellerReserved() == nSpotsReseller && reseller != 0x0) {\n\t\t\treturn (Spot(SpotType.Unavailable, 0x0, 0x0, 0x0), false, 0);\n\t\t}\n\n\t\tfor (uint spotIndex = 0; spotIndex < nSpots; spotIndex++) {\n\t\t\tSpot storage spot = spots[spotIndex];\n\t\t\tif (spot.spotType == SpotType.Available) {\n\t\t\t\tif (spot.attendee == 0x0) {\n\t\t\t\t\treturn (spot, true, spotIndex);\n\t\t\t\t}\n\t\t\t}\n\t\t}\n\t\treturn (Spot(SpotType.Unavailable, 0x0, 0x0, 0x0), false, 0);\n\t}\n\n\tfunction nSpotsResellerReserved() private view returns (uint) {\n\t\tuint nSpotsResellerFound = 0;\n\t\tfor (uint spotIndex = 0; spotIndex < nSpots; spotIndex++) {\n\t\t\tSpot storage spot = spots[spotIndex];\n\t\t\tif (spot.spotType == SpotType.Reseller) {\n\t\t\t\tnSpotsResellerFound++;\n\t\t\t}\n\t\t}\n\t\treturn nSpotsResellerFound;\n\t}\n\n\tfunction spotFindReserved(address attendee) private view returns (Spot, bool, uint) {\n\t\tfor (uint spotIndex = 0; spotIndex < nSpots; spotIndex++) {\n\t\t\tSpot storage spot = spots[spotIndex];\n\t\t\tif (spot.attendee == attendee) {\n\t\t\t\t//attendee already bought a spot\n\t\t\t\treturn (spot, true, spotIndex);\n\t\t\t}\n\t\t}\n\t\treturn (Spot(SpotType.Unavailable, 0x0, 0x0, 0x0), false, 0);\n\t}\n}\n",
  "sourcePath": "/Users/eric/Development/Jumbo/contracts/Schedule.sol",
  "compiler": {
    "name": "solc",
    "version": "0.4.19+commit.c4cbbb05.Emscripten.clang"
  },
  "schemaVersion": "2.0.0",
  "updatedAt": "2018-03-27T03:20:02.031Z"
}