{
  "contractName": "Studio",
  "abi": [
    {
      "constant": true,
      "inputs": [
        {
          "name": "",
          "type": "address"
        }
      ],
      "name": "name",
      "outputs": [
        {
          "name": "",
          "type": "string"
        }
      ],
      "payable": false,
      "stateMutability": "view",
      "type": "function"
    },
    {
      "constant": true,
      "inputs": [
        {
          "name": "",
          "type": "address"
        }
      ],
      "name": "contactDetails",
      "outputs": [
        {
          "name": "",
          "type": "string"
        }
      ],
      "payable": false,
      "stateMutability": "view",
      "type": "function"
    },
    {
      "constant": true,
      "inputs": [
        {
          "name": "",
          "type": "address"
        },
        {
          "name": "",
          "type": "uint256"
        }
      ],
      "name": "classes",
      "outputs": [
        {
          "name": "",
          "type": "address"
        }
      ],
      "payable": false,
      "stateMutability": "view",
      "type": "function"
    },
    {
      "constant": false,
      "inputs": [],
      "name": "kill",
      "outputs": [],
      "payable": false,
      "stateMutability": "nonpayable",
      "type": "function"
    },
    {
      "constant": true,
      "inputs": [
        {
          "name": "",
          "type": "address"
        },
        {
          "name": "",
          "type": "uint256"
        }
      ],
      "name": "resellers",
      "outputs": [
        {
          "name": "",
          "type": "address"
        }
      ],
      "payable": false,
      "stateMutability": "view",
      "type": "function"
    },
    {
      "constant": true,
      "inputs": [
        {
          "name": "",
          "type": "address"
        },
        {
          "name": "",
          "type": "uint256"
        }
      ],
      "name": "schedules",
      "outputs": [
        {
          "name": "",
          "type": "address"
        }
      ],
      "payable": false,
      "stateMutability": "view",
      "type": "function"
    },
    {
      "constant": true,
      "inputs": [],
      "name": "owner",
      "outputs": [
        {
          "name": "",
          "type": "address"
        }
      ],
      "payable": false,
      "stateMutability": "view",
      "type": "function"
    },
    {
      "constant": true,
      "inputs": [],
      "name": "authentication",
      "outputs": [
        {
          "name": "",
          "type": "address"
        }
      ],
      "payable": false,
      "stateMutability": "view",
      "type": "function"
    },
    {
      "constant": true,
      "inputs": [],
      "name": "reseller",
      "outputs": [
        {
          "name": "",
          "type": "address"
        }
      ],
      "payable": false,
      "stateMutability": "view",
      "type": "function"
    },
    {
      "constant": false,
      "inputs": [
        {
          "name": "newOwner",
          "type": "address"
        }
      ],
      "name": "transferOwnership",
      "outputs": [],
      "payable": false,
      "stateMutability": "nonpayable",
      "type": "function"
    },
    {
      "anonymous": false,
      "inputs": [
        {
          "indexed": true,
          "name": "studio",
          "type": "address"
        },
        {
          "indexed": true,
          "name": "klass",
          "type": "address"
        },
        {
          "indexed": true,
          "name": "schedule",
          "type": "address"
        }
      ],
      "name": "ScheduleAdded",
      "type": "event"
    },
    {
      "anonymous": false,
      "inputs": [
        {
          "indexed": true,
          "name": "studio",
          "type": "address"
        },
        {
          "indexed": true,
          "name": "schedule",
          "type": "address"
        }
      ],
      "name": "ScheduleRemoved",
      "type": "event"
    },
    {
      "anonymous": false,
      "inputs": [
        {
          "indexed": true,
          "name": "studio",
          "type": "address"
        },
        {
          "indexed": true,
          "name": "klass",
          "type": "address"
        }
      ],
      "name": "ClassAdded",
      "type": "event"
    },
    {
      "anonymous": false,
      "inputs": [
        {
          "indexed": true,
          "name": "studio",
          "type": "address"
        },
        {
          "indexed": false,
          "name": "contactDetails",
          "type": "string"
        }
      ],
      "name": "ContactDetailsUpdated",
      "type": "event"
    },
    {
      "anonymous": false,
      "inputs": [
        {
          "indexed": false,
          "name": "from",
          "type": "address"
        },
        {
          "indexed": false,
          "name": "to",
          "type": "address"
        }
      ],
      "name": "OwnershipChanged",
      "type": "event"
    },
    {
      "constant": false,
      "inputs": [
        {
          "name": "_authentication",
          "type": "address"
        }
      ],
      "name": "setAuthentication",
      "outputs": [],
      "payable": false,
      "stateMutability": "nonpayable",
      "type": "function"
    },
    {
      "constant": false,
      "inputs": [
        {
          "name": "_reseller",
          "type": "address"
        }
      ],
      "name": "setReseller",
      "outputs": [],
      "payable": false,
      "stateMutability": "nonpayable",
      "type": "function"
    },
    {
      "constant": false,
      "inputs": [
        {
          "name": "_name",
          "type": "string"
        },
        {
          "name": "_description",
          "type": "string"
        }
      ],
      "name": "classCreate",
      "outputs": [],
      "payable": false,
      "stateMutability": "nonpayable",
      "type": "function"
    },
    {
      "constant": false,
      "inputs": [
        {
          "name": "class",
          "type": "address"
        },
        {
          "name": "instructor",
          "type": "string"
        },
        {
          "name": "dateStart",
          "type": "uint256"
        },
        {
          "name": "dateEnd",
          "type": "uint256"
        },
        {
          "name": "nSpots",
          "type": "uint256"
        },
        {
          "name": "nSpotsReseller",
          "type": "uint256"
        },
        {
          "name": "priceIndividual",
          "type": "uint256"
        },
        {
          "name": "priceReseller",
          "type": "uint256"
        }
      ],
      "name": "scheduleCreate",
      "outputs": [],
      "payable": false,
      "stateMutability": "nonpayable",
      "type": "function"
    },
    {
      "constant": false,
      "inputs": [
        {
          "name": "_name",
          "type": "string"
        }
      ],
      "name": "signup",
      "outputs": [],
      "payable": false,
      "stateMutability": "nonpayable",
      "type": "function"
    },
    {
      "constant": true,
      "inputs": [
        {
          "name": "user",
          "type": "address"
        }
      ],
      "name": "userExists",
      "outputs": [
        {
          "name": "",
          "type": "bool"
        }
      ],
      "payable": false,
      "stateMutability": "view",
      "type": "function"
    },
    {
      "constant": true,
      "inputs": [
        {
          "name": "studio",
          "type": "address"
        }
      ],
      "name": "getName",
      "outputs": [
        {
          "name": "",
          "type": "string"
        }
      ],
      "payable": false,
      "stateMutability": "view",
      "type": "function"
    },
    {
      "constant": true,
      "inputs": [
        {
          "name": "studio",
          "type": "address"
        }
      ],
      "name": "getContactDetails",
      "outputs": [
        {
          "name": "",
          "type": "string"
        }
      ],
      "payable": false,
      "stateMutability": "view",
      "type": "function"
    },
    {
      "constant": false,
      "inputs": [
        {
          "name": "_contactDetails",
          "type": "string"
        }
      ],
      "name": "updateContactDetails",
      "outputs": [],
      "payable": false,
      "stateMutability": "nonpayable",
      "type": "function"
    },
    {
      "constant": true,
      "inputs": [
        {
          "name": "studio",
          "type": "address"
        }
      ],
      "name": "classesCount",
      "outputs": [
        {
          "name": "",
          "type": "uint256"
        }
      ],
      "payable": false,
      "stateMutability": "view",
      "type": "function"
    },
    {
      "constant": true,
      "inputs": [
        {
          "name": "studio",
          "type": "address"
        },
        {
          "name": "index",
          "type": "uint256"
        }
      ],
      "name": "classAtIndex",
      "outputs": [
        {
          "name": "",
          "type": "address"
        }
      ],
      "payable": false,
      "stateMutability": "view",
      "type": "function"
    },
    {
      "constant": true,
      "inputs": [
        {
          "name": "studio",
          "type": "address"
        }
      ],
      "name": "schedulesCount",
      "outputs": [
        {
          "name": "",
          "type": "uint256"
        }
      ],
      "payable": false,
      "stateMutability": "view",
      "type": "function"
    },
    {
      "constant": true,
      "inputs": [
        {
          "name": "studio",
          "type": "address"
        },
        {
          "name": "index",
          "type": "uint256"
        }
      ],
      "name": "scheduleAtIndex",
      "outputs": [
        {
          "name": "",
          "type": "address"
        }
      ],
      "payable": false,
      "stateMutability": "view",
      "type": "function"
    },
    {
      "constant": false,
      "inputs": [
        {
          "name": "schedule",
          "type": "address"
        }
      ],
      "name": "scheduleRemoved",
      "outputs": [],
      "payable": false,
      "stateMutability": "nonpayable",
      "type": "function"
    },
    {
      "constant": true,
      "inputs": [],
      "name": "resellersCount",
      "outputs": [
        {
          "name": "",
          "type": "uint256"
        }
      ],
      "payable": false,
      "stateMutability": "view",
      "type": "function"
    },
    {
      "constant": true,
      "inputs": [
        {
          "name": "index",
          "type": "uint256"
        }
      ],
      "name": "resellerAtIndex",
      "outputs": [
        {
          "name": "",
          "type": "address"
        }
      ],
      "payable": false,
      "stateMutability": "view",
      "type": "function"
    },
    {
      "constant": false,
      "inputs": [
        {
          "name": "_reseller",
          "type": "address"
        }
      ],
      "name": "addReseller",
      "outputs": [],
      "payable": false,
      "stateMutability": "nonpayable",
      "type": "function"
    },
    {
      "constant": false,
      "inputs": [
        {
          "name": "_reseller",
          "type": "address"
        }
      ],
      "name": "removeReseller",
      "outputs": [
        {
          "name": "",
          "type": "bool"
        }
      ],
      "payable": false,
      "stateMutability": "nonpayable",
      "type": "function"
    },
    {
      "constant": true,
      "inputs": [
        {
          "name": "_studio",
          "type": "address"
        },
        {
          "name": "_reseller",
          "type": "address"
        }
      ],
      "name": "isAuthorizedReseller",
      "outputs": [
        {
          "name": "",
          "type": "bool"
        }
      ],
      "payable": false,
      "stateMutability": "view",
      "type": "function"
    }
  ],
  "bytecode": "0x6060604052336000806101000a81548173ffffffffffffffffffffffffffffffffffffffff021916908373ffffffffffffffffffffffffffffffffffffffff160217905550612f69806100536000396000f300606060405260043610610175576000357c0100000000000000000000000000000000000000000000000000000000900463ffffffff168063019848921461017a5780630202e6c51461022c5780630e666e49146102895780631482024f146102da57806320b276dc1461038c5780632aec8dc1146103c55780632f45fbe114610412578063407a930d1461049457806341c0e1b5146104f757806344da49b71461050c5780634af076d81461058e578063519c6377146105c757806353bc973e146106245780635e00eac61461065d5780635fd4b08a146106df5780636291fdcb1461079157806366c4999a14610831578063854e96821461087e5780638da5cb5b146109005780638fb6bd9c1461095557806392f02714146109c55780639b2e27d7146109ee5780639d06402014610aa0578063b996c17014610af1578063c3ffd4e814610b46578063c74d97cd14610bc8578063cf3dcea614610c1d578063d65f74cb14610ccf578063f2fde38b14610d08575b600080fd5b341561018557600080fd5b6101b1600480803573ffffffffffffffffffffffffffffffffffffffff16906020019091905050610d41565b6040518080602001828103825283818151815260200191508051906020019080838360005b838110156101f15780820151818401526020810190506101d6565b50505050905090810190601f16801561021e5780820380516001836020036101000a031916815260200191505b509250505060405180910390f35b341561023757600080fd5b610287600480803590602001908201803590602001908080601f01602080910402602001604051908101604052809392919081815260200183838082843782019150505050505091905050610df1565b005b341561029457600080fd5b6102c0600480803573ffffffffffffffffffffffffffffffffffffffff16906020019091905050610fb8565b604051808215151515815260200191505060405180910390f35b34156102e557600080fd5b610311600480803573ffffffffffffffffffffffffffffffffffffffff16906020019091905050611017565b6040518080602001828103825283818151815260200191508051906020019080838360005b83811015610351578082015181840152602081019050610336565b50505050905090810190601f16801561037e5780820380516001836020036101000a031916815260200191505b509250505060405180910390f35b341561039757600080fd5b6103c3600480803573ffffffffffffffffffffffffffffffffffffffff169060200190919050506110c7565b005b34156103d057600080fd5b6103fc600480803573ffffffffffffffffffffffffffffffffffffffff16906020019091905050611161565b6040518082815260200191505060405180910390f35b341561041d57600080fd5b610452600480803573ffffffffffffffffffffffffffffffffffffffff169060200190919080359060200190919050506111ad565b604051808273ffffffffffffffffffffffffffffffffffffffff1673ffffffffffffffffffffffffffffffffffffffff16815260200191505060405180910390f35b341561049f57600080fd5b6104b560048080359060200190919050506111fb565b604051808273ffffffffffffffffffffffffffffffffffffffff1673ffffffffffffffffffffffffffffffffffffffff16815260200191505060405180910390f35b341561050257600080fd5b61050a6112dd565b005b341561051757600080fd5b61054c600480803573ffffffffffffffffffffffffffffffffffffffff1690602001909190803590602001909190505061136e565b604051808273ffffffffffffffffffffffffffffffffffffffff1673ffffffffffffffffffffffffffffffffffffffff16815260200191505060405180910390f35b341561059957600080fd5b6105c5600480803573ffffffffffffffffffffffffffffffffffffffff169060200190919050506113f0565b005b34156105d257600080fd5b610622600480803590602001908201803590602001908080601f01602080910402602001604051908101604052809392919081815260200183838082843782019150505050505091905050611615565b005b341561062f57600080fd5b61065b600480803573ffffffffffffffffffffffffffffffffffffffff16906020019091905050611841565b005b341561066857600080fd5b61069d600480803573ffffffffffffffffffffffffffffffffffffffff169060200190919080359060200190919050506118db565b604051808273ffffffffffffffffffffffffffffffffffffffff1673ffffffffffffffffffffffffffffffffffffffff16815260200191505060405180910390f35b34156106ea57600080fd5b610716600480803573ffffffffffffffffffffffffffffffffffffffff16906020019091905050611929565b6040518080602001828103825283818151815260200191508051906020019080838360005b8381101561075657808201518184015260208101905061073b565b50505050905090810190601f1680156107835780820380516001836020036101000a031916815260200191505b509250505060405180910390f35b341561079c57600080fd5b61082f600480803590602001908201803590602001908080601f0160208091040260200160405190810160405280939291908181526020018383808284378201915050505050509190803590602001908201803590602001908080601f01602080910402602001604051908101604052809392919081815260200183838082843782019150505050505091905050611a10565b005b341561083c57600080fd5b610868600480803573ffffffffffffffffffffffffffffffffffffffff16906020019091905050611ca7565b6040518082815260200191505060405180910390f35b341561088957600080fd5b6108be600480803573ffffffffffffffffffffffffffffffffffffffff16906020019091908035906020019091905050611cf3565b604051808273ffffffffffffffffffffffffffffffffffffffff1673ffffffffffffffffffffffffffffffffffffffff16815260200191505060405180910390f35b341561090b57600080fd5b610913611d41565b604051808273ffffffffffffffffffffffffffffffffffffffff1673ffffffffffffffffffffffffffffffffffffffff16815260200191505060405180910390f35b341561096057600080fd5b6109ab600480803573ffffffffffffffffffffffffffffffffffffffff1690602001909190803573ffffffffffffffffffffffffffffffffffffffff16906020019091905050611d66565b604051808215151515815260200191505060405180910390f35b34156109d057600080fd5b6109d8611f69565b6040518082815260200191505060405180910390f35b34156109f957600080fd5b610a9e600480803573ffffffffffffffffffffffffffffffffffffffff1690602001909190803590602001908201803590602001908080601f01602080910402602001604051908101604052809392919081815260200183838082843782019150505050505091908035906020019091908035906020019091908035906020019091908035906020019091908035906020019091908035906020019091905050612014565b005b3415610aab57600080fd5b610ad7600480803573ffffffffffffffffffffffffffffffffffffffff169060200190919050506122bf565b604051808215151515815260200191505060405180910390f35b3415610afc57600080fd5b610b046126c3565b604051808273ffffffffffffffffffffffffffffffffffffffff1673ffffffffffffffffffffffffffffffffffffffff16815260200191505060405180910390f35b3415610b5157600080fd5b610b86600480803573ffffffffffffffffffffffffffffffffffffffff169060200190919080359060200190919050506126e9565b604051808273ffffffffffffffffffffffffffffffffffffffff1673ffffffffffffffffffffffffffffffffffffffff16815260200191505060405180910390f35b3415610bd357600080fd5b610bdb61276b565b604051808273ffffffffffffffffffffffffffffffffffffffff1673ffffffffffffffffffffffffffffffffffffffff16815260200191505060405180910390f35b3415610c2857600080fd5b610c54600480803573ffffffffffffffffffffffffffffffffffffffff16906020019091905050612791565b6040518080602001828103825283818151815260200191508051906020019080838360005b83811015610c94578082015181840152602081019050610c79565b50505050905090810190601f168015610cc15780820380516001836020036101000a031916815260200191505b509250505060405180910390f35b3415610cda57600080fd5b610d06600480803573ffffffffffffffffffffffffffffffffffffffff16906020019091905050612878565b005b3415610d1357600080fd5b610d3f600480803573ffffffffffffffffffffffffffffffffffffffff16906020019091905050612cb5565b005b60016020528060005260406000206000915090508054600181600116156101000203166002900480601f016020809104026020016040519081016040528092919081815260200182805460018160011615610100020316600290048015610de95780601f10610dbe57610100808354040283529160200191610de9565b820191906000526020600020905b815481529060010190602001808311610dcc57829003601f168201915b505050505081565b6000600160003373ffffffffffffffffffffffffffffffffffffffff1673ffffffffffffffffffffffffffffffffffffffff168152602001908152602001600020805460018160011615610100020316600290049050111515610e5357600080fd5b80600260003373ffffffffffffffffffffffffffffffffffffffff1673ffffffffffffffffffffffffffffffffffffffff1681526020019081526020016000209080519060200190610ea6929190612e2c565b503373ffffffffffffffffffffffffffffffffffffffff167f6f6e7970dcc1543329dca9c68dccf616fdfa1c2d2ff4e9fc9e4ee462427096b6600260003373ffffffffffffffffffffffffffffffffffffffff1673ffffffffffffffffffffffffffffffffffffffff1681526020019081526020016000206040518080602001828103825283818154600181600116156101000203166002900481526020019150805460018160011615610100020316600290048015610fa75780601f10610f7c57610100808354040283529160200191610fa7565b820191906000526020600020905b815481529060010190602001808311610f8a57829003601f168201915b50509250505060405180910390a250565b600080600160008473ffffffffffffffffffffffffffffffffffffffff1673ffffffffffffffffffffffffffffffffffffffff168152602001908152602001600020805460018160011615610100020316600290049050119050919050565b60026020528060005260406000206000915090508054600181600116156101000203166002900480601f0160208091040260200160405190810160405280929190818152602001828054600181600116156101000203166002900480156110bf5780601f10611094576101008083540402835291602001916110bf565b820191906000526020600020905b8154815290600101906020018083116110a257829003601f168201915b505050505081565b6000809054906101000a900473ffffffffffffffffffffffffffffffffffffffff1673ffffffffffffffffffffffffffffffffffffffff163373ffffffffffffffffffffffffffffffffffffffff16141561115e5780600760006101000a81548173ffffffffffffffffffffffffffffffffffffffff021916908373ffffffffffffffffffffffffffffffffffffffff1602179055505b50565b6000600560008373ffffffffffffffffffffffffffffffffffffffff1673ffffffffffffffffffffffffffffffffffffffff168152602001908152602001600020805490509050919050565b6005602052816000526040600020818154811015156111c857fe5b90600052602060002090016000915091509054906101000a900473ffffffffffffffffffffffffffffffffffffffff1681565b600080600160003373ffffffffffffffffffffffffffffffffffffffff1673ffffffffffffffffffffffffffffffffffffffff16815260200190815260200160002080546001816001161561010002031660029004905011151561125e57600080fd5b600360003373ffffffffffffffffffffffffffffffffffffffff1673ffffffffffffffffffffffffffffffffffffffff168152602001908152602001600020828154811015156112aa57fe5b906000526020600020900160009054906101000a900473ffffffffffffffffffffffffffffffffffffffff169050919050565b6000809054906101000a900473ffffffffffffffffffffffffffffffffffffffff1673ffffffffffffffffffffffffffffffffffffffff163373ffffffffffffffffffffffffffffffffffffffff16141561136c576000809054906101000a900473ffffffffffffffffffffffffffffffffffffffff1673ffffffffffffffffffffffffffffffffffffffff16ff5b565b6000600560008473ffffffffffffffffffffffffffffffffffffffff1673ffffffffffffffffffffffffffffffffffffffff168152602001908152602001600020828154811015156113bc57fe5b906000526020600020900160009054906101000a900473ffffffffffffffffffffffffffffffffffffffff16905092915050565b6000600160003373ffffffffffffffffffffffffffffffffffffffff1673ffffffffffffffffffffffffffffffffffffffff16815260200190815260200160002080546001816001161561010002031660029004905011151561145257600080fd5b600015156114603383611d66565b151514151561146e57600080fd5b600360003373ffffffffffffffffffffffffffffffffffffffff1673ffffffffffffffffffffffffffffffffffffffff16815260200190815260200160002080548060010182816114bf9190612eac565b9160005260206000209001600083909190916101000a81548173ffffffffffffffffffffffffffffffffffffffff021916908373ffffffffffffffffffffffffffffffffffffffff16021790555050600760009054906101000a900473ffffffffffffffffffffffffffffffffffffffff1673ffffffffffffffffffffffffffffffffffffffff1663dca7484833836040518363ffffffff167c0100000000000000000000000000000000000000000000000000000000028152600401808373ffffffffffffffffffffffffffffffffffffffff1673ffffffffffffffffffffffffffffffffffffffff1681526020018273ffffffffffffffffffffffffffffffffffffffff1673ffffffffffffffffffffffffffffffffffffffff16815260200192505050600060405180830381600087803b15156115fe57600080fd5b6102c65a03f1151561160f57600080fd5b50505050565b604051806000019050604051809103902060001916600160003373ffffffffffffffffffffffffffffffffffffffff1673ffffffffffffffffffffffffffffffffffffffff16815260200190815260200160002060405180828054600181600116156101000203166002900480156116c45780601f106116a25761010080835404028352918201916116c4565b820191906000526020600020905b8154815290600101906020018083116116b0575b50509150506040518091039020600019161415156116e157600080fd5b80600160003373ffffffffffffffffffffffffffffffffffffffff1673ffffffffffffffffffffffffffffffffffffffff1681526020019081526020016000209080519060200190611734929190612e2c565b50600660009054906101000a900473ffffffffffffffffffffffffffffffffffffffff1673ffffffffffffffffffffffffffffffffffffffff16631e88f7dc336040518263ffffffff167c0100000000000000000000000000000000000000000000000000000000028152600401808273ffffffffffffffffffffffffffffffffffffffff1673ffffffffffffffffffffffffffffffffffffffff16815260200180602001828103825260068152602001807f53545544494f000000000000000000000000000000000000000000000000000081525060200192505050600060405180830381600087803b151561182a57600080fd5b6102c65a03f1151561183b57600080fd5b50505050565b6000809054906101000a900473ffffffffffffffffffffffffffffffffffffffff1673ffffffffffffffffffffffffffffffffffffffff163373ffffffffffffffffffffffffffffffffffffffff1614156118d85780600660006101000a81548173ffffffffffffffffffffffffffffffffffffffff021916908373ffffffffffffffffffffffffffffffffffffffff1602179055505b50565b6003602052816000526040600020818154811015156118f657fe5b90600052602060002090016000915091509054906101000a900473ffffffffffffffffffffffffffffffffffffffff1681565b611931612ed8565b600160008373ffffffffffffffffffffffffffffffffffffffff1673ffffffffffffffffffffffffffffffffffffffff1681526020019081526020016000208054600181600116156101000203166002900480601f016020809104026020016040519081016040528092919081815260200182805460018160011615610100020316600290048015611a045780601f106119d957610100808354040283529160200191611a04565b820191906000526020600020905b8154815290600101906020018083116119e757829003601f168201915b50505050509050919050565b600073__ClassFactory__________________________63796d58363385856000604051602001526040518463ffffffff167c0100000000000000000000000000000000000000000000000000000000028152600401808473ffffffffffffffffffffffffffffffffffffffff1673ffffffffffffffffffffffffffffffffffffffff1681526020018060200180602001838103835285818151815260200191508051906020019080838360005b83811015611ad9578082015181840152602081019050611abe565b50505050905090810190601f168015611b065780820380516001836020036101000a031916815260200191505b50838103825284818151815260200191508051906020019080838360005b83811015611b3f578082015181840152602081019050611b24565b50505050905090810190601f168015611b6c5780820380516001836020036101000a031916815260200191505b509550505050505060206040518083038186803b1515611b8b57600080fd5b6102c65a03f41515611b9c57600080fd5b505050604051805190509050600560003373ffffffffffffffffffffffffffffffffffffffff1673ffffffffffffffffffffffffffffffffffffffff1681526020019081526020016000208054806001018281611bf99190612eac565b9160005260206000209001600083909190916101000a81548173ffffffffffffffffffffffffffffffffffffffff021916908373ffffffffffffffffffffffffffffffffffffffff160217905550508073ffffffffffffffffffffffffffffffffffffffff163373ffffffffffffffffffffffffffffffffffffffff167f8c0045509cf2ef7cc886a6df571bd2ce5d2a5bdf1fe86a07f2f58dbe53ec623260405160405180910390a3505050565b6000600460008373ffffffffffffffffffffffffffffffffffffffff1673ffffffffffffffffffffffffffffffffffffffff168152602001908152602001600020805490509050919050565b600460205281600052604060002081815481101515611d0e57fe5b90600052602060002090016000915091509054906101000a900473ffffffffffffffffffffffffffffffffffffffff1681565b6000809054906101000a900473ffffffffffffffffffffffffffffffffffffffff1681565b600073__Array_________________________________635ffce20a6000604051602001526040518163ffffffff167c010000000000000000000000000000000000000000000000000000000002815260040160206040518083038186803b1515611dd057600080fd5b6102c65a03f41515611de157600080fd5b5050506040518051905073__Array_________________________________633da80d66600360008773ffffffffffffffffffffffffffffffffffffffff1673ffffffffffffffffffffffffffffffffffffffff168152602001908152602001600020856000604051602001526040518363ffffffff167c010000000000000000000000000000000000000000000000000000000002815260040180806020018373ffffffffffffffffffffffffffffffffffffffff1673ffffffffffffffffffffffffffffffffffffffff1681526020018281038252848181548152602001915080548015611f2657602002820191906000526020600020905b8160009054906101000a900473ffffffffffffffffffffffffffffffffffffffff1673ffffffffffffffffffffffffffffffffffffffff1681526020019060010190808311611edc575b5050935050505060206040518083038186803b1515611f4457600080fd5b6102c65a03f41515611f5557600080fd5b505050604051805190501415905092915050565b600080600160003373ffffffffffffffffffffffffffffffffffffffff1673ffffffffffffffffffffffffffffffffffffffff168152602001908152602001600020805460018160011615610100020316600290049050111515611fcc57600080fd5b600360003373ffffffffffffffffffffffffffffffffffffffff1673ffffffffffffffffffffffffffffffffffffffff16815260200190815260200160002080549050905090565b600073__ScheduleFactory_______________________63cd5be0ce338b8b8b8b8b8b8b8b6000604051602001526040518a63ffffffff167c0100000000000000000000000000000000000000000000000000000000028152600401808a73ffffffffffffffffffffffffffffffffffffffff1673ffffffffffffffffffffffffffffffffffffffff1681526020018973ffffffffffffffffffffffffffffffffffffffff1673ffffffffffffffffffffffffffffffffffffffff16815260200180602001888152602001878152602001868152602001858152602001848152602001838152602001828103825289818151815260200191508051906020019080838360005b8381101561213557808201518184015260208101905061211a565b50505050905090810190601f1680156121625780820380516001836020036101000a031916815260200191505b509a505050505050505050505060206040518083038186803b151561218657600080fd5b6102c65a03f4151561219757600080fd5b505050604051805190509050600460003373ffffffffffffffffffffffffffffffffffffffff1673ffffffffffffffffffffffffffffffffffffffff16815260200190815260200160002080548060010182816121f49190612eac565b9160005260206000209001600083909190916101000a81548173ffffffffffffffffffffffffffffffffffffffff021916908373ffffffffffffffffffffffffffffffffffffffff160217905550508073ffffffffffffffffffffffffffffffffffffffff168973ffffffffffffffffffffffffffffffffffffffff163373ffffffffffffffffffffffffffffffffffffffff167fef0c1e318454e430e431e459245c7b01d3e3a566efc1fbbeff17628e56e6c27c60405160405180910390a4505050505050505050565b6000806000600160003373ffffffffffffffffffffffffffffffffffffffff1673ffffffffffffffffffffffffffffffffffffffff16815260200190815260200160002080546001816001161561010002031660029004905011151561232457600080fd5b61232e3384611d66565b151561233657fe5b73__Array_________________________________633da80d66600360003373ffffffffffffffffffffffffffffffffffffffff1673ffffffffffffffffffffffffffffffffffffffff168152602001908152602001600020856000604051602001526040518363ffffffff167c010000000000000000000000000000000000000000000000000000000002815260040180806020018373ffffffffffffffffffffffffffffffffffffffff1673ffffffffffffffffffffffffffffffffffffffff168152602001828103825284818154815260200191508054801561247157602002820191906000526020600020905b8160009054906101000a900473ffffffffffffffffffffffffffffffffffffffff1673ffffffffffffffffffffffffffffffffffffffff1681526020019060010190808311612427575b5050935050505060206040518083038186803b151561248f57600080fd5b6102c65a03f415156124a057600080fd5b50505060405180519050905060008112151561263557600360003373ffffffffffffffffffffffffffffffffffffffff1673ffffffffffffffffffffffffffffffffffffffff1681526020019081526020016000208181548110151561250257fe5b906000526020600020900160006101000a81549073ffffffffffffffffffffffffffffffffffffffff0219169055600760009054906101000a900473ffffffffffffffffffffffffffffffffffffffff1673ffffffffffffffffffffffffffffffffffffffff1663a53522ce33856040518363ffffffff167c0100000000000000000000000000000000000000000000000000000000028152600401808373ffffffffffffffffffffffffffffffffffffffff1673ffffffffffffffffffffffffffffffffffffffff1681526020018273ffffffffffffffffffffffffffffffffffffffff1673ffffffffffffffffffffffffffffffffffffffff16815260200192505050600060405180830381600087803b151561262057600080fd5b6102c65a03f1151561263157600080fd5b5050505b73__Array_________________________________635ffce20a6000604051602001526040518163ffffffff167c010000000000000000000000000000000000000000000000000000000002815260040160206040518083038186803b151561269d57600080fd5b6102c65a03f415156126ae57600080fd5b50505060405180519050811415915050919050565b600660009054906101000a900473ffffffffffffffffffffffffffffffffffffffff1681565b6000600460008473ffffffffffffffffffffffffffffffffffffffff1673ffffffffffffffffffffffffffffffffffffffff1681526020019081526020016000208281548110151561273757fe5b906000526020600020900160009054906101000a900473ffffffffffffffffffffffffffffffffffffffff16905092915050565b600760009054906101000a900473ffffffffffffffffffffffffffffffffffffffff1681565b612799612ed8565b600260008373ffffffffffffffffffffffffffffffffffffffff1673ffffffffffffffffffffffffffffffffffffffff1681526020019081526020016000208054600181600116156101000203166002900480601f01602080910402602001604051908101604052809291908181526020018280546001816001161561010002031660029004801561286c5780601f106128415761010080835404028352916020019161286c565b820191906000526020600020905b81548152906001019060200180831161284f57829003601f168201915b50505050509050919050565b600080600160003373ffffffffffffffffffffffffffffffffffffffff1673ffffffffffffffffffffffffffffffffffffffff1681526020019081526020016000208054600181600116156101000203166002900490501115156128db57600080fd5b600090505b600460003373ffffffffffffffffffffffffffffffffffffffff1673ffffffffffffffffffffffffffffffffffffffff16815260200190815260200160002080549050811015612cb1578173ffffffffffffffffffffffffffffffffffffffff16600460003373ffffffffffffffffffffffffffffffffffffffff1673ffffffffffffffffffffffffffffffffffffffff1681526020019081526020016000208281548110151561298d57fe5b906000526020600020900160009054906101000a900473ffffffffffffffffffffffffffffffffffffffff1673ffffffffffffffffffffffffffffffffffffffff161415612ca4576001600460003373ffffffffffffffffffffffffffffffffffffffff1673ffffffffffffffffffffffffffffffffffffffff1681526020019081526020016000208054905003811015612b3357600460003373ffffffffffffffffffffffffffffffffffffffff1673ffffffffffffffffffffffffffffffffffffffff16815260200190815260200160002060018201815481101515612a7157fe5b906000526020600020900160009054906101000a900473ffffffffffffffffffffffffffffffffffffffff16600460003373ffffffffffffffffffffffffffffffffffffffff1673ffffffffffffffffffffffffffffffffffffffff16815260200190815260200160002082815481101515612ae957fe5b906000526020600020900160006101000a81548173ffffffffffffffffffffffffffffffffffffffff021916908373ffffffffffffffffffffffffffffffffffffffff1602179055505b600460003373ffffffffffffffffffffffffffffffffffffffff1673ffffffffffffffffffffffffffffffffffffffff1681526020019081526020016000206001600460003373ffffffffffffffffffffffffffffffffffffffff1673ffffffffffffffffffffffffffffffffffffffff1681526020019081526020016000208054905003815481101515612bc457fe5b906000526020600020900160006101000a81549073ffffffffffffffffffffffffffffffffffffffff0219169055600460003373ffffffffffffffffffffffffffffffffffffffff1673ffffffffffffffffffffffffffffffffffffffff168152602001908152602001600020805480919060019003612c449190612eec565b508173ffffffffffffffffffffffffffffffffffffffff163373ffffffffffffffffffffffffffffffffffffffff167f9ad73e62e8bc6fd3ec6373e955999d3641150a6ccb7a1308376dd8c2068a001c60405160405180910390a3612cb1565b80806001019150506128e0565b5050565b6000809054906101000a900473ffffffffffffffffffffffffffffffffffffffff1673ffffffffffffffffffffffffffffffffffffffff163373ffffffffffffffffffffffffffffffffffffffff161415612e295760008173ffffffffffffffffffffffffffffffffffffffff1614151515612d3057600080fd5b7f0384899bd253d83b23daa4d29aaa2efe0563d1132b43101e9ad667235aeb951b6000809054906101000a900473ffffffffffffffffffffffffffffffffffffffff1682604051808373ffffffffffffffffffffffffffffffffffffffff1673ffffffffffffffffffffffffffffffffffffffff1681526020018273ffffffffffffffffffffffffffffffffffffffff1673ffffffffffffffffffffffffffffffffffffffff1681526020019250505060405180910390a1806000806101000a81548173ffffffffffffffffffffffffffffffffffffffff021916908373ffffffffffffffffffffffffffffffffffffffff1602179055505b50565b828054600181600116156101000203166002900490600052602060002090601f016020900481019282601f10612e6d57805160ff1916838001178555612e9b565b82800160010185558215612e9b579182015b82811115612e9a578251825591602001919060010190612e7f565b5b509050612ea89190612f18565b5090565b815481835581811511612ed357818360005260206000209182019101612ed29190612f18565b5b505050565b602060405190810160405280600081525090565b815481835581811511612f1357818360005260206000209182019101612f129190612f18565b5b505050565b612f3a91905b80821115612f36576000816000905550600101612f1e565b5090565b905600a165627a7a72305820082af33ca4304a349b5d2b1f7921d19f681216e311aba023e752ac232db513e80029",
  "source": "pragma solidity ^0.4.18;\nimport \"./zeppelin/lifecycle/Killable.sol\";\nimport { Authentication } from \"./Authentication.sol\";\nimport { Class } from \"./Class.sol\";\nimport { Schedule } from \"./Schedule.sol\";\nimport { Reseller } from \"./Reseller.sol\";\nimport { ScheduleFactory } from \"./ScheduleFactory.sol\";\nimport { ClassFactory } from \"./ClassFactory.sol\";\nimport { Array } from \"./Array.sol\";\n\ncontract Studio is Killable {\n    \n    mapping(address => string) public name;\n    mapping(address => string) public contactDetails;\n    mapping(address => address[]) public resellers;\n    mapping(address => address[]) public schedules;\n    mapping(address => address[]) public classes;\n    address public authentication;\n    address public reseller;\n\n    event ScheduleAdded(address indexed studio, address indexed klass, address indexed schedule);\n    event ScheduleRemoved(address indexed studio, address indexed schedule);\n    event ClassAdded(address indexed studio, address indexed klass);\n    event ContactDetailsUpdated(address indexed studio, string contactDetails);\n    \n    modifier authenticated() {\n        require(bytes(name[msg.sender]).length > 0);\n        _;\n    }\n\n    function setAuthentication(address _authentication) public onlyOwner {\n        authentication = _authentication;\n    }\n\n    function setReseller(address _reseller) public onlyOwner {\n        reseller = _reseller;\n    }\n\n    function classCreate(string _name, string _description) public {\n        address class = ClassFactory.create(msg.sender, _name, _description);\n        classes[msg.sender].push(class);\n        ClassAdded(msg.sender, address(class));\n    }\n\n    function scheduleCreate(address class, string instructor, uint dateStart, uint dateEnd, uint nSpots, uint nSpotsReseller, uint priceIndividual, uint priceReseller) public {\n        address schedule = ScheduleFactory.create(msg.sender, class, instructor, dateStart, dateEnd, nSpots, nSpotsReseller, priceIndividual, priceReseller);\n        schedules[msg.sender].push(schedule);\n        ScheduleAdded(msg.sender, class, schedule);\n    }\n\n    function signup(string _name) public {\n        require(keccak256(name[msg.sender]) == keccak256(\"\"));\n        name[msg.sender] = _name;\n        Authentication(authentication).signup(msg.sender, \"STUDIO\");\n    }\n\n    function userExists(address user) public view returns (bool) {\n        return bytes(name[user]).length > 0;\n    }\n\n    function getName(address studio) public view returns (string) {\n        return name[studio];\n    }\n\n    function getContactDetails(address studio) public view returns (string) {\n        return contactDetails[studio];\n    }\n\n    function updateContactDetails(string _contactDetails) authenticated public {\n        contactDetails[msg.sender] = _contactDetails;\n        ContactDetailsUpdated(msg.sender, contactDetails[msg.sender]);\n    }\n\n    function classesCount(address studio) public view returns (uint) {\n        return classes[studio].length;\n    }\n\n    function classAtIndex(address studio, uint index) public view returns (address) {\n        return classes[studio][index];\n    }\n\n    function schedulesCount(address studio) public view returns (uint) {\n        return schedules[studio].length;\n    }\n\n    function scheduleAtIndex(address studio, uint index) public view returns (address) {\n        return schedules[studio][index];\n    }\n\n    function scheduleRemoved(address schedule) public authenticated {\n        for (uint i = 0; i < schedules[msg.sender].length; i++) {\n            if (schedules[msg.sender][i] == schedule) {\n                if (i < schedules[msg.sender].length - 1) {\n                    schedules[msg.sender][i] = schedules[msg.sender][i+1];\n                }\n                delete schedules[msg.sender][schedules[msg.sender].length - 1];\n                schedules[msg.sender].length--;\n                ScheduleRemoved(msg.sender, schedule);\n                break;\n            }\n        }\n    }\n\n    function resellersCount() authenticated public view returns (uint) {\n        return resellers[msg.sender].length;\n    }\n\n    function resellerAtIndex(uint index) authenticated public view returns (address) {\n        return resellers[msg.sender][index];\n    }\n\n    function addReseller(address _reseller) public authenticated {\n        require(isAuthorizedReseller(msg.sender, _reseller) == false);\n        resellers[msg.sender].push(_reseller);\n        Reseller(reseller).resellerAdded(msg.sender, _reseller);\n    }\n\n    function removeReseller(address _reseller) public authenticated returns (bool) {\n        assert(isAuthorizedReseller(msg.sender, _reseller));\n        int atIndex;\n        atIndex = Array.contains(resellers[msg.sender], _reseller);\n        if (atIndex >= 0) {\n            delete(resellers[msg.sender][uint(atIndex)]);\n            Reseller(reseller).resellerRemoved(msg.sender, _reseller);\n        }\n        return atIndex != Array.NOT_FOUND();\n    }\n\n    function isAuthorizedReseller(address _studio, address _reseller) public view returns (bool) {\n        return Array.contains(resellers[_studio], _reseller) != Array.NOT_FOUND();\n    }\n}\n",
  "sourcePath": "/Users/eric/Development/Jumbo/contracts/Studio.sol",
  "compiler": {
    "name": "solc",
    "version": "0.4.19+commit.c4cbbb05.Emscripten.clang"
  },
  "schemaVersion": "2.0.0",
  "updatedAt": "2018-03-28T16:22:13.273Z"
}