{
  "contractName": "Studio",
  "abi": [
    {
      "constant": true,
      "inputs": [
        {
          "name": "",
          "type": "address"
        }
      ],
      "name": "name",
      "outputs": [
        {
          "name": "",
          "type": "string"
        }
      ],
      "payable": false,
      "stateMutability": "view",
      "type": "function"
    },
    {
      "constant": true,
      "inputs": [
        {
          "name": "",
          "type": "address"
        }
      ],
      "name": "contactDetails",
      "outputs": [
        {
          "name": "",
          "type": "string"
        }
      ],
      "payable": false,
      "stateMutability": "view",
      "type": "function"
    },
    {
      "constant": true,
      "inputs": [
        {
          "name": "",
          "type": "address"
        },
        {
          "name": "",
          "type": "uint256"
        }
      ],
      "name": "classes",
      "outputs": [
        {
          "name": "",
          "type": "address"
        }
      ],
      "payable": false,
      "stateMutability": "view",
      "type": "function"
    },
    {
      "constant": false,
      "inputs": [],
      "name": "kill",
      "outputs": [],
      "payable": false,
      "stateMutability": "nonpayable",
      "type": "function"
    },
    {
      "constant": true,
      "inputs": [
        {
          "name": "",
          "type": "address"
        },
        {
          "name": "",
          "type": "uint256"
        }
      ],
      "name": "resellers",
      "outputs": [
        {
          "name": "",
          "type": "address"
        }
      ],
      "payable": false,
      "stateMutability": "view",
      "type": "function"
    },
    {
      "constant": true,
      "inputs": [
        {
          "name": "",
          "type": "address"
        },
        {
          "name": "",
          "type": "uint256"
        }
      ],
      "name": "schedules",
      "outputs": [
        {
          "name": "",
          "type": "address"
        }
      ],
      "payable": false,
      "stateMutability": "view",
      "type": "function"
    },
    {
      "constant": true,
      "inputs": [],
      "name": "owner",
      "outputs": [
        {
          "name": "",
          "type": "address"
        }
      ],
      "payable": false,
      "stateMutability": "view",
      "type": "function"
    },
    {
      "constant": true,
      "inputs": [],
      "name": "authentication",
      "outputs": [
        {
          "name": "",
          "type": "address"
        }
      ],
      "payable": false,
      "stateMutability": "view",
      "type": "function"
    },
    {
      "constant": true,
      "inputs": [],
      "name": "reseller",
      "outputs": [
        {
          "name": "",
          "type": "address"
        }
      ],
      "payable": false,
      "stateMutability": "view",
      "type": "function"
    },
    {
      "constant": false,
      "inputs": [
        {
          "name": "newOwner",
          "type": "address"
        }
      ],
      "name": "transferOwnership",
      "outputs": [],
      "payable": false,
      "stateMutability": "nonpayable",
      "type": "function"
    },
    {
      "anonymous": false,
      "inputs": [
        {
          "indexed": true,
          "name": "studio",
          "type": "address"
        },
        {
          "indexed": true,
          "name": "klass",
          "type": "address"
        },
        {
          "indexed": true,
          "name": "schedule",
          "type": "address"
        }
      ],
      "name": "ScheduleAdded",
      "type": "event"
    },
    {
      "anonymous": false,
      "inputs": [
        {
          "indexed": true,
          "name": "studio",
          "type": "address"
        },
        {
          "indexed": true,
          "name": "schedule",
          "type": "address"
        }
      ],
      "name": "ScheduleRemoved",
      "type": "event"
    },
    {
      "anonymous": false,
      "inputs": [
        {
          "indexed": true,
          "name": "studio",
          "type": "address"
        },
        {
          "indexed": true,
          "name": "klass",
          "type": "address"
        }
      ],
      "name": "ClassAdded",
      "type": "event"
    },
    {
      "anonymous": false,
      "inputs": [
        {
          "indexed": true,
          "name": "studio",
          "type": "address"
        },
        {
          "indexed": false,
          "name": "contactDetails",
          "type": "string"
        }
      ],
      "name": "ContactDetailsUpdated",
      "type": "event"
    },
    {
      "anonymous": false,
      "inputs": [
        {
          "indexed": false,
          "name": "from",
          "type": "address"
        },
        {
          "indexed": false,
          "name": "to",
          "type": "address"
        }
      ],
      "name": "OwnershipChanged",
      "type": "event"
    },
    {
      "constant": false,
      "inputs": [
        {
          "name": "_authentication",
          "type": "address"
        }
      ],
      "name": "setAuthentication",
      "outputs": [],
      "payable": false,
      "stateMutability": "nonpayable",
      "type": "function"
    },
    {
      "constant": false,
      "inputs": [
        {
          "name": "_reseller",
          "type": "address"
        }
      ],
      "name": "setReseller",
      "outputs": [],
      "payable": false,
      "stateMutability": "nonpayable",
      "type": "function"
    },
    {
      "constant": false,
      "inputs": [
        {
          "name": "_name",
          "type": "string"
        },
        {
          "name": "_description",
          "type": "string"
        }
      ],
      "name": "classCreate",
      "outputs": [],
      "payable": false,
      "stateMutability": "nonpayable",
      "type": "function"
    },
    {
      "constant": false,
      "inputs": [
        {
          "name": "class",
          "type": "address"
        },
        {
          "name": "instructor",
          "type": "string"
        },
        {
          "name": "dateStart",
          "type": "uint256"
        },
        {
          "name": "dateEnd",
          "type": "uint256"
        },
        {
          "name": "nSpots",
          "type": "uint256"
        },
        {
          "name": "nSpotsReseller",
          "type": "uint256"
        },
        {
          "name": "priceIndividual",
          "type": "uint256"
        },
        {
          "name": "priceReseller",
          "type": "uint256"
        }
      ],
      "name": "scheduleCreate",
      "outputs": [],
      "payable": false,
      "stateMutability": "nonpayable",
      "type": "function"
    },
    {
      "constant": false,
      "inputs": [
        {
          "name": "_name",
          "type": "string"
        }
      ],
      "name": "signup",
      "outputs": [],
      "payable": false,
      "stateMutability": "nonpayable",
      "type": "function"
    },
    {
      "constant": true,
      "inputs": [
        {
          "name": "user",
          "type": "address"
        }
      ],
      "name": "userExists",
      "outputs": [
        {
          "name": "",
          "type": "bool"
        }
      ],
      "payable": false,
      "stateMutability": "view",
      "type": "function"
    },
    {
      "constant": true,
      "inputs": [
        {
          "name": "studio",
          "type": "address"
        }
      ],
      "name": "getName",
      "outputs": [
        {
          "name": "",
          "type": "string"
        }
      ],
      "payable": false,
      "stateMutability": "view",
      "type": "function"
    },
    {
      "constant": true,
      "inputs": [
        {
          "name": "studio",
          "type": "address"
        }
      ],
      "name": "getContactDetails",
      "outputs": [
        {
          "name": "",
          "type": "string"
        }
      ],
      "payable": false,
      "stateMutability": "view",
      "type": "function"
    },
    {
      "constant": false,
      "inputs": [
        {
          "name": "_contactDetails",
          "type": "string"
        }
      ],
      "name": "updateContactDetails",
      "outputs": [],
      "payable": false,
      "stateMutability": "nonpayable",
      "type": "function"
    },
    {
      "constant": true,
      "inputs": [
        {
          "name": "studio",
          "type": "address"
        }
      ],
      "name": "classesCount",
      "outputs": [
        {
          "name": "",
          "type": "uint256"
        }
      ],
      "payable": false,
      "stateMutability": "view",
      "type": "function"
    },
    {
      "constant": true,
      "inputs": [
        {
          "name": "studio",
          "type": "address"
        },
        {
          "name": "index",
          "type": "uint256"
        }
      ],
      "name": "classAtIndex",
      "outputs": [
        {
          "name": "",
          "type": "address"
        }
      ],
      "payable": false,
      "stateMutability": "view",
      "type": "function"
    },
    {
      "constant": true,
      "inputs": [
        {
          "name": "studio",
          "type": "address"
        }
      ],
      "name": "schedulesCount",
      "outputs": [
        {
          "name": "",
          "type": "uint256"
        }
      ],
      "payable": false,
      "stateMutability": "view",
      "type": "function"
    },
    {
      "constant": true,
      "inputs": [
        {
          "name": "studio",
          "type": "address"
        },
        {
          "name": "index",
          "type": "uint256"
        }
      ],
      "name": "scheduleAtIndex",
      "outputs": [
        {
          "name": "",
          "type": "address"
        }
      ],
      "payable": false,
      "stateMutability": "view",
      "type": "function"
    },
    {
      "constant": false,
      "inputs": [
        {
          "name": "schedule",
          "type": "address"
        }
      ],
      "name": "scheduleRemoved",
      "outputs": [],
      "payable": false,
      "stateMutability": "nonpayable",
      "type": "function"
    },
    {
      "constant": true,
      "inputs": [],
      "name": "resellersCount",
      "outputs": [
        {
          "name": "",
          "type": "uint256"
        }
      ],
      "payable": false,
      "stateMutability": "view",
      "type": "function"
    },
    {
      "constant": true,
      "inputs": [
        {
          "name": "index",
          "type": "uint256"
        }
      ],
      "name": "resellerAtIndex",
      "outputs": [
        {
          "name": "",
          "type": "address"
        }
      ],
      "payable": false,
      "stateMutability": "view",
      "type": "function"
    },
    {
      "constant": false,
      "inputs": [
        {
          "name": "_reseller",
          "type": "address"
        }
      ],
      "name": "addReseller",
      "outputs": [],
      "payable": false,
      "stateMutability": "nonpayable",
      "type": "function"
    },
    {
      "constant": false,
      "inputs": [
        {
          "name": "_reseller",
          "type": "address"
        }
      ],
      "name": "removeReseller",
      "outputs": [
        {
          "name": "",
          "type": "bool"
        }
      ],
      "payable": false,
      "stateMutability": "nonpayable",
      "type": "function"
    },
    {
      "constant": true,
      "inputs": [
        {
          "name": "_studio",
          "type": "address"
        },
        {
          "name": "_reseller",
          "type": "address"
        }
      ],
      "name": "isAuthorizedReseller",
      "outputs": [
        {
          "name": "",
          "type": "bool"
        }
      ],
      "payable": false,
      "stateMutability": "view",
      "type": "function"
    }
  ],
  "bytecode": "0x6060604052336000806101000a81548173ffffffffffffffffffffffffffffffffffffffff021916908373ffffffffffffffffffffffffffffffffffffffff160217905550615f7d806100536000396000f30060606040526004361062000193576000357c0100000000000000000000000000000000000000000000000000000000900463ffffffff1680630198489214620001985780630202e6c514620002505780630e666e4914620002b05780631482024f146200030457806320b276dc14620003bc5780632aec8dc114620003f85780632f45fbe11462000448578063407a930d14620004cd57806341c0e1b5146200053357806344da49b7146200054b5780634af076d814620005d0578063519c6377146200060c57806353bc973e146200066c5780635e00eac614620006a85780635fd4b08a146200072d5780636291fdcb14620007e557806366c4999a1462000888578063854e968214620008d85780638da5cb5b146200095d5780638fb6bd9c14620009b557806392f027141462000a285780639b2e27d71462000a545780639d0640201462000b09578063b996c1701462000b5d578063c3ffd4e81462000bb5578063c74d97cd1462000c3a578063cf3dcea61462000c92578063d65f74cb1462000d4a578063f2fde38b1462000d86575b600080fd5b3415620001a457600080fd5b620001d2600480803573ffffffffffffffffffffffffffffffffffffffff1690602001909190505062000dc2565b6040518080602001828103825283818151815260200191508051906020019080838360005b8381101562000214578082015181840152602081019050620001f7565b50505050905090810190601f168015620002425780820380516001836020036101000a031916815260200191505b509250505060405180910390f35b34156200025c57600080fd5b620002ae600480803590602001908201803590602001908080601f0160208091040260200160405190810160405280939291908181526020018383808284378201915050505050509190505062000e76565b005b3415620002bc57600080fd5b620002ea600480803573ffffffffffffffffffffffffffffffffffffffff1690602001909190505062001044565b604051808215151515815260200191505060405180910390f35b34156200031057600080fd5b6200033e600480803573ffffffffffffffffffffffffffffffffffffffff16906020019091905050620010a3565b6040518080602001828103825283818151815260200191508051906020019080838360005b838110156200038057808201518184015260208101905062000363565b50505050905090810190601f168015620003ae5780820380516001836020036101000a031916815260200191505b509250505060405180910390f35b3415620003c857600080fd5b620003f6600480803573ffffffffffffffffffffffffffffffffffffffff1690602001909190505062001157565b005b34156200040457600080fd5b62000432600480803573ffffffffffffffffffffffffffffffffffffffff16906020019091905050620011f2565b6040518082815260200191505060405180910390f35b34156200045457600080fd5b6200048b600480803573ffffffffffffffffffffffffffffffffffffffff169060200190919080359060200190919050506200123e565b604051808273ffffffffffffffffffffffffffffffffffffffff1673ffffffffffffffffffffffffffffffffffffffff16815260200191505060405180910390f35b3415620004d957600080fd5b620004f160048080359060200190919050506200128d565b604051808273ffffffffffffffffffffffffffffffffffffffff1673ffffffffffffffffffffffffffffffffffffffff16815260200191505060405180910390f35b34156200053f57600080fd5b6200054962001371565b005b34156200055757600080fd5b6200058e600480803573ffffffffffffffffffffffffffffffffffffffff1690602001909190803590602001909190505062001403565b604051808273ffffffffffffffffffffffffffffffffffffffff1673ffffffffffffffffffffffffffffffffffffffff16815260200191505060405180910390f35b3415620005dc57600080fd5b6200060a600480803573ffffffffffffffffffffffffffffffffffffffff1690602001909190505062001486565b005b34156200061857600080fd5b6200066a600480803590602001908201803590602001908080601f01602080910402602001604051908101604052809392919081815260200183838082843782019150505050505091905050620016b3565b005b34156200067857600080fd5b620006a6600480803573ffffffffffffffffffffffffffffffffffffffff16906020019091905050620018e8565b005b3415620006b457600080fd5b620006eb600480803573ffffffffffffffffffffffffffffffffffffffff1690602001909190803590602001909190505062001983565b604051808273ffffffffffffffffffffffffffffffffffffffff1673ffffffffffffffffffffffffffffffffffffffff16815260200191505060405180910390f35b34156200073957600080fd5b62000767600480803573ffffffffffffffffffffffffffffffffffffffff16906020019091905050620019d2565b6040518080602001828103825283818151815260200191508051906020019080838360005b83811015620007a95780820151818401526020810190506200078c565b50505050905090810190601f168015620007d75780820380516001836020036101000a031916815260200191505b509250505060405180910390f35b3415620007f157600080fd5b62000886600480803590602001908201803590602001908080601f0160208091040260200160405190810160405280939291908181526020018383808284378201915050505050509190803590602001908201803590602001908080601f0160208091040260200160405190810160405280939291908181526020018383808284378201915050505050509190505062001abf565b005b34156200089457600080fd5b620008c2600480803573ffffffffffffffffffffffffffffffffffffffff1690602001909190505062001e38565b6040518082815260200191505060405180910390f35b3415620008e457600080fd5b6200091b600480803573ffffffffffffffffffffffffffffffffffffffff1690602001909190803590602001909190505062001e84565b604051808273ffffffffffffffffffffffffffffffffffffffff1673ffffffffffffffffffffffffffffffffffffffff16815260200191505060405180910390f35b34156200096957600080fd5b6200097362001ed3565b604051808273ffffffffffffffffffffffffffffffffffffffff1673ffffffffffffffffffffffffffffffffffffffff16815260200191505060405180910390f35b3415620009c157600080fd5b62000a0e600480803573ffffffffffffffffffffffffffffffffffffffff1690602001909190803573ffffffffffffffffffffffffffffffffffffffff1690602001909190505062001ef8565b604051808215151515815260200191505060405180910390f35b341562000a3457600080fd5b62000a3e62002020565b6040518082815260200191505060405180910390f35b341562000a6057600080fd5b62000b07600480803573ffffffffffffffffffffffffffffffffffffffff1690602001909190803590602001908201803590602001908080601f01602080910402602001604051908101604052809392919081815260200183838082843782019150505050505091908035906020019091908035906020019091908035906020019091908035906020019091908035906020019091908035906020019091905050620020cc565b005b341562000b1557600080fd5b62000b43600480803573ffffffffffffffffffffffffffffffffffffffff16906020019091905050620024cb565b604051808215151515815260200191505060405180910390f35b341562000b6957600080fd5b62000b73620027e7565b604051808273ffffffffffffffffffffffffffffffffffffffff1673ffffffffffffffffffffffffffffffffffffffff16815260200191505060405180910390f35b341562000bc157600080fd5b62000bf8600480803573ffffffffffffffffffffffffffffffffffffffff169060200190919080359060200190919050506200280d565b604051808273ffffffffffffffffffffffffffffffffffffffff1673ffffffffffffffffffffffffffffffffffffffff16815260200191505060405180910390f35b341562000c4657600080fd5b62000c5062002890565b604051808273ffffffffffffffffffffffffffffffffffffffff1673ffffffffffffffffffffffffffffffffffffffff16815260200191505060405180910390f35b341562000c9e57600080fd5b62000ccc600480803573ffffffffffffffffffffffffffffffffffffffff16906020019091905050620028b6565b6040518080602001828103825283818151815260200191508051906020019080838360005b8381101562000d0e57808201518184015260208101905062000cf1565b50505050905090810190601f16801562000d3c5780820380516001836020036101000a031916815260200191505b509250505060405180910390f35b341562000d5657600080fd5b62000d84600480803573ffffffffffffffffffffffffffffffffffffffff16906020019091905050620029a3565b005b341562000d9257600080fd5b62000dc0600480803573ffffffffffffffffffffffffffffffffffffffff1690602001909190505062002dec565b005b60016020528060005260406000206000915090508054600181600116156101000203166002900480601f01602080910402602001604051908101604052809291908181526020018280546001816001161561010002031660029004801562000e6e5780601f1062000e425761010080835404028352916020019162000e6e565b820191906000526020600020905b81548152906001019060200180831162000e5057829003601f168201915b505050505081565b6000600160003373ffffffffffffffffffffffffffffffffffffffff1673ffffffffffffffffffffffffffffffffffffffff16815260200190815260200160002080546001816001161561010002031660029004905011151562000ed957600080fd5b80600260003373ffffffffffffffffffffffffffffffffffffffff1673ffffffffffffffffffffffffffffffffffffffff168152602001908152602001600020908051906020019062000f2e92919062002f65565b503373ffffffffffffffffffffffffffffffffffffffff167f6f6e7970dcc1543329dca9c68dccf616fdfa1c2d2ff4e9fc9e4ee462427096b6600260003373ffffffffffffffffffffffffffffffffffffffff1673ffffffffffffffffffffffffffffffffffffffff1681526020019081526020016000206040518080602001828103825283818154600181600116156101000203166002900481526020019150805460018160011615610100020316600290048015620010335780601f10620010075761010080835404028352916020019162001033565b820191906000526020600020905b8154815290600101906020018083116200101557829003601f168201915b50509250505060405180910390a250565b600080600160008473ffffffffffffffffffffffffffffffffffffffff1673ffffffffffffffffffffffffffffffffffffffff168152602001908152602001600020805460018160011615610100020316600290049050119050919050565b60026020528060005260406000206000915090508054600181600116156101000203166002900480601f0160208091040260200160405190810160405280929190818152602001828054600181600116156101000203166002900480156200114f5780601f1062001123576101008083540402835291602001916200114f565b820191906000526020600020905b8154815290600101906020018083116200113157829003601f168201915b505050505081565b6000809054906101000a900473ffffffffffffffffffffffffffffffffffffffff1673ffffffffffffffffffffffffffffffffffffffff163373ffffffffffffffffffffffffffffffffffffffff161415620011ef5780600760006101000a81548173ffffffffffffffffffffffffffffffffffffffff021916908373ffffffffffffffffffffffffffffffffffffffff1602179055505b50565b6000600560008373ffffffffffffffffffffffffffffffffffffffff1673ffffffffffffffffffffffffffffffffffffffff168152602001908152602001600020805490509050919050565b6005602052816000526040600020818154811015156200125a57fe5b90600052602060002090016000915091509054906101000a900473ffffffffffffffffffffffffffffffffffffffff1681565b600080600160003373ffffffffffffffffffffffffffffffffffffffff1673ffffffffffffffffffffffffffffffffffffffff168152602001908152602001600020805460018160011615610100020316600290049050111515620012f157600080fd5b600360003373ffffffffffffffffffffffffffffffffffffffff1673ffffffffffffffffffffffffffffffffffffffff168152602001908152602001600020828154811015156200133e57fe5b906000526020600020900160009054906101000a900473ffffffffffffffffffffffffffffffffffffffff169050919050565b6000809054906101000a900473ffffffffffffffffffffffffffffffffffffffff1673ffffffffffffffffffffffffffffffffffffffff163373ffffffffffffffffffffffffffffffffffffffff16141562001401576000809054906101000a900473ffffffffffffffffffffffffffffffffffffffff1673ffffffffffffffffffffffffffffffffffffffff16ff5b565b6000600560008473ffffffffffffffffffffffffffffffffffffffff1673ffffffffffffffffffffffffffffffffffffffff168152602001908152602001600020828154811015156200145257fe5b906000526020600020900160009054906101000a900473ffffffffffffffffffffffffffffffffffffffff16905092915050565b6000600160003373ffffffffffffffffffffffffffffffffffffffff1673ffffffffffffffffffffffffffffffffffffffff168152602001908152602001600020805460018160011615610100020316600290049050111515620014e957600080fd5b60001515620014f9338362001ef8565b15151415156200150857600080fd5b600360003373ffffffffffffffffffffffffffffffffffffffff1673ffffffffffffffffffffffffffffffffffffffff16815260200190815260200160002080548060010182816200155b919062002fec565b9160005260206000209001600083909190916101000a81548173ffffffffffffffffffffffffffffffffffffffff021916908373ffffffffffffffffffffffffffffffffffffffff16021790555050600760009054906101000a900473ffffffffffffffffffffffffffffffffffffffff1673ffffffffffffffffffffffffffffffffffffffff1663dca7484833836040518363ffffffff167c0100000000000000000000000000000000000000000000000000000000028152600401808373ffffffffffffffffffffffffffffffffffffffff1673ffffffffffffffffffffffffffffffffffffffff1681526020018273ffffffffffffffffffffffffffffffffffffffff1673ffffffffffffffffffffffffffffffffffffffff16815260200192505050600060405180830381600087803b15156200169b57600080fd5b6102c65a03f11515620016ad57600080fd5b50505050565b604051806000019050604051809103902060001916600160003373ffffffffffffffffffffffffffffffffffffffff1673ffffffffffffffffffffffffffffffffffffffff1681526020019081526020016000206040518082805460018160011615610100020316600290048015620017665780601f106200174357610100808354040283529182019162001766565b820191906000526020600020905b81548152906001019060200180831162001751575b50509150506040518091039020600019161415156200178457600080fd5b80600160003373ffffffffffffffffffffffffffffffffffffffff1673ffffffffffffffffffffffffffffffffffffffff1681526020019081526020016000209080519060200190620017d992919062002f65565b50600660009054906101000a900473ffffffffffffffffffffffffffffffffffffffff1673ffffffffffffffffffffffffffffffffffffffff16631e88f7dc336040518263ffffffff167c0100000000000000000000000000000000000000000000000000000000028152600401808273ffffffffffffffffffffffffffffffffffffffff1673ffffffffffffffffffffffffffffffffffffffff16815260200180602001828103825260068152602001807f53545544494f000000000000000000000000000000000000000000000000000081525060200192505050600060405180830381600087803b1515620018d057600080fd5b6102c65a03f11515620018e257600080fd5b50505050565b6000809054906101000a900473ffffffffffffffffffffffffffffffffffffffff1673ffffffffffffffffffffffffffffffffffffffff163373ffffffffffffffffffffffffffffffffffffffff161415620019805780600660006101000a81548173ffffffffffffffffffffffffffffffffffffffff021916908373ffffffffffffffffffffffffffffffffffffffff1602179055505b50565b6003602052816000526040600020818154811015156200199f57fe5b90600052602060002090016000915091509054906101000a900473ffffffffffffffffffffffffffffffffffffffff1681565b620019dc6200301b565b600160008373ffffffffffffffffffffffffffffffffffffffff1673ffffffffffffffffffffffffffffffffffffffff1681526020019081526020016000208054600181600116156101000203166002900480601f01602080910402602001604051908101604052809291908181526020018280546001816001161561010002031660029004801562001ab35780601f1062001a875761010080835404028352916020019162001ab3565b820191906000526020600020905b81548152906001019060200180831162001a9557829003601f168201915b50505050509050919050565b6000828262001acd6200302f565b808060200180602001838103835285818151815260200191508051906020019080838360005b8381101562001b1057808201518184015260208101905062001af3565b50505050905090810190601f16801562001b3e5780820380516001836020036101000a031916815260200191505b50838103825284818151815260200191508051906020019080838360005b8381101562001b7957808201518184015260208101905062001b5c565b50505050905090810190601f16801562001ba75780820380516001836020036101000a031916815260200191505b50945050505050604051809103906000f080151562001bc557600080fd5b90508073ffffffffffffffffffffffffffffffffffffffff1663f2fde38b336040518263ffffffff167c0100000000000000000000000000000000000000000000000000000000028152600401808273ffffffffffffffffffffffffffffffffffffffff1673ffffffffffffffffffffffffffffffffffffffff168152602001915050600060405180830381600087803b151562001c6257600080fd5b6102c65a03f1151562001c7457600080fd5b5050503373ffffffffffffffffffffffffffffffffffffffff168173ffffffffffffffffffffffffffffffffffffffff16638da5cb5b6000604051602001526040518163ffffffff167c0100000000000000000000000000000000000000000000000000000000028152600401602060405180830381600087803b151562001cfb57600080fd5b6102c65a03f1151562001d0d57600080fd5b5050506040518051905073ffffffffffffffffffffffffffffffffffffffff1614151562001d3757fe5b600560003373ffffffffffffffffffffffffffffffffffffffff1673ffffffffffffffffffffffffffffffffffffffff168152602001908152602001600020805480600101828162001d8a919062002fec565b9160005260206000209001600083909190916101000a81548173ffffffffffffffffffffffffffffffffffffffff021916908373ffffffffffffffffffffffffffffffffffffffff160217905550508073ffffffffffffffffffffffffffffffffffffffff163373ffffffffffffffffffffffffffffffffffffffff167f8c0045509cf2ef7cc886a6df571bd2ce5d2a5bdf1fe86a07f2f58dbe53ec623260405160405180910390a3505050565b6000600460008373ffffffffffffffffffffffffffffffffffffffff1673ffffffffffffffffffffffffffffffffffffffff168152602001908152602001600020805490509050919050565b60046020528160005260406000208181548110151562001ea057fe5b90600052602060002090016000915091509054906101000a900473ffffffffffffffffffffffffffffffffffffffff1681565b6000809054906101000a900473ffffffffffffffffffffffffffffffffffffffff1681565b6000806000809150600090505b600360008673ffffffffffffffffffffffffffffffffffffffff1673ffffffffffffffffffffffffffffffffffffffff1681526020019081526020016000208054905081101562002015578373ffffffffffffffffffffffffffffffffffffffff16600360008773ffffffffffffffffffffffffffffffffffffffff1673ffffffffffffffffffffffffffffffffffffffff1681526020019081526020016000208281548110151562001fb457fe5b906000526020600020900160009054906101000a900473ffffffffffffffffffffffffffffffffffffffff1673ffffffffffffffffffffffffffffffffffffffff16141562002007576001915062002015565b808060010191505062001f05565b819250505092915050565b600080600160003373ffffffffffffffffffffffffffffffffffffffff1673ffffffffffffffffffffffffffffffffffffffff1681526020019081526020016000208054600181600116156101000203166002900490501115156200208457600080fd5b600360003373ffffffffffffffffffffffffffffffffffffffff1673ffffffffffffffffffffffffffffffffffffffff16815260200190815260200160002080549050905090565b6000808973ffffffffffffffffffffffffffffffffffffffff1614151515620020f457600080fd5b6000871115156200210457600080fd5b6000861115156200211457600080fd5b83851115156200212357600080fd5b6000831115156200213357600080fd5b6000821115156200214357600080fd5b88888888888888886200215562003040565b808973ffffffffffffffffffffffffffffffffffffffff1673ffffffffffffffffffffffffffffffffffffffff16815260200180602001888152602001878152602001868152602001858152602001848152602001838152602001828103825289818151815260200191508051906020019080838360005b83811015620021ea578082015181840152602081019050620021cd565b50505050905090810190601f168015620022185780820380516001836020036101000a031916815260200191505b509950505050505050505050604051809103906000f08015156200223b57600080fd5b90508073ffffffffffffffffffffffffffffffffffffffff1663f2fde38b336040518263ffffffff167c0100000000000000000000000000000000000000000000000000000000028152600401808273ffffffffffffffffffffffffffffffffffffffff1673ffffffffffffffffffffffffffffffffffffffff168152602001915050600060405180830381600087803b1515620022d857600080fd5b6102c65a03f11515620022ea57600080fd5b5050503373ffffffffffffffffffffffffffffffffffffffff168173ffffffffffffffffffffffffffffffffffffffff16638da5cb5b6000604051602001526040518163ffffffff167c0100000000000000000000000000000000000000000000000000000000028152600401602060405180830381600087803b15156200237157600080fd5b6102c65a03f115156200238357600080fd5b5050506040518051905073ffffffffffffffffffffffffffffffffffffffff16141515620023ad57fe5b600460003373ffffffffffffffffffffffffffffffffffffffff1673ffffffffffffffffffffffffffffffffffffffff168152602001908152602001600020805480600101828162002400919062002fec565b9160005260206000209001600083909190916101000a81548173ffffffffffffffffffffffffffffffffffffffff021916908373ffffffffffffffffffffffffffffffffffffffff160217905550508073ffffffffffffffffffffffffffffffffffffffff168973ffffffffffffffffffffffffffffffffffffffff163373ffffffffffffffffffffffffffffffffffffffff167fef0c1e318454e430e431e459245c7b01d3e3a566efc1fbbeff17628e56e6c27c60405160405180910390a4505050505050505050565b6000806000600160003373ffffffffffffffffffffffffffffffffffffffff1673ffffffffffffffffffffffffffffffffffffffff1681526020019081526020016000208054600181600116156101000203166002900490501115156200253157600080fd5b6200253d338462001ef8565b15156200254657fe5b600090505b600360003373ffffffffffffffffffffffffffffffffffffffff1673ffffffffffffffffffffffffffffffffffffffff16815260200190815260200160002080549050811015620027dc578273ffffffffffffffffffffffffffffffffffffffff16600360003373ffffffffffffffffffffffffffffffffffffffff1673ffffffffffffffffffffffffffffffffffffffff16815260200190815260200160002082815481101515620025fa57fe5b906000526020600020900160009054906101000a900473ffffffffffffffffffffffffffffffffffffffff1673ffffffffffffffffffffffffffffffffffffffff161415620027ce57600360003373ffffffffffffffffffffffffffffffffffffffff1673ffffffffffffffffffffffffffffffffffffffff168152602001908152602001600020818154811015156200269057fe5b906000526020600020900160006101000a81549073ffffffffffffffffffffffffffffffffffffffff0219169055600760009054906101000a900473ffffffffffffffffffffffffffffffffffffffff1673ffffffffffffffffffffffffffffffffffffffff1663a53522ce33856040518363ffffffff167c0100000000000000000000000000000000000000000000000000000000028152600401808373ffffffffffffffffffffffffffffffffffffffff1673ffffffffffffffffffffffffffffffffffffffff1681526020018273ffffffffffffffffffffffffffffffffffffffff1673ffffffffffffffffffffffffffffffffffffffff16815260200192505050600060405180830381600087803b1515620027af57600080fd5b6102c65a03f11515620027c157600080fd5b50505060019150620027e1565b80806001019150506200254b565b600091505b50919050565b600660009054906101000a900473ffffffffffffffffffffffffffffffffffffffff1681565b6000600460008473ffffffffffffffffffffffffffffffffffffffff1673ffffffffffffffffffffffffffffffffffffffff168152602001908152602001600020828154811015156200285c57fe5b906000526020600020900160009054906101000a900473ffffffffffffffffffffffffffffffffffffffff16905092915050565b600760009054906101000a900473ffffffffffffffffffffffffffffffffffffffff1681565b620028c06200301b565b600260008373ffffffffffffffffffffffffffffffffffffffff1673ffffffffffffffffffffffffffffffffffffffff1681526020019081526020016000208054600181600116156101000203166002900480601f016020809104026020016040519081016040528092919081815260200182805460018160011615610100020316600290048015620029975780601f106200296b5761010080835404028352916020019162002997565b820191906000526020600020905b8154815290600101906020018083116200297957829003601f168201915b50505050509050919050565b600080600160003373ffffffffffffffffffffffffffffffffffffffff1673ffffffffffffffffffffffffffffffffffffffff16815260200190815260200160002080546001816001161561010002031660029004905011151562002a0757600080fd5b600090505b600460003373ffffffffffffffffffffffffffffffffffffffff1673ffffffffffffffffffffffffffffffffffffffff1681526020019081526020016000208054905081101562002de8578173ffffffffffffffffffffffffffffffffffffffff16600460003373ffffffffffffffffffffffffffffffffffffffff1673ffffffffffffffffffffffffffffffffffffffff1681526020019081526020016000208281548110151562002abb57fe5b906000526020600020900160009054906101000a900473ffffffffffffffffffffffffffffffffffffffff1673ffffffffffffffffffffffffffffffffffffffff16141562002dda576001600460003373ffffffffffffffffffffffffffffffffffffffff1673ffffffffffffffffffffffffffffffffffffffff168152602001908152602001600020805490500381101562002c6557600460003373ffffffffffffffffffffffffffffffffffffffff1673ffffffffffffffffffffffffffffffffffffffff1681526020019081526020016000206001820181548110151562002ba257fe5b906000526020600020900160009054906101000a900473ffffffffffffffffffffffffffffffffffffffff16600460003373ffffffffffffffffffffffffffffffffffffffff1673ffffffffffffffffffffffffffffffffffffffff1681526020019081526020016000208281548110151562002c1b57fe5b906000526020600020900160006101000a81548173ffffffffffffffffffffffffffffffffffffffff021916908373ffffffffffffffffffffffffffffffffffffffff1602179055505b600460003373ffffffffffffffffffffffffffffffffffffffff1673ffffffffffffffffffffffffffffffffffffffff1681526020019081526020016000206001600460003373ffffffffffffffffffffffffffffffffffffffff1673ffffffffffffffffffffffffffffffffffffffff168152602001908152602001600020805490500381548110151562002cf757fe5b906000526020600020900160006101000a81549073ffffffffffffffffffffffffffffffffffffffff0219169055600460003373ffffffffffffffffffffffffffffffffffffffff1673ffffffffffffffffffffffffffffffffffffffff16815260200190815260200160002080548091906001900362002d79919062003051565b508173ffffffffffffffffffffffffffffffffffffffff163373ffffffffffffffffffffffffffffffffffffffff167f9ad73e62e8bc6fd3ec6373e955999d3641150a6ccb7a1308376dd8c2068a001c60405160405180910390a362002de8565b808060010191505062002a0c565b5050565b6000809054906101000a900473ffffffffffffffffffffffffffffffffffffffff1673ffffffffffffffffffffffffffffffffffffffff163373ffffffffffffffffffffffffffffffffffffffff16141562002f625760008173ffffffffffffffffffffffffffffffffffffffff161415151562002e6957600080fd5b7f0384899bd253d83b23daa4d29aaa2efe0563d1132b43101e9ad667235aeb951b6000809054906101000a900473ffffffffffffffffffffffffffffffffffffffff1682604051808373ffffffffffffffffffffffffffffffffffffffff1673ffffffffffffffffffffffffffffffffffffffff1681526020018273ffffffffffffffffffffffffffffffffffffffff1673ffffffffffffffffffffffffffffffffffffffff1681526020019250505060405180910390a1806000806101000a81548173ffffffffffffffffffffffffffffffffffffffff021916908373ffffffffffffffffffffffffffffffffffffffff1602179055505b50565b828054600181600116156101000203166002900490600052602060002090601f016020900481019282601f1062002fa857805160ff191683800117855562002fd9565b8280016001018555821562002fd9579182015b8281111562002fd857825182559160200191906001019062002fbb565b5b50905062002fe8919062003080565b5090565b815481835581811511620030165781836000526020600020918201910162003015919062003080565b5b505050565b602060405190810160405280600081525090565b60405161097880620030a983390190565b6040516125318062003a2183390190565b8154818355818115116200307b578183600052602060002091820191016200307a919062003080565b5b505050565b620030a591905b80821115620030a157600081600090555060010162003087565b5090565b9056006060604052341561000f57600080fd5b60405161097838038061097883398101604052808051820191906020018051820191905050336000806101000a81548173ffffffffffffffffffffffffffffffffffffffff021916908373ffffffffffffffffffffffffffffffffffffffff160217905550816001908051906020019061008a9291906100a9565b5080600290805190602001906100a19291906100a9565b50505061014e565b828054600181600116156101000203166002900490600052602060002090601f016020900481019282601f106100ea57805160ff1916838001178555610118565b82800160010185558215610118579182015b828111156101175782518255916020019190600101906100fc565b5b5090506101259190610129565b5090565b61014b91905b8082111561014757600081600090555060010161012f565b5090565b90565b61081b8061015d6000396000f300606060405260043610610083576000357c0100000000000000000000000000000000000000000000000000000000900463ffffffff16806306fdde031461008857806341c0e1b5146101165780637284e4161461012b5780638da5cb5b146101b957806390c3f38f1461020e578063c47f00271461026b578063f2fde38b146102c8575b600080fd5b341561009357600080fd5b61009b610301565b6040518080602001828103825283818151815260200191508051906020019080838360005b838110156100db5780820151818401526020810190506100c0565b50505050905090810190601f1680156101085780820380516001836020036101000a031916815260200191505b509250505060405180910390f35b341561012157600080fd5b61012961039f565b005b341561013657600080fd5b61013e610430565b6040518080602001828103825283818151815260200191508051906020019080838360005b8381101561017e578082015181840152602081019050610163565b50505050905090810190601f1680156101ab5780820380516001836020036101000a031916815260200191505b509250505060405180910390f35b34156101c457600080fd5b6101cc6104ce565b604051808273ffffffffffffffffffffffffffffffffffffffff1673ffffffffffffffffffffffffffffffffffffffff16815260200191505060405180910390f35b341561021957600080fd5b610269600480803590602001908201803590602001908080601f016020809104026020016040519081016040528093929190818152602001838380828437820191505050505050919050506104f3565b005b341561027657600080fd5b6102c6600480803590602001908201803590602001908080601f01602080910402602001604051908101604052809392919081815260200183838082843782019150505050505091905050610563565b005b34156102d357600080fd5b6102ff600480803573ffffffffffffffffffffffffffffffffffffffff169060200190919050506105d3565b005b60018054600181600116156101000203166002900480601f0160208091040260200160405190810160405280929190818152602001828054600181600116156101000203166002900480156103975780601f1061036c57610100808354040283529160200191610397565b820191906000526020600020905b81548152906001019060200180831161037a57829003601f168201915b505050505081565b6000809054906101000a900473ffffffffffffffffffffffffffffffffffffffff1673ffffffffffffffffffffffffffffffffffffffff163373ffffffffffffffffffffffffffffffffffffffff16141561042e576000809054906101000a900473ffffffffffffffffffffffffffffffffffffffff1673ffffffffffffffffffffffffffffffffffffffff16ff5b565b60028054600181600116156101000203166002900480601f0160208091040260200160405190810160405280929190818152602001828054600181600116156101000203166002900480156104c65780601f1061049b576101008083540402835291602001916104c6565b820191906000526020600020905b8154815290600101906020018083116104a957829003601f168201915b505050505081565b6000809054906101000a900473ffffffffffffffffffffffffffffffffffffffff1681565b6000809054906101000a900473ffffffffffffffffffffffffffffffffffffffff1673ffffffffffffffffffffffffffffffffffffffff163373ffffffffffffffffffffffffffffffffffffffff16141561056057806002908051906020019061055e92919061074a565b505b50565b6000809054906101000a900473ffffffffffffffffffffffffffffffffffffffff1673ffffffffffffffffffffffffffffffffffffffff163373ffffffffffffffffffffffffffffffffffffffff1614156105d05780600190805190602001906105ce92919061074a565b505b50565b6000809054906101000a900473ffffffffffffffffffffffffffffffffffffffff1673ffffffffffffffffffffffffffffffffffffffff163373ffffffffffffffffffffffffffffffffffffffff1614156107475760008173ffffffffffffffffffffffffffffffffffffffff161415151561064e57600080fd5b7f0384899bd253d83b23daa4d29aaa2efe0563d1132b43101e9ad667235aeb951b6000809054906101000a900473ffffffffffffffffffffffffffffffffffffffff1682604051808373ffffffffffffffffffffffffffffffffffffffff1673ffffffffffffffffffffffffffffffffffffffff1681526020018273ffffffffffffffffffffffffffffffffffffffff1673ffffffffffffffffffffffffffffffffffffffff1681526020019250505060405180910390a1806000806101000a81548173ffffffffffffffffffffffffffffffffffffffff021916908373ffffffffffffffffffffffffffffffffffffffff1602179055505b50565b828054600181600116156101000203166002900490600052602060002090601f016020900481019282601f1061078b57805160ff19168380011785556107b9565b828001600101855582156107b9579182015b828111156107b857825182559160200191906001019061079d565b5b5090506107c691906107ca565b5090565b6107ec91905b808211156107e85760008160009055506001016107d0565b5090565b905600a165627a7a72305820257f57f81a311a88fdc4d89e899ad081274e1938bfeb894b13a61e2d9e4b153f0029606060405234156200001057600080fd5b6040516200253138038062002531833981016040528080519060200190919080518201919060200180519060200190919080519060200190919080519060200190919080519060200190919080519060200190919080519060200190919050506000336000806101000a81548173ffffffffffffffffffffffffffffffffffffffff021916908373ffffffffffffffffffffffffffffffffffffffff16021790555033600b60006101000a81548173ffffffffffffffffffffffffffffffffffffffff021916908373ffffffffffffffffffffffffffffffffffffffff160217905550608060405190810160405280888152602001878152602001618ca089038152602001610e10890381525060036000820151816000015560208201518160010155604082015181600201556060820151816003015590505088600260006101000a81548173ffffffffffffffffffffffffffffffffffffffff021916908373ffffffffffffffffffffffffffffffffffffffff160217905550336000806101000a81548173ffffffffffffffffffffffffffffffffffffffff021916908373ffffffffffffffffffffffffffffffffffffffff1602179055508760019080519060200190620001e3929190620003f2565b50836008819055508460098190555082600a6000600160038111156200020557fe5b81526020019081526020016000208190555081600a6000600260038111156200022a57fe5b815260200190815260200160002081905550600090505b600954811015620003e357608060405190810160405280600060038111156200026657fe5b8152602001600073ffffffffffffffffffffffffffffffffffffffff168152602001600073ffffffffffffffffffffffffffffffffffffffff168152602001600073ffffffffffffffffffffffffffffffffffffffff168152506007600083815260200190815260200160002060008201518160000160006101000a81548160ff02191690836003811115620002f857fe5b021790555060208201518160000160016101000a81548173ffffffffffffffffffffffffffffffffffffffff021916908373ffffffffffffffffffffffffffffffffffffffff16021790555060408201518160010160006101000a81548173ffffffffffffffffffffffffffffffffffffffff021916908373ffffffffffffffffffffffffffffffffffffffff16021790555060608201518160020160006101000a81548173ffffffffffffffffffffffffffffffffffffffff021916908373ffffffffffffffffffffffffffffffffffffffff160217905550905050808060010191505062000241565b505050505050505050620004a1565b828054600181600116156101000203166002900490600052602060002090601f016020900481019282601f106200043557805160ff191683800117855562000466565b8280016001018555821562000466579182015b828111156200046557825182559160200191906001019062000448565b5b50905062000475919062000479565b5090565b6200049e91905b808211156200049a57600081600090555060010162000480565b5090565b90565b61208080620004b16000396000f3006060604052600436106100fc576000357c0100000000000000000000000000000000000000000000000000000000900463ffffffff1680630b4f3f3d146101015780631b3e819b1461015e57806323d9d4e9146101b657806341c0e1b514610219578063522e11771461022e578063607aeefb1461024357806371ae413d14610290578063879bee981461031e5780638da5cb5b14610379578063922861b7146103ce57806398d5fdca14610423578063a9bf14411461044c578063abfbb34914610475578063c157fc7214610498578063e0962423146104d6578063e6e83e3a14610547578063f2ad41e314610598578063f2fde38b146105c1575b600080fd5b341561010c57600080fd5b61015c600480803590602001908201803590602001908080601f016020809104026020016040519081016040528093929190818152602001838380828437820191505050505050919050506105fa565b005b341561016957600080fd5b6101b4600480803573ffffffffffffffffffffffffffffffffffffffff1690602001909190803573ffffffffffffffffffffffffffffffffffffffff169060200190919050506108f5565b005b34156101c157600080fd5b6101d76004808035906020019091905050610c59565b604051808273ffffffffffffffffffffffffffffffffffffffff1673ffffffffffffffffffffffffffffffffffffffff16815260200191505060405180910390f35b341561022457600080fd5b61022c610cef565b005b341561023957600080fd5b610241610d80565b005b61028e600480803573ffffffffffffffffffffffffffffffffffffffff1690602001909190803573ffffffffffffffffffffffffffffffffffffffff16906020019091905050610e11565b005b341561029b57600080fd5b6102a36111ab565b6040518080602001828103825283818151815260200191508051906020019080838360005b838110156102e35780820151818401526020810190506102c8565b50505050905090810190601f1680156103105780820380516001836020036101000a031916815260200191505b509250505060405180910390f35b341561032957600080fd5b610355600480803573ffffffffffffffffffffffffffffffffffffffff16906020019091905050611249565b6040518082600381111561036557fe5b60ff16815260200191505060405180910390f35b341561038457600080fd5b61038c611424565b604051808273ffffffffffffffffffffffffffffffffffffffff1673ffffffffffffffffffffffffffffffffffffffff16815260200191505060405180910390f35b34156103d957600080fd5b6103e1611449565b604051808273ffffffffffffffffffffffffffffffffffffffff1673ffffffffffffffffffffffffffffffffffffffff16815260200191505060405180910390f35b341561042e57600080fd5b61043661146f565b6040518082815260200191505060405180910390f35b341561045757600080fd5b61045f6114a2565b6040518082815260200191505060405180910390f35b341561048057600080fd5b6104966004808035906020019091905050611584565b005b34156104a357600080fd5b6104ab6115f9565b6040518085815260200184815260200183815260200182815260200194505050505060405180910390f35b34156104e157600080fd5b610531600480803590602001908201803590602001908080601f01602080910402602001604051908101604052809392919081815260200183838082843782019150505050505091905050611617565b6040518082815260200191505060405180910390f35b341561055257600080fd5b61057e600480803573ffffffffffffffffffffffffffffffffffffffff169060200190919050506117bf565b604051808215151515815260200191505060405180910390f35b34156105a357600080fd5b6105ab6117d8565b6040518082815260200191505060405180910390f35b34156105cc57600080fd5b6105f8600480803573ffffffffffffffffffffffffffffffffffffffff169060200190919050506117de565b005b6000806000809054906101000a900473ffffffffffffffffffffffffffffffffffffffff1673ffffffffffffffffffffffffffffffffffffffff163373ffffffffffffffffffffffffffffffffffffffff1614156108f0577f5c16de217ae60c4203a17684de4c416383dc8cb769cebd4bac0031f88819ae3e836040518080602001828103825283818151815260200191508051906020019080838360005b838110156106b4578082015181840152602081019050610699565b50505050905090810190601f1680156106e15780820380516001836020036101000a031916815260200191505b509250505060405180910390a1600091505b6009548210156108b65760076000838152602001908152602001600020905060008160020160009054906101000a900473ffffffffffffffffffffffffffffffffffffffff1673ffffffffffffffffffffffffffffffffffffffff161415156107de578060020160009054906101000a900473ffffffffffffffffffffffffffffffffffffffff1673ffffffffffffffffffffffffffffffffffffffff166108fc600a6000600260038111156107a557fe5b8152602001908152602001600020549081150290604051600060405180830381858888f1935050505015156107d957600080fd5b6108a9565b60008160000160019054906101000a900473ffffffffffffffffffffffffffffffffffffffff1673ffffffffffffffffffffffffffffffffffffffff161415801561089e57508060000160019054906101000a900473ffffffffffffffffffffffffffffffffffffffff1673ffffffffffffffffffffffffffffffffffffffff166108fc600a60006001600381111561087357fe5b8152602001908152602001600020549081150290604051600060405180830381858888f19350505050155b156108a857600080fd5b5b81806001019250506106f3565b6000809054906101000a900473ffffffffffffffffffffffffffffffffffffffff1673ffffffffffffffffffffffffffffffffffffffff16ff5b505050565b6108fd611fde565b600080600080600360020154421115151561091757600080fd5b61092087611955565b9450945094506001151584151514151561093957600080fd5b3373ffffffffffffffffffffffffffffffffffffffff16856040015173ffffffffffffffffffffffffffffffffffffffff1614151561097757600080fd5b6109b26000866060015173ffffffffffffffffffffffffffffffffffffffff1614156109a75785602001516109ad565b85606001515b611bc4565b9150608060405190810160405280600060038111156109cd57fe5b8152602001600073ffffffffffffffffffffffffffffffffffffffff168152602001600073ffffffffffffffffffffffffffffffffffffffff168152602001600073ffffffffffffffffffffffffffffffffffffffff168152506007600085815260200190815260200160002060008201518160000160006101000a81548160ff02191690836003811115610a5e57fe5b021790555060208201518160000160016101000a81548173ffffffffffffffffffffffffffffffffffffffff021916908373ffffffffffffffffffffffffffffffffffffffff16021790555060408201518160010160006101000a81548173ffffffffffffffffffffffffffffffffffffffff021916908373ffffffffffffffffffffffffffffffffffffffff16021790555060608201518160020160006101000a81548173ffffffffffffffffffffffffffffffffffffffff021916908373ffffffffffffffffffffffffffffffffffffffff16021790555090505060008673ffffffffffffffffffffffffffffffffffffffff161415610b605786610b62565b855b90508073ffffffffffffffffffffffffffffffffffffffff166108fc839081150290604051600060405180830381858888f193505050501515610ba457600080fd5b7f79c3b697a0a0b3c078dc41b4561f27a89d5c5f47e5488fd67a83e09229f2656885600001516003811115610bd557fe5b886000610be06114a2565b60095403604051808581526020018473ffffffffffffffffffffffffffffffffffffffff1673ffffffffffffffffffffffffffffffffffffffff1681526020018373ffffffffffffffffffffffffffffffffffffffff16815260200182815260200194505050505060405180910390a150505050505050565b60008060009054906101000a900473ffffffffffffffffffffffffffffffffffffffff1673ffffffffffffffffffffffffffffffffffffffff163373ffffffffffffffffffffffffffffffffffffffff161415610cea576007600083815260200190815260200160002060000160019054906101000a900473ffffffffffffffffffffffffffffffffffffffff1690505b919050565b6000809054906101000a900473ffffffffffffffffffffffffffffffffffffffff1673ffffffffffffffffffffffffffffffffffffffff163373ffffffffffffffffffffffffffffffffffffffff161415610d7e576000809054906101000a900473ffffffffffffffffffffffffffffffffffffffff1673ffffffffffffffffffffffffffffffffffffffff16ff5b565b6000809054906101000a900473ffffffffffffffffffffffffffffffffffffffff1673ffffffffffffffffffffffffffffffffffffffff163373ffffffffffffffffffffffffffffffffffffffff161415610e0f576000809054906101000a900473ffffffffffffffffffffffffffffffffffffffff1673ffffffffffffffffffffffffffffffffffffffff16ff5b565b610e19611fde565b6000806000808673ffffffffffffffffffffffffffffffffffffffff1614151515610e4357600080fd5b610e4d8686611bf9565b93509350935060011515831515141515610e6657600080fd5b3073ffffffffffffffffffffffffffffffffffffffff1663879bee9860008773ffffffffffffffffffffffffffffffffffffffff161415610ea75787610ea9565b865b6000604051602001526040518263ffffffff167c0100000000000000000000000000000000000000000000000000000000028152600401808273ffffffffffffffffffffffffffffffffffffffff1673ffffffffffffffffffffffffffffffffffffffff168152602001915050602060405180830381600087803b1515610f2f57600080fd5b6102c65a03f11515610f4057600080fd5b505050604051805190509050608060405190810160405280826003811115610f6457fe5b81526020018773ffffffffffffffffffffffffffffffffffffffff1681526020013373ffffffffffffffffffffffffffffffffffffffff1681526020018673ffffffffffffffffffffffffffffffffffffffff168152509350836007600084815260200190815260200160002060008201518160000160006101000a81548160ff02191690836003811115610ff557fe5b021790555060208201518160000160016101000a81548173ffffffffffffffffffffffffffffffffffffffff021916908373ffffffffffffffffffffffffffffffffffffffff16021790555060408201518160010160006101000a81548173ffffffffffffffffffffffffffffffffffffffff021916908373ffffffffffffffffffffffffffffffffffffffff16021790555060608201518160020160006101000a81548173ffffffffffffffffffffffffffffffffffffffff021916908373ffffffffffffffffffffffffffffffffffffffff1602179055509050507f212e2e0a34ba0fd17843c7e70f09aec7d3f92fc30ddd023a076b681df461a9a48460000151600381111561110357fe5b85602001518660600151856111166114a2565b60095403604051808681526020018573ffffffffffffffffffffffffffffffffffffffff1673ffffffffffffffffffffffffffffffffffffffff1681526020018473ffffffffffffffffffffffffffffffffffffffff1673ffffffffffffffffffffffffffffffffffffffff1681526020018381526020018281526020019550505050505060405180910390a1505050505050565b60018054600181600116156101000203166002900480601f0160208091040260200160405190810160405280929190818152602001828054600181600116156101000203166002900480156112415780601f1061121657610100808354040283529160200191611241565b820191906000526020600020905b81548152906001019060200180831161122457829003601f168201915b505050505081565b600080600260009054906101000a900473ffffffffffffffffffffffffffffffffffffffff1673ffffffffffffffffffffffffffffffffffffffff16638da5cb5b6000604051602001526040518163ffffffff167c0100000000000000000000000000000000000000000000000000000000028152600401602060405180830381600087803b15156112da57600080fd5b6102c65a03f115156112eb57600080fd5b505050604051805190509050600b60009054906101000a900473ffffffffffffffffffffffffffffffffffffffff1673ffffffffffffffffffffffffffffffffffffffff16638fb6bd9c82856000604051602001526040518363ffffffff167c0100000000000000000000000000000000000000000000000000000000028152600401808373ffffffffffffffffffffffffffffffffffffffff1673ffffffffffffffffffffffffffffffffffffffff1681526020018273ffffffffffffffffffffffffffffffffffffffff1673ffffffffffffffffffffffffffffffffffffffff16815260200192505050602060405180830381600087803b15156113f057600080fd5b6102c65a03f1151561140157600080fd5b5050506040518051905015611419576002915061141e565b600191505b50919050565b6000809054906101000a900473ffffffffffffffffffffffffffffffffffffffff1681565b600260009054906101000a900473ffffffffffffffffffffffffffffffffffffffff1681565b60008061147b33611249565b9050600a600082600381111561148d57fe5b81526020019081526020016000205491505090565b60008060008060009054906101000a900473ffffffffffffffffffffffffffffffffffffffff1673ffffffffffffffffffffffffffffffffffffffff163373ffffffffffffffffffffffffffffffffffffffff16141561157f5760009150600090505b60095481101561157b5760006007600083815260200190815260200160002060000160019054906101000a900473ffffffffffffffffffffffffffffffffffffffff1673ffffffffffffffffffffffffffffffffffffffff1614151561156e5781806001019250505b8080600101915050611505565b8192505b505090565b80600a60006002600381111561159657fe5b8152602001908152602001600020819055503073ffffffffffffffffffffffffffffffffffffffff167f57e73e11a1db085916572505249945930d53dd4fb13e6e32f4558b92681904ac826040518082815260200191505060405180910390a250565b60038060000154908060010154908060020154908060030154905084565b600060405180807f494e444956494455414c00000000000000000000000000000000000000000000815250600a019050604051809103902060001916826040518082805190602001908083835b6020831015156116895780518252602082019150602081019050602083039250611664565b6001836020036101000a03801982511681845116808217855250505050505090500191505060405180910390206000191614156116e757600a6000600160038111156116d157fe5b81526020019081526020016000205490506117ba565b60405180807f524553454c4c45520000000000000000000000000000000000000000000000008152506008019050604051809103902060001916826040518082805190602001908083835b6020831015156117575780518252602082019150602081019050602083039250611732565b6001836020036101000a03801982511681845116808217855250505050505090500191505060405180910390206000191614156117b557600a60006002600381111561179f57fe5b81526020019081526020016000205490506117ba565b600080fd5b919050565b6000806117cb83611955565b5091505080915050919050565b60095481565b6000809054906101000a900473ffffffffffffffffffffffffffffffffffffffff1673ffffffffffffffffffffffffffffffffffffffff163373ffffffffffffffffffffffffffffffffffffffff1614156119525760008173ffffffffffffffffffffffffffffffffffffffff161415151561185957600080fd5b7f0384899bd253d83b23daa4d29aaa2efe0563d1132b43101e9ad667235aeb951b6000809054906101000a900473ffffffffffffffffffffffffffffffffffffffff1682604051808373ffffffffffffffffffffffffffffffffffffffff1673ffffffffffffffffffffffffffffffffffffffff1681526020018273ffffffffffffffffffffffffffffffffffffffff1673ffffffffffffffffffffffffffffffffffffffff1681526020019250505060405180910390a1806000806101000a81548173ffffffffffffffffffffffffffffffffffffffff021916908373ffffffffffffffffffffffffffffffffffffffff1602179055505b50565b61195d611fde565b600080600080600091505b600954821015611b39576007600083815260200190815260200160002090508573ffffffffffffffffffffffffffffffffffffffff168160000160019054906101000a900473ffffffffffffffffffffffffffffffffffffffff1673ffffffffffffffffffffffffffffffffffffffff161415611b2c578060018382608060405190810160405290816000820160009054906101000a900460ff166003811115611a0e57fe5b6003811115611a1957fe5b81526020016000820160019054906101000a900473ffffffffffffffffffffffffffffffffffffffff1673ffffffffffffffffffffffffffffffffffffffff1673ffffffffffffffffffffffffffffffffffffffff1681526020016001820160009054906101000a900473ffffffffffffffffffffffffffffffffffffffff1673ffffffffffffffffffffffffffffffffffffffff1673ffffffffffffffffffffffffffffffffffffffff1681526020016002820160009054906101000a900473ffffffffffffffffffffffffffffffffffffffff1673ffffffffffffffffffffffffffffffffffffffff1673ffffffffffffffffffffffffffffffffffffffff16815250509250945094509450611bbb565b8180600101925050611968565b608060405190810160405280600380811115611b5157fe5b8152602001600073ffffffffffffffffffffffffffffffffffffffff168152602001600073ffffffffffffffffffffffffffffffffffffffff168152602001600073ffffffffffffffffffffffffffffffffffffffff168152506000808292508090509450945094505b50509193909250565b600080611bd083611249565b9050600a6000826003811115611be257fe5b815260200190815260200160002054915050919050565b611c01611fde565b6000806000806000611c1288611955565b5093505060001515831515141515611c2957600080fd5b600854611c34611f61565b148015611c58575060008773ffffffffffffffffffffffffffffffffffffffff1614155b15611ce357608060405190810160405280600380811115611c7557fe5b8152602001600073ffffffffffffffffffffffffffffffffffffffff168152602001600073ffffffffffffffffffffffffffffffffffffffff168152602001600073ffffffffffffffffffffffffffffffffffffffff16815250600080829250809050955095509550611f57565b600091505b600954821015611ed55760076000838152602001908152602001600020905060006003811115611d1457fe5b8160000160009054906101000a900460ff166003811115611d3157fe5b1415611ec85760008160000160019054906101000a900473ffffffffffffffffffffffffffffffffffffffff1673ffffffffffffffffffffffffffffffffffffffff161415611ec7578060018382608060405190810160405290816000820160009054906101000a900460ff166003811115611da957fe5b6003811115611db457fe5b81526020016000820160019054906101000a900473ffffffffffffffffffffffffffffffffffffffff1673ffffffffffffffffffffffffffffffffffffffff1673ffffffffffffffffffffffffffffffffffffffff1681526020016001820160009054906101000a900473ffffffffffffffffffffffffffffffffffffffff1673ffffffffffffffffffffffffffffffffffffffff1673ffffffffffffffffffffffffffffffffffffffff1681526020016002820160009054906101000a900473ffffffffffffffffffffffffffffffffffffffff1673ffffffffffffffffffffffffffffffffffffffff1673ffffffffffffffffffffffffffffffffffffffff16815250509250955095509550611f57565b5b8180600101925050611ce8565b608060405190810160405280600380811115611eed57fe5b8152602001600073ffffffffffffffffffffffffffffffffffffffff168152602001600073ffffffffffffffffffffffffffffffffffffffff168152602001600073ffffffffffffffffffffffffffffffffffffffff168152506000808292508090509550955095505b5050509250925092565b60008060008060009250600091505b600954821015611fd55760076000838152602001908152602001600020905060026003811115611f9c57fe5b8160000160009054906101000a900460ff166003811115611fb957fe5b1415611fc85782806001019350505b8180600101925050611f70565b82935050505090565b60806040519081016040528060006003811115611ff757fe5b8152602001600073ffffffffffffffffffffffffffffffffffffffff168152602001600073ffffffffffffffffffffffffffffffffffffffff168152602001600073ffffffffffffffffffffffffffffffffffffffff16815250905600a165627a7a7230582044d5481afb231aeb13d0e5c9ca5d0995af5a0c414898729121a1043c865074d10029a165627a7a7230582008947fd8ddb3cbccedc322039090da578212067db6b32297165a20162df146e90029",
  "source": "pragma solidity ^0.4.18;\nimport \"./zeppelin/lifecycle/Killable.sol\";\nimport { Authentication } from \"./Authentication.sol\";\nimport { Class } from \"./Class.sol\";\nimport { Schedule } from \"./Schedule.sol\";\nimport { Reseller } from \"./Reseller.sol\";\n\ncontract Studio is Killable {\n\t\n\tmapping(address => string) public name;\n\tmapping(address => string) public contactDetails;\n\tmapping(address => address[]) public resellers;\n\tmapping(address => address[]) public schedules;\n\tmapping(address => address[]) public classes;\n\n\tevent ScheduleAdded(address indexed studio, address indexed klass, address indexed schedule);\n\tevent ScheduleRemoved(address indexed studio, address indexed schedule);\n\tevent ClassAdded(address indexed studio, address indexed klass);\n\tevent ContactDetailsUpdated(address indexed studio, string contactDetails);\n\t\n\tmodifier authenticated() {\n\t\trequire(bytes(name[msg.sender]).length > 0);\n\t\t_;\n\t}\n\n\taddress public authentication;\n\taddress public reseller;\n\n\tfunction setAuthentication(address _authentication) public onlyOwner {\n\t\tauthentication = _authentication;\n\t}\n\n\tfunction setReseller(address _reseller) public onlyOwner {\n\t\treseller = _reseller;\n\t}\n\n\tfunction classCreate(string _name, string _description) public {\n\t\tClass class = new Class(_name, _description);\n\t\tclass.transferOwnership(msg.sender);\n\t\tassert(class.owner() == msg.sender);\n\t\tclasses[msg.sender].push(class);\n\t\tClassAdded(msg.sender, address(class));\n\t}\n\n\tfunction scheduleCreate(address class, string instructor, uint dateStart, uint dateEnd, uint nSpots, uint nSpotsReseller, uint priceIndividual, uint priceReseller) public {\n\t\trequire(class != 0x0);\n\t\trequire(dateStart > 0);\n\t\trequire(dateEnd > 0);\n\t\trequire(nSpots > nSpotsReseller);\n\t\trequire(priceIndividual > 0);\n\t\trequire(priceReseller > 0);\n\t\t\n\t\tSchedule schedule = new Schedule(class, instructor, dateStart, dateEnd, nSpots, nSpotsReseller, priceIndividual, priceReseller);\n\t\tschedule.transferOwnership(msg.sender);\n\t\tassert(schedule.owner() == msg.sender);\n\t\tschedules[msg.sender].push(schedule);\n\n\t\tScheduleAdded(msg.sender, class, schedule);\n\t}\n\n\tfunction signup(string _name) public {\n\t\trequire(keccak256(name[msg.sender]) == keccak256(\"\"));\n\t\tname[msg.sender] = _name;\n\t\tAuthentication(authentication).signup(msg.sender, \"STUDIO\");\n\t}\n\n\tfunction userExists(address user) public view returns (bool) {\n\t\treturn bytes(name[user]).length > 0;\n\t}\n\n\tfunction getName(address studio) public view returns (string) {\n\t\treturn name[studio];\n\t}\n\n\tfunction getContactDetails(address studio) public view returns (string) {\n\t\treturn contactDetails[studio];\n\t}\n\n\tfunction updateContactDetails(string _contactDetails) authenticated public {\n\t\tcontactDetails[msg.sender] = _contactDetails;\n\t\tContactDetailsUpdated(msg.sender, contactDetails[msg.sender]);\n\t}\n\n\tfunction classesCount(address studio) public view returns (uint) {\n\t\treturn classes[studio].length;\n\t}\n\n\tfunction classAtIndex(address studio, uint index) public view returns (address) {\n\t\treturn classes[studio][index];\n\t}\n\n\tfunction schedulesCount(address studio) public view returns (uint) {\n\t\treturn schedules[studio].length;\n\t}\n\n\tfunction scheduleAtIndex(address studio, uint index) public view returns (address) {\n\t\treturn schedules[studio][index];\n\t}\n\n\tfunction scheduleRemoved(address schedule) public authenticated {\n\t\tfor (uint i = 0; i < schedules[msg.sender].length; i++) {\n\t\t\tif (schedules[msg.sender][i] == schedule) {\n\t\t\t\tif (i < schedules[msg.sender].length - 1) {\n\t\t\t\t\tschedules[msg.sender][i] = schedules[msg.sender][i+1];\n\t\t\t\t}\n\t\t\t\tdelete schedules[msg.sender][schedules[msg.sender].length - 1];\n\t\t\t\tschedules[msg.sender].length--;\n\t\t\t\tScheduleRemoved(msg.sender, schedule);\n\t\t\t\tbreak;\n\t\t\t}\n\t\t}\n\t}\n\n\tfunction resellersCount() authenticated public view returns (uint) {\n\t\treturn resellers[msg.sender].length;\n\t}\n\n\tfunction resellerAtIndex(uint index) authenticated public view returns (address) {\n\t\treturn resellers[msg.sender][index];\n\t}\n\n\tfunction addReseller(address _reseller) public authenticated {\n\t\trequire(isAuthorizedReseller(msg.sender, _reseller) == false);\n\t\tresellers[msg.sender].push(_reseller);\n\t\tReseller(reseller).resellerAdded(msg.sender, _reseller);\n\t}\n\n\tfunction removeReseller(address _reseller) public authenticated returns (bool) {\n\t\tassert(isAuthorizedReseller(msg.sender, _reseller));\n\t\tfor (uint resellerIndex = 0; resellerIndex < resellers[msg.sender].length; resellerIndex++) {\n\t\t\tif (resellers[msg.sender][resellerIndex] == _reseller) {\n\t\t\t\tdelete(resellers[msg.sender][resellerIndex]);\n\t\t\t\tReseller(reseller).resellerRemoved(msg.sender, _reseller);\n\t\t\t\treturn true;\n\t\t\t}\n\t\t}\n\t\treturn false;\n\t}\n\n\tfunction isAuthorizedReseller(address _studio, address _reseller) public view returns (bool) {\n\t\tbool isReseller = false;\n\t\tfor (uint resellerIndex = 0; resellerIndex < resellers[_studio].length; resellerIndex++) {\n\t\t\tif (resellers[_studio][resellerIndex] == _reseller) {\n\t\t\t\tisReseller = true;\n\t\t\t\tbreak;\n\t\t\t}\n\t\t}\n\t\treturn isReseller;\n\t}\n}\n",
  "sourcePath": "/Users/eric/Development/Jumbo/contracts/Studio.sol",
  "compiler": {
    "name": "solc",
    "version": "0.4.19+commit.c4cbbb05.Emscripten.clang"
  },
  "schemaVersion": "2.0.0",
  "updatedAt": "2018-03-27T03:20:02.039Z"
}